{
  "_format": "hh3-artifact-1",
  "contractName": "SchoolVoting",
  "sourceName": "contracts/schoolvoting.sol",
  "abi": [
    {
      "inputs": [
        {
          "internalType": "string[]",
          "name": "candidateNames",
          "type": "string[]"
        },
        {
          "internalType": "uint256",
          "name": "_maxVoters",
          "type": "uint256"
        },
        {
          "internalType": "uint256",
          "name": "_electionDurationHours",
          "type": "uint256"
        }
      ],
      "stateMutability": "nonpayable",
      "type": "constructor"
    },
    {
      "anonymous": false,
      "inputs": [
        {
          "indexed": true,
          "internalType": "address",
          "name": "admin",
          "type": "address"
        }
      ],
      "name": "ElectionEnded",
      "type": "event"
    },
    {
      "anonymous": false,
      "inputs": [
        {
          "indexed": false,
          "internalType": "uint256",
          "name": "startTime",
          "type": "uint256"
        },
        {
          "indexed": false,
          "internalType": "uint256",
          "name": "endTime",
          "type": "uint256"
        }
      ],
      "name": "ElectionStarted",
      "type": "event"
    },
    {
      "anonymous": false,
      "inputs": [
        {
          "indexed": true,
          "internalType": "uint256",
          "name": "candidateIndex",
          "type": "uint256"
        },
        {
          "indexed": false,
          "internalType": "uint256",
          "name": "timestamp",
          "type": "uint256"
        }
      ],
      "name": "VoteCast",
      "type": "event"
    },
    {
      "inputs": [],
      "name": "admin",
      "outputs": [
        {
          "internalType": "address",
          "name": "",
          "type": "address"
        }
      ],
      "stateMutability": "view",
      "type": "function"
    },
    {
      "inputs": [
        {
          "internalType": "uint256",
          "name": "",
          "type": "uint256"
        }
      ],
      "name": "candidates",
      "outputs": [
        {
          "internalType": "string",
          "name": "name",
          "type": "string"
        },
        {
          "internalType": "uint256",
          "name": "voteCount",
          "type": "uint256"
        }
      ],
      "stateMutability": "view",
      "type": "function"
    },
    {
      "inputs": [],
      "name": "electionEndTime",
      "outputs": [
        {
          "internalType": "uint256",
          "name": "",
          "type": "uint256"
        }
      ],
      "stateMutability": "view",
      "type": "function"
    },
    {
      "inputs": [],
      "name": "electionEnded",
      "outputs": [
        {
          "internalType": "bool",
          "name": "",
          "type": "bool"
        }
      ],
      "stateMutability": "view",
      "type": "function"
    },
    {
      "inputs": [],
      "name": "electionStartTime",
      "outputs": [
        {
          "internalType": "uint256",
          "name": "",
          "type": "uint256"
        }
      ],
      "stateMutability": "view",
      "type": "function"
    },
    {
      "inputs": [],
      "name": "endElection",
      "outputs": [],
      "stateMutability": "nonpayable",
      "type": "function"
    },
    {
      "inputs": [
        {
          "internalType": "string",
          "name": "candidateName",
          "type": "string"
        }
      ],
      "name": "getCandidateIndexByName",
      "outputs": [
        {
          "internalType": "uint256",
          "name": "",
          "type": "uint256"
        },
        {
          "internalType": "bool",
          "name": "",
          "type": "bool"
        }
      ],
      "stateMutability": "view",
      "type": "function"
    },
    {
      "inputs": [],
      "name": "getCandidates",
      "outputs": [
        {
          "components": [
            {
              "internalType": "string",
              "name": "name",
              "type": "string"
            },
            {
              "internalType": "uint256",
              "name": "voteCount",
              "type": "uint256"
            }
          ],
          "internalType": "struct SchoolVoting.Candidate[]",
          "name": "",
          "type": "tuple[]"
        }
      ],
      "stateMutability": "view",
      "type": "function"
    },
    {
      "inputs": [],
      "name": "getElectionStats",
      "outputs": [
        {
          "internalType": "uint256",
          "name": "totalVoters",
          "type": "uint256"
        },
        {
          "internalType": "uint256",
          "name": "maxAllowedVoters",
          "type": "uint256"
        },
        {
          "internalType": "uint256",
          "name": "remainingVoters",
          "type": "uint256"
        },
        {
          "internalType": "bool",
          "name": "isActive",
          "type": "bool"
        },
        {
          "internalType": "uint256",
          "name": "timeRemaining",
          "type": "uint256"
        }
      ],
      "stateMutability": "view",
      "type": "function"
    },
    {
      "inputs": [],
      "name": "getWinner",
      "outputs": [
        {
          "internalType": "string",
          "name": "winnerName",
          "type": "string"
        },
        {
          "internalType": "uint256",
          "name": "winnerVotes",
          "type": "uint256"
        },
        {
          "internalType": "bool",
          "name": "isTie",
          "type": "bool"
        }
      ],
      "stateMutability": "view",
      "type": "function"
    },
    {
      "inputs": [
        {
          "internalType": "address",
          "name": "",
          "type": "address"
        }
      ],
      "name": "hasVoted",
      "outputs": [
        {
          "internalType": "bool",
          "name": "",
          "type": "bool"
        }
      ],
      "stateMutability": "view",
      "type": "function"
    },
    {
      "inputs": [],
      "name": "maxVoters",
      "outputs": [
        {
          "internalType": "uint256",
          "name": "",
          "type": "uint256"
        }
      ],
      "stateMutability": "view",
      "type": "function"
    },
    {
      "inputs": [
        {
          "internalType": "uint256",
          "name": "candidateIndex",
          "type": "uint256"
        }
      ],
      "name": "vote",
      "outputs": [],
      "stateMutability": "nonpayable",
      "type": "function"
    },
    {
      "inputs": [
        {
          "internalType": "string",
          "name": "candidateName",
          "type": "string"
        }
      ],
      "name": "voteByName",
      "outputs": [],
      "stateMutability": "nonpayable",
      "type": "function"
    },
    {
      "inputs": [
        {
          "internalType": "string",
          "name": "candidateName",
          "type": "string"
        },
        {
          "internalType": "address",
          "name": "voter",
          "type": "address"
        }
      ],
      "name": "voteByNameForAddress",
      "outputs": [],
      "stateMutability": "nonpayable",
      "type": "function"
    },
    {
      "inputs": [
        {
          "internalType": "uint256",
          "name": "candidateIndex",
          "type": "uint256"
        },
        {
          "internalType": "address",
          "name": "voter",
          "type": "address"
        }
      ],
      "name": "voteForAddress",
      "outputs": [],
      "stateMutability": "nonpayable",
      "type": "function"
    },
    {
      "inputs": [],
      "name": "voterCount",
      "outputs": [
        {
          "internalType": "uint256",
          "name": "",
          "type": "uint256"
        }
      ],
      "stateMutability": "view",
      "type": "function"
    }
  ],
  "bytecode": "0x608060405234801562000010575f80fd5b506040516200228338038062002283833981810160405281019062000036919062000442565b335f806101000a81548173ffffffffffffffffffffffffffffffffffffffff021916908373ffffffffffffffffffffffffffffffffffffffff1602179055508160038190555042600581905550610e1081620000939190620004e7565b42620000a0919062000531565b6006819055505f5b8351811015620001445760026040518060400160405280868481518110620000d557620000d46200056b565b5b602002602001015181526020015f815250908060018154018082558091505060019003905f5260205f2090600202015f909190919091505f820151815f019081620001219190620007c6565b5060208201518160010155505080806200013b90620008aa565b915050620000a8565b507fff6a30dd22f5e8b783044c7d895a6e8592b55c56f139978d44dc39daf596731f6005546006546040516200017c92919062000907565b60405180910390a150505062000932565b5f604051905090565b5f80fd5b5f80fd5b5f80fd5b5f601f19601f8301169050919050565b7f4e487b71000000000000000000000000000000000000000000000000000000005f52604160045260245ffd5b620001ea82620001a2565b810181811067ffffffffffffffff821117156200020c576200020b620001b2565b5b80604052505050565b5f620002206200018d565b90506200022e8282620001df565b919050565b5f67ffffffffffffffff82111562000250576200024f620001b2565b5b602082029050602081019050919050565b5f80fd5b5f80fd5b5f67ffffffffffffffff821115620002865762000285620001b2565b5b6200029182620001a2565b9050602081019050919050565b5f5b83811015620002bd578082015181840152602081019050620002a0565b5f8484015250505050565b5f620002de620002d88462000269565b62000215565b905082815260208101848484011115620002fd57620002fc62000265565b5b6200030a8482856200029e565b509392505050565b5f82601f8301126200032957620003286200019e565b5b81516200033b848260208601620002c8565b91505092915050565b5f6200035a620003548462000233565b62000215565b9050808382526020820190506020840283018581111562000380576200037f62000261565b5b835b81811015620003ce57805167ffffffffffffffff811115620003a957620003a86200019e565b5b808601620003b8898262000312565b8552602085019450505060208101905062000382565b5050509392505050565b5f82601f830112620003ef57620003ee6200019e565b5b81516200040184826020860162000344565b91505092915050565b5f819050919050565b6200041e816200040a565b811462000429575f80fd5b50565b5f815190506200043c8162000413565b92915050565b5f805f606084860312156200045c576200045b62000196565b5b5f84015167ffffffffffffffff8111156200047c576200047b6200019a565b5b6200048a86828701620003d8565b93505060206200049d868287016200042c565b9250506040620004b0868287016200042c565b9150509250925092565b7f4e487b71000000000000000000000000000000000000000000000000000000005f52601160045260245ffd5b5f620004f3826200040a565b915062000500836200040a565b925082820262000510816200040a565b915082820484148315176200052a5762000529620004ba565b5b5092915050565b5f6200053d826200040a565b91506200054a836200040a565b9250828201905080821115620005655762000564620004ba565b5b92915050565b7f4e487b71000000000000000000000000000000000000000000000000000000005f52603260045260245ffd5b5f81519050919050565b7f4e487b71000000000000000000000000000000000000000000000000000000005f52602260045260245ffd5b5f6002820490506001821680620005e757607f821691505b602082108103620005fd57620005fc620005a2565b5b50919050565b5f819050815f5260205f209050919050565b5f6020601f8301049050919050565b5f82821b905092915050565b5f60088302620006617fffffffffffffffffffffffffffffffffffffffffffffffffffffffffffffffff8262000624565b6200066d868362000624565b95508019841693508086168417925050509392505050565b5f819050919050565b5f620006ae620006a8620006a2846200040a565b62000685565b6200040a565b9050919050565b5f819050919050565b620006c9836200068e565b620006e1620006d882620006b5565b84845462000630565b825550505050565b5f90565b620006f7620006e9565b62000704818484620006be565b505050565b5b818110156200072b576200071f5f82620006ed565b6001810190506200070a565b5050565b601f8211156200077a57620007448162000603565b6200074f8462000615565b810160208510156200075f578190505b620007776200076e8562000615565b83018262000709565b50505b505050565b5f82821c905092915050565b5f6200079c5f19846008026200077f565b1980831691505092915050565b5f620007b683836200078b565b9150826002028217905092915050565b620007d18262000598565b67ffffffffffffffff811115620007ed57620007ec620001b2565b5b620007f98254620005cf565b620008068282856200072f565b5f60209050601f8311600181146200083c575f841562000827578287015190505b620008338582620007a9565b865550620008a2565b601f1984166200084c8662000603565b5f5b8281101562000875578489015182556001820191506020850194506020810190506200084e565b8683101562000895578489015162000891601f8916826200078b565b8355505b6001600288020188555050505b505050505050565b5f620008b6826200040a565b91507fffffffffffffffffffffffffffffffffffffffffffffffffffffffffffffffff8203620008eb57620008ea620004ba565b5b600182019050919050565b62000901816200040a565b82525050565b5f6040820190506200091c5f830185620008f6565b6200092b6020830184620008f6565b9392505050565b61194380620009405f395ff3fe608060405234801561000f575f80fd5b5060043610610109575f3560e01c80638e7ea5b2116100a0578063c5980c941161006f578063c5980c9414610299578063c94ca9e3146102b7578063d446bfa9146102d5578063d5e50a63146102f1578063f851a4401461030f57610109565b80638e7ea5b214610208578063906ad2a9146102285780639e136e641461024a578063c07909f41461026857610109565b80633477ee2e116100dc5780633477ee2e1461019357806342169e48146101c457806359f78468146101e257806388c10463146101ec57610109565b80630121b93f1461010d57806306a49fce1461012957806309eef43e14610147578063293cd78214610177575b5f80fd5b61012760048036038101906101229190610d6c565b61032d565b005b61013161033a565b60405161013e9190610f25565b60405180910390f35b610161600480360381019061015c9190610f9f565b61042f565b60405161016e9190610fe4565b60405180910390f35b610191600480360381019061018c9190611129565b61044c565b005b6101ad60048036038101906101a89190610d6c565b6104ab565b6040516101bb9291906111da565b60405180910390f35b6101cc610560565b6040516101d99190611208565b60405180910390f35b6101ea610566565b005b61020660048036038101906102019190611221565b610671565b005b6102106106cf565b60405161021f93929190611268565b60405180910390f35b6102306108dd565b6040516102419594939291906112a4565b60405180910390f35b610252610968565b60405161025f9190611208565b60405180910390f35b610282600480360381019061027d9190611221565b61096e565b6040516102909291906112f5565b60405180910390f35b6102a1610982565b6040516102ae9190611208565b60405180910390f35b6102bf610988565b6040516102cc9190610fe4565b60405180910390f35b6102ef60048036038101906102ea919061131c565b61099a565b005b6102f96109a8565b6040516103069190611208565b60405180910390f35b6103176109ae565b6040516103249190611369565b60405180910390f35b61033781336109d1565b50565b60606002805480602002602001604051908101604052809291908181526020015f905b82821015610426578382905f5260205f2090600202016040518060400160405290815f8201805461038d906113af565b80601f01602080910402602001604051908101604052809291908181526020018280546103b9906113af565b80156104045780601f106103db57610100808354040283529160200191610404565b820191905f5260205f20905b8154815290600101906020018083116103e757829003601f168201915b505050505081526020016001820154815250508152602001906001019061035d565b50505050905090565b6001602052805f5260405f205f915054906101000a900460ff1681565b5f8061045784610ca0565b915091508061049b576040517f08c379a000000000000000000000000000000000000000000000000000000000815260040161049290611429565b60405180910390fd5b6104a582846109d1565b50505050565b600281815481106104ba575f80fd5b905f5260205f2090600202015f91509050805f0180546104d9906113af565b80601f0160208091040260200160405190810160405280929190818152602001828054610505906113af565b80156105505780601f1061052757610100808354040283529160200191610550565b820191905f5260205f20905b81548152906001019060200180831161053357829003601f168201915b5050505050908060010154905082565b60045481565b5f8054906101000a900473ffffffffffffffffffffffffffffffffffffffff1673ffffffffffffffffffffffffffffffffffffffff163373ffffffffffffffffffffffffffffffffffffffff16146105f3576040517f08c379a00000000000000000000000000000000000000000000000000000000081526004016105ea90611491565b60405180910390fd5b60015f60146101000a81548160ff0219169083151502179055505f8054906101000a900473ffffffffffffffffffffffffffffffffffffffff1673ffffffffffffffffffffffffffffffffffffffff167f05a88ee4bcd4ae62631fb7029f70fec14ed2e41886b3b9d204ecb778c016264460405160405180910390a2565b5f8061067c83610ca0565b91509150806106c0576040517f08c379a00000000000000000000000000000000000000000000000000000000081526004016106b790611429565b60405180910390fd5b6106ca82336109d1565b505050565b60605f805f60149054906101000a900460ff16806106ee575060065442115b61072d576040517f08c379a0000000000000000000000000000000000000000000000000000000008152600401610724906114f9565b60405180910390fd5b5f60028054905003610757575f8060405180602001604052805f81525091909250925092506108d8565b5f805f805b60028054905081101561081f57836002828154811061077e5761077d611517565b5b905f5260205f2090600202016001015411156107c657600281815481106107a8576107a7611517565b5b905f5260205f2090600202016001015493508092506001915061080c565b83600282815481106107db576107da611517565b5b905f5260205f209060020201600101541480156107f757505f84115b1561080b57818061080790611571565b9250505b5b808061081790611571565b91505061075c565b506001811193506002828154811061083a57610839611517565b5b905f5260205f2090600202015f018054610853906113af565b80601f016020809104026020016040519081016040528092919081815260200182805461087f906113af565b80156108ca5780601f106108a1576101008083540402835291602001916108ca565b820191905f5260205f20905b8154815290600101906020018083116108ad57829003601f168201915b505050505095508294505050505b909192565b5f805f805f60045494506003549350600454600354116108fd575f61090e565b60045460035461090d91906115b8565b5b92505f60149054906101000a900460ff1615801561092e57506005544210155b801561093c57506006544211155b915060065442101561095d574260065461095691906115b8565b9050610961565b5f90505b9091929394565b60065481565b5f8061097983610ca0565b91509150915091565b60055481565b5f60149054906101000a900460ff1681565b6109a482826109d1565b5050565b60035481565b5f8054906101000a900473ffffffffffffffffffffffffffffffffffffffff1681565b5f60149054906101000a900460ff1615610a20576040517f08c379a0000000000000000000000000000000000000000000000000000000008152600401610a1790611635565b60405180910390fd5b600554421015610a65576040517f08c379a0000000000000000000000000000000000000000000000000000000008152600401610a5c9061169d565b60405180910390fd5b600654421115610aaa576040517f08c379a0000000000000000000000000000000000000000000000000000000008152600401610aa190611705565b60405180910390fd5b60015f8273ffffffffffffffffffffffffffffffffffffffff1673ffffffffffffffffffffffffffffffffffffffff1681526020019081526020015f205f9054906101000a900460ff1615610b34576040517f08c379a0000000000000000000000000000000000000000000000000000000008152600401610b2b9061176d565b60405180910390fd5b6002805490508210610b7b576040517f08c379a0000000000000000000000000000000000000000000000000000000008152600401610b72906117d5565b60405180910390fd5b60035460045410610bc1576040517f08c379a0000000000000000000000000000000000000000000000000000000008152600401610bb89061183d565b60405180910390fd5b6001805f8373ffffffffffffffffffffffffffffffffffffffff1673ffffffffffffffffffffffffffffffffffffffff1681526020019081526020015f205f6101000a81548160ff02191690831515021790555060045f815480929190610c2790611571565b919050555060028281548110610c4057610c3f611517565b5b905f5260205f2090600202016001015f815480929190610c5f90611571565b9190505550817fc31875ef3ed5138b71a0c1da7e494bc4d2ba4f567084ea481ec9c45f3a93948b42604051610c949190611208565b60405180910390a25050565b5f805f838051906020012090505f5b600280549050811015610d1a578160028281548110610cd157610cd0611517565b5b905f5260205f2090600202015f01604051610cec91906118f7565b604051809103902003610d0757806001935093505050610d23565b8080610d1290611571565b915050610caf565b505f8092509250505b915091565b5f604051905090565b5f80fd5b5f80fd5b5f819050919050565b610d4b81610d39565b8114610d55575f80fd5b50565b5f81359050610d6681610d42565b92915050565b5f60208284031215610d8157610d80610d31565b5b5f610d8e84828501610d58565b91505092915050565b5f81519050919050565b5f82825260208201905092915050565b5f819050602082019050919050565b5f81519050919050565b5f82825260208201905092915050565b5f5b83811015610df7578082015181840152602081019050610ddc565b5f8484015250505050565b5f601f19601f8301169050919050565b5f610e1c82610dc0565b610e268185610dca565b9350610e36818560208601610dda565b610e3f81610e02565b840191505092915050565b610e5381610d39565b82525050565b5f604083015f8301518482035f860152610e738282610e12565b9150506020830151610e886020860182610e4a565b508091505092915050565b5f610e9e8383610e59565b905092915050565b5f602082019050919050565b5f610ebc82610d97565b610ec68185610da1565b935083602082028501610ed885610db1565b805f5b85811015610f135784840389528151610ef48582610e93565b9450610eff83610ea6565b925060208a01995050600181019050610edb565b50829750879550505050505092915050565b5f6020820190508181035f830152610f3d8184610eb2565b905092915050565b5f73ffffffffffffffffffffffffffffffffffffffff82169050919050565b5f610f6e82610f45565b9050919050565b610f7e81610f64565b8114610f88575f80fd5b50565b5f81359050610f9981610f75565b92915050565b5f60208284031215610fb457610fb3610d31565b5b5f610fc184828501610f8b565b91505092915050565b5f8115159050919050565b610fde81610fca565b82525050565b5f602082019050610ff75f830184610fd5565b92915050565b5f80fd5b5f80fd5b7f4e487b71000000000000000000000000000000000000000000000000000000005f52604160045260245ffd5b61103b82610e02565b810181811067ffffffffffffffff8211171561105a57611059611005565b5b80604052505050565b5f61106c610d28565b90506110788282611032565b919050565b5f67ffffffffffffffff82111561109757611096611005565b5b6110a082610e02565b9050602081019050919050565b828183375f83830152505050565b5f6110cd6110c88461107d565b611063565b9050828152602081018484840111156110e9576110e8611001565b5b6110f48482856110ad565b509392505050565b5f82601f8301126111105761110f610ffd565b5b81356111208482602086016110bb565b91505092915050565b5f806040838503121561113f5761113e610d31565b5b5f83013567ffffffffffffffff81111561115c5761115b610d35565b5b611168858286016110fc565b925050602061117985828601610f8b565b9150509250929050565b5f82825260208201905092915050565b5f61119d82610dc0565b6111a78185611183565b93506111b7818560208601610dda565b6111c081610e02565b840191505092915050565b6111d481610d39565b82525050565b5f6040820190508181035f8301526111f28185611193565b905061120160208301846111cb565b9392505050565b5f60208201905061121b5f8301846111cb565b92915050565b5f6020828403121561123657611235610d31565b5b5f82013567ffffffffffffffff81111561125357611252610d35565b5b61125f848285016110fc565b91505092915050565b5f6060820190508181035f8301526112808186611193565b905061128f60208301856111cb565b61129c6040830184610fd5565b949350505050565b5f60a0820190506112b75f8301886111cb565b6112c460208301876111cb565b6112d160408301866111cb565b6112de6060830185610fd5565b6112eb60808301846111cb565b9695505050505050565b5f6040820190506113085f8301856111cb565b6113156020830184610fd5565b9392505050565b5f806040838503121561133257611331610d31565b5b5f61133f85828601610d58565b925050602061135085828601610f8b565b9150509250929050565b61136381610f64565b82525050565b5f60208201905061137c5f83018461135a565b92915050565b7f4e487b71000000000000000000000000000000000000000000000000000000005f52602260045260245ffd5b5f60028204905060018216806113c657607f821691505b6020821081036113d9576113d8611382565b5b50919050565b7f43616e64696461746520646f6573206e6f7420657869737400000000000000005f82015250565b5f611413601883611183565b915061141e826113df565b602082019050919050565b5f6020820190508181035f83015261144081611407565b9050919050565b7f4f6e6c792061646d696e2063616e20656e642074686520656c656374696f6e005f82015250565b5f61147b601f83611183565b915061148682611447565b602082019050919050565b5f6020820190508181035f8301526114a88161146f565b9050919050565b7f456c656374696f6e206973207374696c6c206f6e676f696e67000000000000005f82015250565b5f6114e3601983611183565b91506114ee826114af565b602082019050919050565b5f6020820190508181035f830152611510816114d7565b9050919050565b7f4e487b71000000000000000000000000000000000000000000000000000000005f52603260045260245ffd5b7f4e487b71000000000000000000000000000000000000000000000000000000005f52601160045260245ffd5b5f61157b82610d39565b91507fffffffffffffffffffffffffffffffffffffffffffffffffffffffffffffffff82036115ad576115ac611544565b5b600182019050919050565b5f6115c282610d39565b91506115cd83610d39565b92508282039050818111156115e5576115e4611544565b5b92915050565b7f456c656374696f6e2068617320656e64656400000000000000000000000000005f82015250565b5f61161f601283611183565b915061162a826115eb565b602082019050919050565b5f6020820190508181035f83015261164c81611613565b9050919050565b7f456c656374696f6e20686173206e6f74207374617274656420796574000000005f82015250565b5f611687601c83611183565b915061169282611653565b602082019050919050565b5f6020820190508181035f8301526116b48161167b565b9050919050565b7f456c656374696f6e2074696d65206861732065787069726564000000000000005f82015250565b5f6116ef601983611183565b91506116fa826116bb565b602082019050919050565b5f6020820190508181035f83015261171c816116e3565b9050919050565b7f596f75206861766520616c726561647920766f746564000000000000000000005f82015250565b5f611757601683611183565b915061176282611723565b602082019050919050565b5f6020820190508181035f8301526117848161174b565b9050919050565b7f496e76616c69642063616e64696461746520696e6465780000000000000000005f82015250565b5f6117bf601783611183565b91506117ca8261178b565b602082019050919050565b5f6020820190508181035f8301526117ec816117b3565b9050919050565b7f4d6178696d756d20766f746572732072656163686564000000000000000000005f82015250565b5f611827601683611183565b9150611832826117f3565b602082019050919050565b5f6020820190508181035f8301526118548161181b565b9050919050565b5f81905092915050565b5f819050815f5260205f209050919050565b5f8154611883816113af565b61188d818661185b565b9450600182165f81146118a757600181146118bc576118ee565b60ff19831686528115158202860193506118ee565b6118c585611865565b5f5b838110156118e6578154818901526001820191506020810190506118c7565b838801955050505b50505092915050565b5f6119028284611877565b91508190509291505056fea2646970667358221220dadf887836a3d68ffcfa91fc69f7da26874585476a9ff8fe9cf800ea9d7e3b6b64736f6c63430008140033",
  "linkReferences": {},
  "deployedLinkReferences": {},
  "immutableReferences": {},
  "inputSourceName": "project/contracts/schoolvoting.sol",
  "buildInfoId": "solc-0_8_20-4ccb4247f0b87a25d442659763eb4019c751d652"
}