{"project/contracts/schoolvoting.sol":{"SchoolVoting":{"abi":[{"inputs":[{"internalType":"string[]","name":"candidateNames","type":"string[]"},{"internalType":"uint256","name":"_maxVoters","type":"uint256"},{"internalType":"uint256","name":"_electionDurationHours","type":"uint256"}],"stateMutability":"nonpayable","type":"constructor"},{"anonymous":false,"inputs":[{"indexed":true,"internalType":"address","name":"admin","type":"address"}],"name":"ElectionEnded","type":"event"},{"anonymous":false,"inputs":[{"indexed":false,"internalType":"uint256","name":"startTime","type":"uint256"},{"indexed":false,"internalType":"uint256","name":"endTime","type":"uint256"}],"name":"ElectionStarted","type":"event"},{"anonymous":false,"inputs":[{"indexed":true,"internalType":"uint256","name":"candidateIndex","type":"uint256"},{"indexed":false,"internalType":"uint256","name":"timestamp","type":"uint256"}],"name":"VoteCast","type":"event"},{"inputs":[],"name":"admin","outputs":[{"internalType":"address","name":"","type":"address"}],"stateMutability":"view","type":"function"},{"inputs":[{"internalType":"uint256","name":"","type":"uint256"}],"name":"candidates","outputs":[{"internalType":"string","name":"name","type":"string"},{"internalType":"uint256","name":"voteCount","type":"uint256"}],"stateMutability":"view","type":"function"},{"inputs":[],"name":"electionEndTime","outputs":[{"internalType":"uint256","name":"","type":"uint256"}],"stateMutability":"view","type":"function"},{"inputs":[],"name":"electionEnded","outputs":[{"internalType":"bool","name":"","type":"bool"}],"stateMutability":"view","type":"function"},{"inputs":[],"name":"electionStartTime","outputs":[{"internalType":"uint256","name":"","type":"uint256"}],"stateMutability":"view","type":"function"},{"inputs":[],"name":"endElection","outputs":[],"stateMutability":"nonpayable","type":"function"},{"inputs":[{"internalType":"string","name":"candidateName","type":"string"}],"name":"getCandidateIndexByName","outputs":[{"internalType":"uint256","name":"","type":"uint256"},{"internalType":"bool","name":"","type":"bool"}],"stateMutability":"view","type":"function"},{"inputs":[],"name":"getCandidates","outputs":[{"components":[{"internalType":"string","name":"name","type":"string"},{"internalType":"uint256","name":"voteCount","type":"uint256"}],"internalType":"struct SchoolVoting.Candidate[]","name":"","type":"tuple[]"}],"stateMutability":"view","type":"function"},{"inputs":[],"name":"getElectionStats","outputs":[{"internalType":"uint256","name":"totalVoters","type":"uint256"},{"internalType":"uint256","name":"maxAllowedVoters","type":"uint256"},{"internalType":"uint256","name":"remainingVoters","type":"uint256"},{"internalType":"bool","name":"isActive","type":"bool"},{"internalType":"uint256","name":"timeRemaining","type":"uint256"}],"stateMutability":"view","type":"function"},{"inputs":[],"name":"getWinner","outputs":[{"internalType":"string","name":"winnerName","type":"string"},{"internalType":"uint256","name":"winnerVotes","type":"uint256"},{"internalType":"bool","name":"isTie","type":"bool"}],"stateMutability":"view","type":"function"},{"inputs":[{"internalType":"address","name":"","type":"address"}],"name":"hasVoted","outputs":[{"internalType":"bool","name":"","type":"bool"}],"stateMutability":"view","type":"function"},{"inputs":[],"name":"maxVoters","outputs":[{"internalType":"uint256","name":"","type":"uint256"}],"stateMutability":"view","type":"function"},{"inputs":[{"internalType":"uint256","name":"candidateIndex","type":"uint256"}],"name":"vote","outputs":[],"stateMutability":"nonpayable","type":"function"},{"inputs":[{"internalType":"string","name":"candidateName","type":"string"}],"name":"voteByName","outputs":[],"stateMutability":"nonpayable","type":"function"},{"inputs":[{"internalType":"string","name":"candidateName","type":"string"},{"internalType":"address","name":"voter","type":"address"}],"name":"voteByNameForAddress","outputs":[],"stateMutability":"nonpayable","type":"function"},{"inputs":[{"internalType":"uint256","name":"candidateIndex","type":"uint256"},{"internalType":"address","name":"voter","type":"address"}],"name":"voteForAddress","outputs":[],"stateMutability":"nonpayable","type":"function"},{"inputs":[],"name":"voterCount","outputs":[{"internalType":"uint256","name":"","type":"uint256"}],"stateMutability":"view","type":"function"}],"evm":{"bytecode":{"linkReferences":{},"object":"608060405234801562000010575f80fd5b506040516200228338038062002283833981810160405281019062000036919062000442565b335f806101000a81548173ffffffffffffffffffffffffffffffffffffffff021916908373ffffffffffffffffffffffffffffffffffffffff1602179055508160038190555042600581905550610e1081620000939190620004e7565b42620000a0919062000531565b6006819055505f5b8351811015620001445760026040518060400160405280868481518110620000d557620000d46200056b565b5b602002602001015181526020015f815250908060018154018082558091505060019003905f5260205f2090600202015f909190919091505f820151815f019081620001219190620007c6565b5060208201518160010155505080806200013b90620008aa565b915050620000a8565b507fff6a30dd22f5e8b783044c7d895a6e8592b55c56f139978d44dc39daf596731f6005546006546040516200017c92919062000907565b60405180910390a150505062000932565b5f604051905090565b5f80fd5b5f80fd5b5f80fd5b5f601f19601f8301169050919050565b7f4e487b71000000000000000000000000000000000000000000000000000000005f52604160045260245ffd5b620001ea82620001a2565b810181811067ffffffffffffffff821117156200020c576200020b620001b2565b5b80604052505050565b5f620002206200018d565b90506200022e8282620001df565b919050565b5f67ffffffffffffffff82111562000250576200024f620001b2565b5b602082029050602081019050919050565b5f80fd5b5f80fd5b5f67ffffffffffffffff821115620002865762000285620001b2565b5b6200029182620001a2565b9050602081019050919050565b5f5b83811015620002bd578082015181840152602081019050620002a0565b5f8484015250505050565b5f620002de620002d88462000269565b62000215565b905082815260208101848484011115620002fd57620002fc62000265565b5b6200030a8482856200029e565b509392505050565b5f82601f8301126200032957620003286200019e565b5b81516200033b848260208601620002c8565b91505092915050565b5f6200035a620003548462000233565b62000215565b9050808382526020820190506020840283018581111562000380576200037f62000261565b5b835b81811015620003ce57805167ffffffffffffffff811115620003a957620003a86200019e565b5b808601620003b8898262000312565b8552602085019450505060208101905062000382565b5050509392505050565b5f82601f830112620003ef57620003ee6200019e565b5b81516200040184826020860162000344565b91505092915050565b5f819050919050565b6200041e816200040a565b811462000429575f80fd5b50565b5f815190506200043c8162000413565b92915050565b5f805f606084860312156200045c576200045b62000196565b5b5f84015167ffffffffffffffff8111156200047c576200047b6200019a565b5b6200048a86828701620003d8565b93505060206200049d868287016200042c565b9250506040620004b0868287016200042c565b9150509250925092565b7f4e487b71000000000000000000000000000000000000000000000000000000005f52601160045260245ffd5b5f620004f3826200040a565b915062000500836200040a565b925082820262000510816200040a565b915082820484148315176200052a5762000529620004ba565b5b5092915050565b5f6200053d826200040a565b91506200054a836200040a565b9250828201905080821115620005655762000564620004ba565b5b92915050565b7f4e487b71000000000000000000000000000000000000000000000000000000005f52603260045260245ffd5b5f81519050919050565b7f4e487b71000000000000000000000000000000000000000000000000000000005f52602260045260245ffd5b5f6002820490506001821680620005e757607f821691505b602082108103620005fd57620005fc620005a2565b5b50919050565b5f819050815f5260205f209050919050565b5f6020601f8301049050919050565b5f82821b905092915050565b5f60088302620006617fffffffffffffffffffffffffffffffffffffffffffffffffffffffffffffffff8262000624565b6200066d868362000624565b95508019841693508086168417925050509392505050565b5f819050919050565b5f620006ae620006a8620006a2846200040a565b62000685565b6200040a565b9050919050565b5f819050919050565b620006c9836200068e565b620006e1620006d882620006b5565b84845462000630565b825550505050565b5f90565b620006f7620006e9565b62000704818484620006be565b505050565b5b818110156200072b576200071f5f82620006ed565b6001810190506200070a565b5050565b601f8211156200077a57620007448162000603565b6200074f8462000615565b810160208510156200075f578190505b620007776200076e8562000615565b83018262000709565b50505b505050565b5f82821c905092915050565b5f6200079c5f19846008026200077f565b1980831691505092915050565b5f620007b683836200078b565b9150826002028217905092915050565b620007d18262000598565b67ffffffffffffffff811115620007ed57620007ec620001b2565b5b620007f98254620005cf565b620008068282856200072f565b5f60209050601f8311600181146200083c575f841562000827578287015190505b620008338582620007a9565b865550620008a2565b601f1984166200084c8662000603565b5f5b8281101562000875578489015182556001820191506020850194506020810190506200084e565b8683101562000895578489015162000891601f8916826200078b565b8355505b6001600288020188555050505b505050505050565b5f620008b6826200040a565b91507fffffffffffffffffffffffffffffffffffffffffffffffffffffffffffffffff8203620008eb57620008ea620004ba565b5b600182019050919050565b62000901816200040a565b82525050565b5f6040820190506200091c5f830185620008f6565b6200092b6020830184620008f6565b9392505050565b61194380620009405f395ff3fe608060405234801561000f575f80fd5b5060043610610109575f3560e01c80638e7ea5b2116100a0578063c5980c941161006f578063c5980c9414610299578063c94ca9e3146102b7578063d446bfa9146102d5578063d5e50a63146102f1578063f851a4401461030f57610109565b80638e7ea5b214610208578063906ad2a9146102285780639e136e641461024a578063c07909f41461026857610109565b80633477ee2e116100dc5780633477ee2e1461019357806342169e48146101c457806359f78468146101e257806388c10463146101ec57610109565b80630121b93f1461010d57806306a49fce1461012957806309eef43e14610147578063293cd78214610177575b5f80fd5b61012760048036038101906101229190610d6c565b61032d565b005b61013161033a565b60405161013e9190610f25565b60405180910390f35b610161600480360381019061015c9190610f9f565b61042f565b60405161016e9190610fe4565b60405180910390f35b610191600480360381019061018c9190611129565b61044c565b005b6101ad60048036038101906101a89190610d6c565b6104ab565b6040516101bb9291906111da565b60405180910390f35b6101cc610560565b6040516101d99190611208565b60405180910390f35b6101ea610566565b005b61020660048036038101906102019190611221565b610671565b005b6102106106cf565b60405161021f93929190611268565b60405180910390f35b6102306108dd565b6040516102419594939291906112a4565b60405180910390f35b610252610968565b60405161025f9190611208565b60405180910390f35b610282600480360381019061027d9190611221565b61096e565b6040516102909291906112f5565b60405180910390f35b6102a1610982565b6040516102ae9190611208565b60405180910390f35b6102bf610988565b6040516102cc9190610fe4565b60405180910390f35b6102ef60048036038101906102ea919061131c565b61099a565b005b6102f96109a8565b6040516103069190611208565b60405180910390f35b6103176109ae565b6040516103249190611369565b60405180910390f35b61033781336109d1565b50565b60606002805480602002602001604051908101604052809291908181526020015f905b82821015610426578382905f5260205f2090600202016040518060400160405290815f8201805461038d906113af565b80601f01602080910402602001604051908101604052809291908181526020018280546103b9906113af565b80156104045780601f106103db57610100808354040283529160200191610404565b820191905f5260205f20905b8154815290600101906020018083116103e757829003601f168201915b505050505081526020016001820154815250508152602001906001019061035d565b50505050905090565b6001602052805f5260405f205f915054906101000a900460ff1681565b5f8061045784610ca0565b915091508061049b576040517f08c379a000000000000000000000000000000000000000000000000000000000815260040161049290611429565b60405180910390fd5b6104a582846109d1565b50505050565b600281815481106104ba575f80fd5b905f5260205f2090600202015f91509050805f0180546104d9906113af565b80601f0160208091040260200160405190810160405280929190818152602001828054610505906113af565b80156105505780601f1061052757610100808354040283529160200191610550565b820191905f5260205f20905b81548152906001019060200180831161053357829003601f168201915b5050505050908060010154905082565b60045481565b5f8054906101000a900473ffffffffffffffffffffffffffffffffffffffff1673ffffffffffffffffffffffffffffffffffffffff163373ffffffffffffffffffffffffffffffffffffffff16146105f3576040517f08c379a00000000000000000000000000000000000000000000000000000000081526004016105ea90611491565b60405180910390fd5b60015f60146101000a81548160ff0219169083151502179055505f8054906101000a900473ffffffffffffffffffffffffffffffffffffffff1673ffffffffffffffffffffffffffffffffffffffff167f05a88ee4bcd4ae62631fb7029f70fec14ed2e41886b3b9d204ecb778c016264460405160405180910390a2565b5f8061067c83610ca0565b91509150806106c0576040517f08c379a00000000000000000000000000000000000000000000000000000000081526004016106b790611429565b60405180910390fd5b6106ca82336109d1565b505050565b60605f805f60149054906101000a900460ff16806106ee575060065442115b61072d576040517f08c379a0000000000000000000000000000000000000000000000000000000008152600401610724906114f9565b60405180910390fd5b5f60028054905003610757575f8060405180602001604052805f81525091909250925092506108d8565b5f805f805b60028054905081101561081f57836002828154811061077e5761077d611517565b5b905f5260205f2090600202016001015411156107c657600281815481106107a8576107a7611517565b5b905f5260205f2090600202016001015493508092506001915061080c565b83600282815481106107db576107da611517565b5b905f5260205f209060020201600101541480156107f757505f84115b1561080b57818061080790611571565b9250505b5b808061081790611571565b91505061075c565b506001811193506002828154811061083a57610839611517565b5b905f5260205f2090600202015f018054610853906113af565b80601f016020809104026020016040519081016040528092919081815260200182805461087f906113af565b80156108ca5780601f106108a1576101008083540402835291602001916108ca565b820191905f5260205f20905b8154815290600101906020018083116108ad57829003601f168201915b505050505095508294505050505b909192565b5f805f805f60045494506003549350600454600354116108fd575f61090e565b60045460035461090d91906115b8565b5b92505f60149054906101000a900460ff1615801561092e57506005544210155b801561093c57506006544211155b915060065442101561095d574260065461095691906115b8565b9050610961565b5f90505b9091929394565b60065481565b5f8061097983610ca0565b91509150915091565b60055481565b5f60149054906101000a900460ff1681565b6109a482826109d1565b5050565b60035481565b5f8054906101000a900473ffffffffffffffffffffffffffffffffffffffff1681565b5f60149054906101000a900460ff1615610a20576040517f08c379a0000000000000000000000000000000000000000000000000000000008152600401610a1790611635565b60405180910390fd5b600554421015610a65576040517f08c379a0000000000000000000000000000000000000000000000000000000008152600401610a5c9061169d565b60405180910390fd5b600654421115610aaa576040517f08c379a0000000000000000000000000000000000000000000000000000000008152600401610aa190611705565b60405180910390fd5b60015f8273ffffffffffffffffffffffffffffffffffffffff1673ffffffffffffffffffffffffffffffffffffffff1681526020019081526020015f205f9054906101000a900460ff1615610b34576040517f08c379a0000000000000000000000000000000000000000000000000000000008152600401610b2b9061176d565b60405180910390fd5b6002805490508210610b7b576040517f08c379a0000000000000000000000000000000000000000000000000000000008152600401610b72906117d5565b60405180910390fd5b60035460045410610bc1576040517f08c379a0000000000000000000000000000000000000000000000000000000008152600401610bb89061183d565b60405180910390fd5b6001805f8373ffffffffffffffffffffffffffffffffffffffff1673ffffffffffffffffffffffffffffffffffffffff1681526020019081526020015f205f6101000a81548160ff02191690831515021790555060045f815480929190610c2790611571565b919050555060028281548110610c4057610c3f611517565b5b905f5260205f2090600202016001015f815480929190610c5f90611571565b9190505550817fc31875ef3ed5138b71a0c1da7e494bc4d2ba4f567084ea481ec9c45f3a93948b42604051610c949190611208565b60405180910390a25050565b5f805f838051906020012090505f5b600280549050811015610d1a578160028281548110610cd157610cd0611517565b5b905f5260205f2090600202015f01604051610cec91906118f7565b604051809103902003610d0757806001935093505050610d23565b8080610d1290611571565b915050610caf565b505f8092509250505b915091565b5f604051905090565b5f80fd5b5f80fd5b5f819050919050565b610d4b81610d39565b8114610d55575f80fd5b50565b5f81359050610d6681610d42565b92915050565b5f60208284031215610d8157610d80610d31565b5b5f610d8e84828501610d58565b91505092915050565b5f81519050919050565b5f82825260208201905092915050565b5f819050602082019050919050565b5f81519050919050565b5f82825260208201905092915050565b5f5b83811015610df7578082015181840152602081019050610ddc565b5f8484015250505050565b5f601f19601f8301169050919050565b5f610e1c82610dc0565b610e268185610dca565b9350610e36818560208601610dda565b610e3f81610e02565b840191505092915050565b610e5381610d39565b82525050565b5f604083015f8301518482035f860152610e738282610e12565b9150506020830151610e886020860182610e4a565b508091505092915050565b5f610e9e8383610e59565b905092915050565b5f602082019050919050565b5f610ebc82610d97565b610ec68185610da1565b935083602082028501610ed885610db1565b805f5b85811015610f135784840389528151610ef48582610e93565b9450610eff83610ea6565b925060208a01995050600181019050610edb565b50829750879550505050505092915050565b5f6020820190508181035f830152610f3d8184610eb2565b905092915050565b5f73ffffffffffffffffffffffffffffffffffffffff82169050919050565b5f610f6e82610f45565b9050919050565b610f7e81610f64565b8114610f88575f80fd5b50565b5f81359050610f9981610f75565b92915050565b5f60208284031215610fb457610fb3610d31565b5b5f610fc184828501610f8b565b91505092915050565b5f8115159050919050565b610fde81610fca565b82525050565b5f602082019050610ff75f830184610fd5565b92915050565b5f80fd5b5f80fd5b7f4e487b71000000000000000000000000000000000000000000000000000000005f52604160045260245ffd5b61103b82610e02565b810181811067ffffffffffffffff8211171561105a57611059611005565b5b80604052505050565b5f61106c610d28565b90506110788282611032565b919050565b5f67ffffffffffffffff82111561109757611096611005565b5b6110a082610e02565b9050602081019050919050565b828183375f83830152505050565b5f6110cd6110c88461107d565b611063565b9050828152602081018484840111156110e9576110e8611001565b5b6110f48482856110ad565b509392505050565b5f82601f8301126111105761110f610ffd565b5b81356111208482602086016110bb565b91505092915050565b5f806040838503121561113f5761113e610d31565b5b5f83013567ffffffffffffffff81111561115c5761115b610d35565b5b611168858286016110fc565b925050602061117985828601610f8b565b9150509250929050565b5f82825260208201905092915050565b5f61119d82610dc0565b6111a78185611183565b93506111b7818560208601610dda565b6111c081610e02565b840191505092915050565b6111d481610d39565b82525050565b5f6040820190508181035f8301526111f28185611193565b905061120160208301846111cb565b9392505050565b5f60208201905061121b5f8301846111cb565b92915050565b5f6020828403121561123657611235610d31565b5b5f82013567ffffffffffffffff81111561125357611252610d35565b5b61125f848285016110fc565b91505092915050565b5f6060820190508181035f8301526112808186611193565b905061128f60208301856111cb565b61129c6040830184610fd5565b949350505050565b5f60a0820190506112b75f8301886111cb565b6112c460208301876111cb565b6112d160408301866111cb565b6112de6060830185610fd5565b6112eb60808301846111cb565b9695505050505050565b5f6040820190506113085f8301856111cb565b6113156020830184610fd5565b9392505050565b5f806040838503121561133257611331610d31565b5b5f61133f85828601610d58565b925050602061135085828601610f8b565b9150509250929050565b61136381610f64565b82525050565b5f60208201905061137c5f83018461135a565b92915050565b7f4e487b71000000000000000000000000000000000000000000000000000000005f52602260045260245ffd5b5f60028204905060018216806113c657607f821691505b6020821081036113d9576113d8611382565b5b50919050565b7f43616e64696461746520646f6573206e6f7420657869737400000000000000005f82015250565b5f611413601883611183565b915061141e826113df565b602082019050919050565b5f6020820190508181035f83015261144081611407565b9050919050565b7f4f6e6c792061646d696e2063616e20656e642074686520656c656374696f6e005f82015250565b5f61147b601f83611183565b915061148682611447565b602082019050919050565b5f6020820190508181035f8301526114a88161146f565b9050919050565b7f456c656374696f6e206973207374696c6c206f6e676f696e67000000000000005f82015250565b5f6114e3601983611183565b91506114ee826114af565b602082019050919050565b5f6020820190508181035f830152611510816114d7565b9050919050565b7f4e487b71000000000000000000000000000000000000000000000000000000005f52603260045260245ffd5b7f4e487b71000000000000000000000000000000000000000000000000000000005f52601160045260245ffd5b5f61157b82610d39565b91507fffffffffffffffffffffffffffffffffffffffffffffffffffffffffffffffff82036115ad576115ac611544565b5b600182019050919050565b5f6115c282610d39565b91506115cd83610d39565b92508282039050818111156115e5576115e4611544565b5b92915050565b7f456c656374696f6e2068617320656e64656400000000000000000000000000005f82015250565b5f61161f601283611183565b915061162a826115eb565b602082019050919050565b5f6020820190508181035f83015261164c81611613565b9050919050565b7f456c656374696f6e20686173206e6f74207374617274656420796574000000005f82015250565b5f611687601c83611183565b915061169282611653565b602082019050919050565b5f6020820190508181035f8301526116b48161167b565b9050919050565b7f456c656374696f6e2074696d65206861732065787069726564000000000000005f82015250565b5f6116ef601983611183565b91506116fa826116bb565b602082019050919050565b5f6020820190508181035f83015261171c816116e3565b9050919050565b7f596f75206861766520616c726561647920766f746564000000000000000000005f82015250565b5f611757601683611183565b915061176282611723565b602082019050919050565b5f6020820190508181035f8301526117848161174b565b9050919050565b7f496e76616c69642063616e64696461746520696e6465780000000000000000005f82015250565b5f6117bf601783611183565b91506117ca8261178b565b602082019050919050565b5f6020820190508181035f8301526117ec816117b3565b9050919050565b7f4d6178696d756d20766f746572732072656163686564000000000000000000005f82015250565b5f611827601683611183565b9150611832826117f3565b602082019050919050565b5f6020820190508181035f8301526118548161181b565b9050919050565b5f81905092915050565b5f819050815f5260205f209050919050565b5f8154611883816113af565b61188d818661185b565b9450600182165f81146118a757600181146118bc576118ee565b60ff19831686528115158202860193506118ee565b6118c585611865565b5f5b838110156118e6578154818901526001820191506020810190506118c7565b838801955050505b50505092915050565b5f6119028284611877565b91508190509291505056fea2646970667358221220dadf887836a3d68ffcfa91fc69f7da26874585476a9ff8fe9cf800ea9d7e3b6b64736f6c63430008140033","opcodes":"PUSH1 0x80 PUSH1 0x40 MSTORE CALLVALUE DUP1 ISZERO PUSH3 0x10 JUMPI PUSH0 DUP1 REVERT JUMPDEST POP PUSH1 0x40 MLOAD PUSH3 0x2283 CODESIZE SUB DUP1 PUSH3 0x2283 DUP4 CODECOPY DUP2 DUP2 ADD PUSH1 0x40 MSTORE DUP2 ADD SWAP1 PUSH3 0x36 SWAP2 SWAP1 PUSH3 0x442 JUMP JUMPDEST CALLER PUSH0 DUP1 PUSH2 0x100 EXP DUP2 SLOAD DUP2 PUSH20 0xFFFFFFFFFFFFFFFFFFFFFFFFFFFFFFFFFFFFFFFF MUL NOT AND SWAP1 DUP4 PUSH20 0xFFFFFFFFFFFFFFFFFFFFFFFFFFFFFFFFFFFFFFFF AND MUL OR SWAP1 SSTORE POP DUP2 PUSH1 0x3 DUP2 SWAP1 SSTORE POP TIMESTAMP PUSH1 0x5 DUP2 SWAP1 SSTORE POP PUSH2 0xE10 DUP2 PUSH3 0x93 SWAP2 SWAP1 PUSH3 0x4E7 JUMP JUMPDEST TIMESTAMP PUSH3 0xA0 SWAP2 SWAP1 PUSH3 0x531 JUMP JUMPDEST PUSH1 0x6 DUP2 SWAP1 SSTORE POP PUSH0 JUMPDEST DUP4 MLOAD DUP2 LT ISZERO PUSH3 0x144 JUMPI PUSH1 0x2 PUSH1 0x40 MLOAD DUP1 PUSH1 0x40 ADD PUSH1 0x40 MSTORE DUP1 DUP7 DUP5 DUP2 MLOAD DUP2 LT PUSH3 0xD5 JUMPI PUSH3 0xD4 PUSH3 0x56B JUMP JUMPDEST JUMPDEST PUSH1 0x20 MUL PUSH1 0x20 ADD ADD MLOAD DUP2 MSTORE PUSH1 0x20 ADD PUSH0 DUP2 MSTORE POP SWAP1 DUP1 PUSH1 0x1 DUP2 SLOAD ADD DUP1 DUP3 SSTORE DUP1 SWAP2 POP POP PUSH1 0x1 SWAP1 SUB SWAP1 PUSH0 MSTORE PUSH1 0x20 PUSH0 KECCAK256 SWAP1 PUSH1 0x2 MUL ADD PUSH0 SWAP1 SWAP2 SWAP1 SWAP2 SWAP1 SWAP2 POP PUSH0 DUP3 ADD MLOAD DUP2 PUSH0 ADD SWAP1 DUP2 PUSH3 0x121 SWAP2 SWAP1 PUSH3 0x7C6 JUMP JUMPDEST POP PUSH1 0x20 DUP3 ADD MLOAD DUP2 PUSH1 0x1 ADD SSTORE POP POP DUP1 DUP1 PUSH3 0x13B SWAP1 PUSH3 0x8AA JUMP JUMPDEST SWAP2 POP POP PUSH3 0xA8 JUMP JUMPDEST POP PUSH32 0xFF6A30DD22F5E8B783044C7D895A6E8592B55C56F139978D44DC39DAF596731F PUSH1 0x5 SLOAD PUSH1 0x6 SLOAD PUSH1 0x40 MLOAD PUSH3 0x17C SWAP3 SWAP2 SWAP1 PUSH3 0x907 JUMP JUMPDEST PUSH1 0x40 MLOAD DUP1 SWAP2 SUB SWAP1 LOG1 POP POP POP PUSH3 0x932 JUMP JUMPDEST PUSH0 PUSH1 0x40 MLOAD SWAP1 POP SWAP1 JUMP JUMPDEST PUSH0 DUP1 REVERT JUMPDEST PUSH0 DUP1 REVERT JUMPDEST PUSH0 DUP1 REVERT JUMPDEST PUSH0 PUSH1 0x1F NOT PUSH1 0x1F DUP4 ADD AND SWAP1 POP SWAP2 SWAP1 POP JUMP JUMPDEST PUSH32 0x4E487B7100000000000000000000000000000000000000000000000000000000 PUSH0 MSTORE PUSH1 0x41 PUSH1 0x4 MSTORE PUSH1 0x24 PUSH0 REVERT JUMPDEST PUSH3 0x1EA DUP3 PUSH3 0x1A2 JUMP JUMPDEST DUP2 ADD DUP2 DUP2 LT PUSH8 0xFFFFFFFFFFFFFFFF DUP3 GT OR ISZERO PUSH3 0x20C JUMPI PUSH3 0x20B PUSH3 0x1B2 JUMP JUMPDEST JUMPDEST DUP1 PUSH1 0x40 MSTORE POP POP POP JUMP JUMPDEST PUSH0 PUSH3 0x220 PUSH3 0x18D JUMP JUMPDEST SWAP1 POP PUSH3 0x22E DUP3 DUP3 PUSH3 0x1DF JUMP JUMPDEST SWAP2 SWAP1 POP JUMP JUMPDEST PUSH0 PUSH8 0xFFFFFFFFFFFFFFFF DUP3 GT ISZERO PUSH3 0x250 JUMPI PUSH3 0x24F PUSH3 0x1B2 JUMP JUMPDEST JUMPDEST PUSH1 0x20 DUP3 MUL SWAP1 POP PUSH1 0x20 DUP2 ADD SWAP1 POP SWAP2 SWAP1 POP JUMP JUMPDEST PUSH0 DUP1 REVERT JUMPDEST PUSH0 DUP1 REVERT JUMPDEST PUSH0 PUSH8 0xFFFFFFFFFFFFFFFF DUP3 GT ISZERO PUSH3 0x286 JUMPI PUSH3 0x285 PUSH3 0x1B2 JUMP JUMPDEST JUMPDEST PUSH3 0x291 DUP3 PUSH3 0x1A2 JUMP JUMPDEST SWAP1 POP PUSH1 0x20 DUP2 ADD SWAP1 POP SWAP2 SWAP1 POP JUMP JUMPDEST PUSH0 JUMPDEST DUP4 DUP2 LT ISZERO PUSH3 0x2BD JUMPI DUP1 DUP3 ADD MLOAD DUP2 DUP5 ADD MSTORE PUSH1 0x20 DUP2 ADD SWAP1 POP PUSH3 0x2A0 JUMP JUMPDEST PUSH0 DUP5 DUP5 ADD MSTORE POP POP POP POP JUMP JUMPDEST PUSH0 PUSH3 0x2DE PUSH3 0x2D8 DUP5 PUSH3 0x269 JUMP JUMPDEST PUSH3 0x215 JUMP JUMPDEST SWAP1 POP DUP3 DUP2 MSTORE PUSH1 0x20 DUP2 ADD DUP5 DUP5 DUP5 ADD GT ISZERO PUSH3 0x2FD JUMPI PUSH3 0x2FC PUSH3 0x265 JUMP JUMPDEST JUMPDEST PUSH3 0x30A DUP5 DUP3 DUP6 PUSH3 0x29E JUMP JUMPDEST POP SWAP4 SWAP3 POP POP POP JUMP JUMPDEST PUSH0 DUP3 PUSH1 0x1F DUP4 ADD SLT PUSH3 0x329 JUMPI PUSH3 0x328 PUSH3 0x19E JUMP JUMPDEST JUMPDEST DUP2 MLOAD PUSH3 0x33B DUP5 DUP3 PUSH1 0x20 DUP7 ADD PUSH3 0x2C8 JUMP JUMPDEST SWAP2 POP POP SWAP3 SWAP2 POP POP JUMP JUMPDEST PUSH0 PUSH3 0x35A PUSH3 0x354 DUP5 PUSH3 0x233 JUMP JUMPDEST PUSH3 0x215 JUMP JUMPDEST SWAP1 POP DUP1 DUP4 DUP3 MSTORE PUSH1 0x20 DUP3 ADD SWAP1 POP PUSH1 0x20 DUP5 MUL DUP4 ADD DUP6 DUP2 GT ISZERO PUSH3 0x380 JUMPI PUSH3 0x37F PUSH3 0x261 JUMP JUMPDEST JUMPDEST DUP4 JUMPDEST DUP2 DUP2 LT ISZERO PUSH3 0x3CE JUMPI DUP1 MLOAD PUSH8 0xFFFFFFFFFFFFFFFF DUP2 GT ISZERO PUSH3 0x3A9 JUMPI PUSH3 0x3A8 PUSH3 0x19E JUMP JUMPDEST JUMPDEST DUP1 DUP7 ADD PUSH3 0x3B8 DUP10 DUP3 PUSH3 0x312 JUMP JUMPDEST DUP6 MSTORE PUSH1 0x20 DUP6 ADD SWAP5 POP POP POP PUSH1 0x20 DUP2 ADD SWAP1 POP PUSH3 0x382 JUMP JUMPDEST POP POP POP SWAP4 SWAP3 POP POP POP JUMP JUMPDEST PUSH0 DUP3 PUSH1 0x1F DUP4 ADD SLT PUSH3 0x3EF JUMPI PUSH3 0x3EE PUSH3 0x19E JUMP JUMPDEST JUMPDEST DUP2 MLOAD PUSH3 0x401 DUP5 DUP3 PUSH1 0x20 DUP7 ADD PUSH3 0x344 JUMP JUMPDEST SWAP2 POP POP SWAP3 SWAP2 POP POP JUMP JUMPDEST PUSH0 DUP2 SWAP1 POP SWAP2 SWAP1 POP JUMP JUMPDEST PUSH3 0x41E DUP2 PUSH3 0x40A JUMP JUMPDEST DUP2 EQ PUSH3 0x429 JUMPI PUSH0 DUP1 REVERT JUMPDEST POP JUMP JUMPDEST PUSH0 DUP2 MLOAD SWAP1 POP PUSH3 0x43C DUP2 PUSH3 0x413 JUMP JUMPDEST SWAP3 SWAP2 POP POP JUMP JUMPDEST PUSH0 DUP1 PUSH0 PUSH1 0x60 DUP5 DUP7 SUB SLT ISZERO PUSH3 0x45C JUMPI PUSH3 0x45B PUSH3 0x196 JUMP JUMPDEST JUMPDEST PUSH0 DUP5 ADD MLOAD PUSH8 0xFFFFFFFFFFFFFFFF DUP2 GT ISZERO PUSH3 0x47C JUMPI PUSH3 0x47B PUSH3 0x19A JUMP JUMPDEST JUMPDEST PUSH3 0x48A DUP7 DUP3 DUP8 ADD PUSH3 0x3D8 JUMP JUMPDEST SWAP4 POP POP PUSH1 0x20 PUSH3 0x49D DUP7 DUP3 DUP8 ADD PUSH3 0x42C JUMP JUMPDEST SWAP3 POP POP PUSH1 0x40 PUSH3 0x4B0 DUP7 DUP3 DUP8 ADD PUSH3 0x42C JUMP JUMPDEST SWAP2 POP POP SWAP3 POP SWAP3 POP SWAP3 JUMP JUMPDEST PUSH32 0x4E487B7100000000000000000000000000000000000000000000000000000000 PUSH0 MSTORE PUSH1 0x11 PUSH1 0x4 MSTORE PUSH1 0x24 PUSH0 REVERT JUMPDEST PUSH0 PUSH3 0x4F3 DUP3 PUSH3 0x40A JUMP JUMPDEST SWAP2 POP PUSH3 0x500 DUP4 PUSH3 0x40A JUMP JUMPDEST SWAP3 POP DUP3 DUP3 MUL PUSH3 0x510 DUP2 PUSH3 0x40A JUMP JUMPDEST SWAP2 POP DUP3 DUP3 DIV DUP5 EQ DUP4 ISZERO OR PUSH3 0x52A JUMPI PUSH3 0x529 PUSH3 0x4BA JUMP JUMPDEST JUMPDEST POP SWAP3 SWAP2 POP POP JUMP JUMPDEST PUSH0 PUSH3 0x53D DUP3 PUSH3 0x40A JUMP JUMPDEST SWAP2 POP PUSH3 0x54A DUP4 PUSH3 0x40A JUMP JUMPDEST SWAP3 POP DUP3 DUP3 ADD SWAP1 POP DUP1 DUP3 GT ISZERO PUSH3 0x565 JUMPI PUSH3 0x564 PUSH3 0x4BA JUMP JUMPDEST JUMPDEST SWAP3 SWAP2 POP POP JUMP JUMPDEST PUSH32 0x4E487B7100000000000000000000000000000000000000000000000000000000 PUSH0 MSTORE PUSH1 0x32 PUSH1 0x4 MSTORE PUSH1 0x24 PUSH0 REVERT JUMPDEST PUSH0 DUP2 MLOAD SWAP1 POP SWAP2 SWAP1 POP JUMP JUMPDEST PUSH32 0x4E487B7100000000000000000000000000000000000000000000000000000000 PUSH0 MSTORE PUSH1 0x22 PUSH1 0x4 MSTORE PUSH1 0x24 PUSH0 REVERT JUMPDEST PUSH0 PUSH1 0x2 DUP3 DIV SWAP1 POP PUSH1 0x1 DUP3 AND DUP1 PUSH3 0x5E7 JUMPI PUSH1 0x7F DUP3 AND SWAP2 POP JUMPDEST PUSH1 0x20 DUP3 LT DUP2 SUB PUSH3 0x5FD JUMPI PUSH3 0x5FC PUSH3 0x5A2 JUMP JUMPDEST JUMPDEST POP SWAP2 SWAP1 POP JUMP JUMPDEST PUSH0 DUP2 SWAP1 POP DUP2 PUSH0 MSTORE PUSH1 0x20 PUSH0 KECCAK256 SWAP1 POP SWAP2 SWAP1 POP JUMP JUMPDEST PUSH0 PUSH1 0x20 PUSH1 0x1F DUP4 ADD DIV SWAP1 POP SWAP2 SWAP1 POP JUMP JUMPDEST PUSH0 DUP3 DUP3 SHL SWAP1 POP SWAP3 SWAP2 POP POP JUMP JUMPDEST PUSH0 PUSH1 0x8 DUP4 MUL PUSH3 0x661 PUSH32 0xFFFFFFFFFFFFFFFFFFFFFFFFFFFFFFFFFFFFFFFFFFFFFFFFFFFFFFFFFFFFFFFF DUP3 PUSH3 0x624 JUMP JUMPDEST PUSH3 0x66D DUP7 DUP4 PUSH3 0x624 JUMP JUMPDEST SWAP6 POP DUP1 NOT DUP5 AND SWAP4 POP DUP1 DUP7 AND DUP5 OR SWAP3 POP POP POP SWAP4 SWAP3 POP POP POP JUMP JUMPDEST PUSH0 DUP2 SWAP1 POP SWAP2 SWAP1 POP JUMP JUMPDEST PUSH0 PUSH3 0x6AE PUSH3 0x6A8 PUSH3 0x6A2 DUP5 PUSH3 0x40A JUMP JUMPDEST PUSH3 0x685 JUMP JUMPDEST PUSH3 0x40A JUMP JUMPDEST SWAP1 POP SWAP2 SWAP1 POP JUMP JUMPDEST PUSH0 DUP2 SWAP1 POP SWAP2 SWAP1 POP JUMP JUMPDEST PUSH3 0x6C9 DUP4 PUSH3 0x68E JUMP JUMPDEST PUSH3 0x6E1 PUSH3 0x6D8 DUP3 PUSH3 0x6B5 JUMP JUMPDEST DUP5 DUP5 SLOAD PUSH3 0x630 JUMP JUMPDEST DUP3 SSTORE POP POP POP POP JUMP JUMPDEST PUSH0 SWAP1 JUMP JUMPDEST PUSH3 0x6F7 PUSH3 0x6E9 JUMP JUMPDEST PUSH3 0x704 DUP2 DUP5 DUP5 PUSH3 0x6BE JUMP JUMPDEST POP POP POP JUMP JUMPDEST JUMPDEST DUP2 DUP2 LT ISZERO PUSH3 0x72B JUMPI PUSH3 0x71F PUSH0 DUP3 PUSH3 0x6ED JUMP JUMPDEST PUSH1 0x1 DUP2 ADD SWAP1 POP PUSH3 0x70A JUMP JUMPDEST POP POP JUMP JUMPDEST PUSH1 0x1F DUP3 GT ISZERO PUSH3 0x77A JUMPI PUSH3 0x744 DUP2 PUSH3 0x603 JUMP JUMPDEST PUSH3 0x74F DUP5 PUSH3 0x615 JUMP JUMPDEST DUP2 ADD PUSH1 0x20 DUP6 LT ISZERO PUSH3 0x75F JUMPI DUP2 SWAP1 POP JUMPDEST PUSH3 0x777 PUSH3 0x76E DUP6 PUSH3 0x615 JUMP JUMPDEST DUP4 ADD DUP3 PUSH3 0x709 JUMP JUMPDEST POP POP JUMPDEST POP POP POP JUMP JUMPDEST PUSH0 DUP3 DUP3 SHR SWAP1 POP SWAP3 SWAP2 POP POP JUMP JUMPDEST PUSH0 PUSH3 0x79C PUSH0 NOT DUP5 PUSH1 0x8 MUL PUSH3 0x77F JUMP JUMPDEST NOT DUP1 DUP4 AND SWAP2 POP POP SWAP3 SWAP2 POP POP JUMP JUMPDEST PUSH0 PUSH3 0x7B6 DUP4 DUP4 PUSH3 0x78B JUMP JUMPDEST SWAP2 POP DUP3 PUSH1 0x2 MUL DUP3 OR SWAP1 POP SWAP3 SWAP2 POP POP JUMP JUMPDEST PUSH3 0x7D1 DUP3 PUSH3 0x598 JUMP JUMPDEST PUSH8 0xFFFFFFFFFFFFFFFF DUP2 GT ISZERO PUSH3 0x7ED JUMPI PUSH3 0x7EC PUSH3 0x1B2 JUMP JUMPDEST JUMPDEST PUSH3 0x7F9 DUP3 SLOAD PUSH3 0x5CF JUMP JUMPDEST PUSH3 0x806 DUP3 DUP3 DUP6 PUSH3 0x72F JUMP JUMPDEST PUSH0 PUSH1 0x20 SWAP1 POP PUSH1 0x1F DUP4 GT PUSH1 0x1 DUP2 EQ PUSH3 0x83C JUMPI PUSH0 DUP5 ISZERO PUSH3 0x827 JUMPI DUP3 DUP8 ADD MLOAD SWAP1 POP JUMPDEST PUSH3 0x833 DUP6 DUP3 PUSH3 0x7A9 JUMP JUMPDEST DUP7 SSTORE POP PUSH3 0x8A2 JUMP JUMPDEST PUSH1 0x1F NOT DUP5 AND PUSH3 0x84C DUP7 PUSH3 0x603 JUMP JUMPDEST PUSH0 JUMPDEST DUP3 DUP2 LT ISZERO PUSH3 0x875 JUMPI DUP5 DUP10 ADD MLOAD DUP3 SSTORE PUSH1 0x1 DUP3 ADD SWAP2 POP PUSH1 0x20 DUP6 ADD SWAP5 POP PUSH1 0x20 DUP2 ADD SWAP1 POP PUSH3 0x84E JUMP JUMPDEST DUP7 DUP4 LT ISZERO PUSH3 0x895 JUMPI DUP5 DUP10 ADD MLOAD PUSH3 0x891 PUSH1 0x1F DUP10 AND DUP3 PUSH3 0x78B JUMP JUMPDEST DUP4 SSTORE POP JUMPDEST PUSH1 0x1 PUSH1 0x2 DUP9 MUL ADD DUP9 SSTORE POP POP POP JUMPDEST POP POP POP POP POP POP JUMP JUMPDEST PUSH0 PUSH3 0x8B6 DUP3 PUSH3 0x40A JUMP JUMPDEST SWAP2 POP PUSH32 0xFFFFFFFFFFFFFFFFFFFFFFFFFFFFFFFFFFFFFFFFFFFFFFFFFFFFFFFFFFFFFFFF DUP3 SUB PUSH3 0x8EB JUMPI PUSH3 0x8EA PUSH3 0x4BA JUMP JUMPDEST JUMPDEST PUSH1 0x1 DUP3 ADD SWAP1 POP SWAP2 SWAP1 POP JUMP JUMPDEST PUSH3 0x901 DUP2 PUSH3 0x40A JUMP JUMPDEST DUP3 MSTORE POP POP JUMP JUMPDEST PUSH0 PUSH1 0x40 DUP3 ADD SWAP1 POP PUSH3 0x91C PUSH0 DUP4 ADD DUP6 PUSH3 0x8F6 JUMP JUMPDEST PUSH3 0x92B PUSH1 0x20 DUP4 ADD DUP5 PUSH3 0x8F6 JUMP JUMPDEST SWAP4 SWAP3 POP POP POP JUMP JUMPDEST PUSH2 0x1943 DUP1 PUSH3 0x940 PUSH0 CODECOPY PUSH0 RETURN INVALID PUSH1 0x80 PUSH1 0x40 MSTORE CALLVALUE DUP1 ISZERO PUSH2 0xF JUMPI PUSH0 DUP1 REVERT JUMPDEST POP PUSH1 0x4 CALLDATASIZE LT PUSH2 0x109 JUMPI PUSH0 CALLDATALOAD PUSH1 0xE0 SHR DUP1 PUSH4 0x8E7EA5B2 GT PUSH2 0xA0 JUMPI DUP1 PUSH4 0xC5980C94 GT PUSH2 0x6F JUMPI DUP1 PUSH4 0xC5980C94 EQ PUSH2 0x299 JUMPI DUP1 PUSH4 0xC94CA9E3 EQ PUSH2 0x2B7 JUMPI DUP1 PUSH4 0xD446BFA9 EQ PUSH2 0x2D5 JUMPI DUP1 PUSH4 0xD5E50A63 EQ PUSH2 0x2F1 JUMPI DUP1 PUSH4 0xF851A440 EQ PUSH2 0x30F JUMPI PUSH2 0x109 JUMP JUMPDEST DUP1 PUSH4 0x8E7EA5B2 EQ PUSH2 0x208 JUMPI DUP1 PUSH4 0x906AD2A9 EQ PUSH2 0x228 JUMPI DUP1 PUSH4 0x9E136E64 EQ PUSH2 0x24A JUMPI DUP1 PUSH4 0xC07909F4 EQ PUSH2 0x268 JUMPI PUSH2 0x109 JUMP JUMPDEST DUP1 PUSH4 0x3477EE2E GT PUSH2 0xDC JUMPI DUP1 PUSH4 0x3477EE2E EQ PUSH2 0x193 JUMPI DUP1 PUSH4 0x42169E48 EQ PUSH2 0x1C4 JUMPI DUP1 PUSH4 0x59F78468 EQ PUSH2 0x1E2 JUMPI DUP1 PUSH4 0x88C10463 EQ PUSH2 0x1EC JUMPI PUSH2 0x109 JUMP JUMPDEST DUP1 PUSH4 0x121B93F EQ PUSH2 0x10D JUMPI DUP1 PUSH4 0x6A49FCE EQ PUSH2 0x129 JUMPI DUP1 PUSH4 0x9EEF43E EQ PUSH2 0x147 JUMPI DUP1 PUSH4 0x293CD782 EQ PUSH2 0x177 JUMPI JUMPDEST PUSH0 DUP1 REVERT JUMPDEST PUSH2 0x127 PUSH1 0x4 DUP1 CALLDATASIZE SUB DUP2 ADD SWAP1 PUSH2 0x122 SWAP2 SWAP1 PUSH2 0xD6C JUMP JUMPDEST PUSH2 0x32D JUMP JUMPDEST STOP JUMPDEST PUSH2 0x131 PUSH2 0x33A JUMP JUMPDEST PUSH1 0x40 MLOAD PUSH2 0x13E SWAP2 SWAP1 PUSH2 0xF25 JUMP JUMPDEST PUSH1 0x40 MLOAD DUP1 SWAP2 SUB SWAP1 RETURN JUMPDEST PUSH2 0x161 PUSH1 0x4 DUP1 CALLDATASIZE SUB DUP2 ADD SWAP1 PUSH2 0x15C SWAP2 SWAP1 PUSH2 0xF9F JUMP JUMPDEST PUSH2 0x42F JUMP JUMPDEST PUSH1 0x40 MLOAD PUSH2 0x16E SWAP2 SWAP1 PUSH2 0xFE4 JUMP JUMPDEST PUSH1 0x40 MLOAD DUP1 SWAP2 SUB SWAP1 RETURN JUMPDEST PUSH2 0x191 PUSH1 0x4 DUP1 CALLDATASIZE SUB DUP2 ADD SWAP1 PUSH2 0x18C SWAP2 SWAP1 PUSH2 0x1129 JUMP JUMPDEST PUSH2 0x44C JUMP JUMPDEST STOP JUMPDEST PUSH2 0x1AD PUSH1 0x4 DUP1 CALLDATASIZE SUB DUP2 ADD SWAP1 PUSH2 0x1A8 SWAP2 SWAP1 PUSH2 0xD6C JUMP JUMPDEST PUSH2 0x4AB JUMP JUMPDEST PUSH1 0x40 MLOAD PUSH2 0x1BB SWAP3 SWAP2 SWAP1 PUSH2 0x11DA JUMP JUMPDEST PUSH1 0x40 MLOAD DUP1 SWAP2 SUB SWAP1 RETURN JUMPDEST PUSH2 0x1CC PUSH2 0x560 JUMP JUMPDEST PUSH1 0x40 MLOAD PUSH2 0x1D9 SWAP2 SWAP1 PUSH2 0x1208 JUMP JUMPDEST PUSH1 0x40 MLOAD DUP1 SWAP2 SUB SWAP1 RETURN JUMPDEST PUSH2 0x1EA PUSH2 0x566 JUMP JUMPDEST STOP JUMPDEST PUSH2 0x206 PUSH1 0x4 DUP1 CALLDATASIZE SUB DUP2 ADD SWAP1 PUSH2 0x201 SWAP2 SWAP1 PUSH2 0x1221 JUMP JUMPDEST PUSH2 0x671 JUMP JUMPDEST STOP JUMPDEST PUSH2 0x210 PUSH2 0x6CF JUMP JUMPDEST PUSH1 0x40 MLOAD PUSH2 0x21F SWAP4 SWAP3 SWAP2 SWAP1 PUSH2 0x1268 JUMP JUMPDEST PUSH1 0x40 MLOAD DUP1 SWAP2 SUB SWAP1 RETURN JUMPDEST PUSH2 0x230 PUSH2 0x8DD JUMP JUMPDEST PUSH1 0x40 MLOAD PUSH2 0x241 SWAP6 SWAP5 SWAP4 SWAP3 SWAP2 SWAP1 PUSH2 0x12A4 JUMP JUMPDEST PUSH1 0x40 MLOAD DUP1 SWAP2 SUB SWAP1 RETURN JUMPDEST PUSH2 0x252 PUSH2 0x968 JUMP JUMPDEST PUSH1 0x40 MLOAD PUSH2 0x25F SWAP2 SWAP1 PUSH2 0x1208 JUMP JUMPDEST PUSH1 0x40 MLOAD DUP1 SWAP2 SUB SWAP1 RETURN JUMPDEST PUSH2 0x282 PUSH1 0x4 DUP1 CALLDATASIZE SUB DUP2 ADD SWAP1 PUSH2 0x27D SWAP2 SWAP1 PUSH2 0x1221 JUMP JUMPDEST PUSH2 0x96E JUMP JUMPDEST PUSH1 0x40 MLOAD PUSH2 0x290 SWAP3 SWAP2 SWAP1 PUSH2 0x12F5 JUMP JUMPDEST PUSH1 0x40 MLOAD DUP1 SWAP2 SUB SWAP1 RETURN JUMPDEST PUSH2 0x2A1 PUSH2 0x982 JUMP JUMPDEST PUSH1 0x40 MLOAD PUSH2 0x2AE SWAP2 SWAP1 PUSH2 0x1208 JUMP JUMPDEST PUSH1 0x40 MLOAD DUP1 SWAP2 SUB SWAP1 RETURN JUMPDEST PUSH2 0x2BF PUSH2 0x988 JUMP JUMPDEST PUSH1 0x40 MLOAD PUSH2 0x2CC SWAP2 SWAP1 PUSH2 0xFE4 JUMP JUMPDEST PUSH1 0x40 MLOAD DUP1 SWAP2 SUB SWAP1 RETURN JUMPDEST PUSH2 0x2EF PUSH1 0x4 DUP1 CALLDATASIZE SUB DUP2 ADD SWAP1 PUSH2 0x2EA SWAP2 SWAP1 PUSH2 0x131C JUMP JUMPDEST PUSH2 0x99A JUMP JUMPDEST STOP JUMPDEST PUSH2 0x2F9 PUSH2 0x9A8 JUMP JUMPDEST PUSH1 0x40 MLOAD PUSH2 0x306 SWAP2 SWAP1 PUSH2 0x1208 JUMP JUMPDEST PUSH1 0x40 MLOAD DUP1 SWAP2 SUB SWAP1 RETURN JUMPDEST PUSH2 0x317 PUSH2 0x9AE JUMP JUMPDEST PUSH1 0x40 MLOAD PUSH2 0x324 SWAP2 SWAP1 PUSH2 0x1369 JUMP JUMPDEST PUSH1 0x40 MLOAD DUP1 SWAP2 SUB SWAP1 RETURN JUMPDEST PUSH2 0x337 DUP2 CALLER PUSH2 0x9D1 JUMP JUMPDEST POP JUMP JUMPDEST PUSH1 0x60 PUSH1 0x2 DUP1 SLOAD DUP1 PUSH1 0x20 MUL PUSH1 0x20 ADD PUSH1 0x40 MLOAD SWAP1 DUP2 ADD PUSH1 0x40 MSTORE DUP1 SWAP3 SWAP2 SWAP1 DUP2 DUP2 MSTORE PUSH1 0x20 ADD PUSH0 SWAP1 JUMPDEST DUP3 DUP3 LT ISZERO PUSH2 0x426 JUMPI DUP4 DUP3 SWAP1 PUSH0 MSTORE PUSH1 0x20 PUSH0 KECCAK256 SWAP1 PUSH1 0x2 MUL ADD PUSH1 0x40 MLOAD DUP1 PUSH1 0x40 ADD PUSH1 0x40 MSTORE SWAP1 DUP2 PUSH0 DUP3 ADD DUP1 SLOAD PUSH2 0x38D SWAP1 PUSH2 0x13AF JUMP JUMPDEST DUP1 PUSH1 0x1F ADD PUSH1 0x20 DUP1 SWAP2 DIV MUL PUSH1 0x20 ADD PUSH1 0x40 MLOAD SWAP1 DUP2 ADD PUSH1 0x40 MSTORE DUP1 SWAP3 SWAP2 SWAP1 DUP2 DUP2 MSTORE PUSH1 0x20 ADD DUP3 DUP1 SLOAD PUSH2 0x3B9 SWAP1 PUSH2 0x13AF JUMP JUMPDEST DUP1 ISZERO PUSH2 0x404 JUMPI DUP1 PUSH1 0x1F LT PUSH2 0x3DB JUMPI PUSH2 0x100 DUP1 DUP4 SLOAD DIV MUL DUP4 MSTORE SWAP2 PUSH1 0x20 ADD SWAP2 PUSH2 0x404 JUMP JUMPDEST DUP3 ADD SWAP2 SWAP1 PUSH0 MSTORE PUSH1 0x20 PUSH0 KECCAK256 SWAP1 JUMPDEST DUP2 SLOAD DUP2 MSTORE SWAP1 PUSH1 0x1 ADD SWAP1 PUSH1 0x20 ADD DUP1 DUP4 GT PUSH2 0x3E7 JUMPI DUP3 SWAP1 SUB PUSH1 0x1F AND DUP3 ADD SWAP2 JUMPDEST POP POP POP POP POP DUP2 MSTORE PUSH1 0x20 ADD PUSH1 0x1 DUP3 ADD SLOAD DUP2 MSTORE POP POP DUP2 MSTORE PUSH1 0x20 ADD SWAP1 PUSH1 0x1 ADD SWAP1 PUSH2 0x35D JUMP JUMPDEST POP POP POP POP SWAP1 POP SWAP1 JUMP JUMPDEST PUSH1 0x1 PUSH1 0x20 MSTORE DUP1 PUSH0 MSTORE PUSH1 0x40 PUSH0 KECCAK256 PUSH0 SWAP2 POP SLOAD SWAP1 PUSH2 0x100 EXP SWAP1 DIV PUSH1 0xFF AND DUP2 JUMP JUMPDEST PUSH0 DUP1 PUSH2 0x457 DUP5 PUSH2 0xCA0 JUMP JUMPDEST SWAP2 POP SWAP2 POP DUP1 PUSH2 0x49B JUMPI PUSH1 0x40 MLOAD PUSH32 0x8C379A000000000000000000000000000000000000000000000000000000000 DUP2 MSTORE PUSH1 0x4 ADD PUSH2 0x492 SWAP1 PUSH2 0x1429 JUMP JUMPDEST PUSH1 0x40 MLOAD DUP1 SWAP2 SUB SWAP1 REVERT JUMPDEST PUSH2 0x4A5 DUP3 DUP5 PUSH2 0x9D1 JUMP JUMPDEST POP POP POP POP JUMP JUMPDEST PUSH1 0x2 DUP2 DUP2 SLOAD DUP2 LT PUSH2 0x4BA JUMPI PUSH0 DUP1 REVERT JUMPDEST SWAP1 PUSH0 MSTORE PUSH1 0x20 PUSH0 KECCAK256 SWAP1 PUSH1 0x2 MUL ADD PUSH0 SWAP2 POP SWAP1 POP DUP1 PUSH0 ADD DUP1 SLOAD PUSH2 0x4D9 SWAP1 PUSH2 0x13AF JUMP JUMPDEST DUP1 PUSH1 0x1F ADD PUSH1 0x20 DUP1 SWAP2 DIV MUL PUSH1 0x20 ADD PUSH1 0x40 MLOAD SWAP1 DUP2 ADD PUSH1 0x40 MSTORE DUP1 SWAP3 SWAP2 SWAP1 DUP2 DUP2 MSTORE PUSH1 0x20 ADD DUP3 DUP1 SLOAD PUSH2 0x505 SWAP1 PUSH2 0x13AF JUMP JUMPDEST DUP1 ISZERO PUSH2 0x550 JUMPI DUP1 PUSH1 0x1F LT PUSH2 0x527 JUMPI PUSH2 0x100 DUP1 DUP4 SLOAD DIV MUL DUP4 MSTORE SWAP2 PUSH1 0x20 ADD SWAP2 PUSH2 0x550 JUMP JUMPDEST DUP3 ADD SWAP2 SWAP1 PUSH0 MSTORE PUSH1 0x20 PUSH0 KECCAK256 SWAP1 JUMPDEST DUP2 SLOAD DUP2 MSTORE SWAP1 PUSH1 0x1 ADD SWAP1 PUSH1 0x20 ADD DUP1 DUP4 GT PUSH2 0x533 JUMPI DUP3 SWAP1 SUB PUSH1 0x1F AND DUP3 ADD SWAP2 JUMPDEST POP POP POP POP POP SWAP1 DUP1 PUSH1 0x1 ADD SLOAD SWAP1 POP DUP3 JUMP JUMPDEST PUSH1 0x4 SLOAD DUP2 JUMP JUMPDEST PUSH0 DUP1 SLOAD SWAP1 PUSH2 0x100 EXP SWAP1 DIV PUSH20 0xFFFFFFFFFFFFFFFFFFFFFFFFFFFFFFFFFFFFFFFF AND PUSH20 0xFFFFFFFFFFFFFFFFFFFFFFFFFFFFFFFFFFFFFFFF AND CALLER PUSH20 0xFFFFFFFFFFFFFFFFFFFFFFFFFFFFFFFFFFFFFFFF AND EQ PUSH2 0x5F3 JUMPI PUSH1 0x40 MLOAD PUSH32 0x8C379A000000000000000000000000000000000000000000000000000000000 DUP2 MSTORE PUSH1 0x4 ADD PUSH2 0x5EA SWAP1 PUSH2 0x1491 JUMP JUMPDEST PUSH1 0x40 MLOAD DUP1 SWAP2 SUB SWAP1 REVERT JUMPDEST PUSH1 0x1 PUSH0 PUSH1 0x14 PUSH2 0x100 EXP DUP2 SLOAD DUP2 PUSH1 0xFF MUL NOT AND SWAP1 DUP4 ISZERO ISZERO MUL OR SWAP1 SSTORE POP PUSH0 DUP1 SLOAD SWAP1 PUSH2 0x100 EXP SWAP1 DIV PUSH20 0xFFFFFFFFFFFFFFFFFFFFFFFFFFFFFFFFFFFFFFFF AND PUSH20 0xFFFFFFFFFFFFFFFFFFFFFFFFFFFFFFFFFFFFFFFF AND PUSH32 0x5A88EE4BCD4AE62631FB7029F70FEC14ED2E41886B3B9D204ECB778C0162644 PUSH1 0x40 MLOAD PUSH1 0x40 MLOAD DUP1 SWAP2 SUB SWAP1 LOG2 JUMP JUMPDEST PUSH0 DUP1 PUSH2 0x67C DUP4 PUSH2 0xCA0 JUMP JUMPDEST SWAP2 POP SWAP2 POP DUP1 PUSH2 0x6C0 JUMPI PUSH1 0x40 MLOAD PUSH32 0x8C379A000000000000000000000000000000000000000000000000000000000 DUP2 MSTORE PUSH1 0x4 ADD PUSH2 0x6B7 SWAP1 PUSH2 0x1429 JUMP JUMPDEST PUSH1 0x40 MLOAD DUP1 SWAP2 SUB SWAP1 REVERT JUMPDEST PUSH2 0x6CA DUP3 CALLER PUSH2 0x9D1 JUMP JUMPDEST POP POP POP JUMP JUMPDEST PUSH1 0x60 PUSH0 DUP1 PUSH0 PUSH1 0x14 SWAP1 SLOAD SWAP1 PUSH2 0x100 EXP SWAP1 DIV PUSH1 0xFF AND DUP1 PUSH2 0x6EE JUMPI POP PUSH1 0x6 SLOAD TIMESTAMP GT JUMPDEST PUSH2 0x72D JUMPI PUSH1 0x40 MLOAD PUSH32 0x8C379A000000000000000000000000000000000000000000000000000000000 DUP2 MSTORE PUSH1 0x4 ADD PUSH2 0x724 SWAP1 PUSH2 0x14F9 JUMP JUMPDEST PUSH1 0x40 MLOAD DUP1 SWAP2 SUB SWAP1 REVERT JUMPDEST PUSH0 PUSH1 0x2 DUP1 SLOAD SWAP1 POP SUB PUSH2 0x757 JUMPI PUSH0 DUP1 PUSH1 0x40 MLOAD DUP1 PUSH1 0x20 ADD PUSH1 0x40 MSTORE DUP1 PUSH0 DUP2 MSTORE POP SWAP2 SWAP1 SWAP3 POP SWAP3 POP SWAP3 POP PUSH2 0x8D8 JUMP JUMPDEST PUSH0 DUP1 PUSH0 DUP1 JUMPDEST PUSH1 0x2 DUP1 SLOAD SWAP1 POP DUP2 LT ISZERO PUSH2 0x81F JUMPI DUP4 PUSH1 0x2 DUP3 DUP2 SLOAD DUP2 LT PUSH2 0x77E JUMPI PUSH2 0x77D PUSH2 0x1517 JUMP JUMPDEST JUMPDEST SWAP1 PUSH0 MSTORE PUSH1 0x20 PUSH0 KECCAK256 SWAP1 PUSH1 0x2 MUL ADD PUSH1 0x1 ADD SLOAD GT ISZERO PUSH2 0x7C6 JUMPI PUSH1 0x2 DUP2 DUP2 SLOAD DUP2 LT PUSH2 0x7A8 JUMPI PUSH2 0x7A7 PUSH2 0x1517 JUMP JUMPDEST JUMPDEST SWAP1 PUSH0 MSTORE PUSH1 0x20 PUSH0 KECCAK256 SWAP1 PUSH1 0x2 MUL ADD PUSH1 0x1 ADD SLOAD SWAP4 POP DUP1 SWAP3 POP PUSH1 0x1 SWAP2 POP PUSH2 0x80C JUMP JUMPDEST DUP4 PUSH1 0x2 DUP3 DUP2 SLOAD DUP2 LT PUSH2 0x7DB JUMPI PUSH2 0x7DA PUSH2 0x1517 JUMP JUMPDEST JUMPDEST SWAP1 PUSH0 MSTORE PUSH1 0x20 PUSH0 KECCAK256 SWAP1 PUSH1 0x2 MUL ADD PUSH1 0x1 ADD SLOAD EQ DUP1 ISZERO PUSH2 0x7F7 JUMPI POP PUSH0 DUP5 GT JUMPDEST ISZERO PUSH2 0x80B JUMPI DUP2 DUP1 PUSH2 0x807 SWAP1 PUSH2 0x1571 JUMP JUMPDEST SWAP3 POP POP JUMPDEST JUMPDEST DUP1 DUP1 PUSH2 0x817 SWAP1 PUSH2 0x1571 JUMP JUMPDEST SWAP2 POP POP PUSH2 0x75C JUMP JUMPDEST POP PUSH1 0x1 DUP2 GT SWAP4 POP PUSH1 0x2 DUP3 DUP2 SLOAD DUP2 LT PUSH2 0x83A JUMPI PUSH2 0x839 PUSH2 0x1517 JUMP JUMPDEST JUMPDEST SWAP1 PUSH0 MSTORE PUSH1 0x20 PUSH0 KECCAK256 SWAP1 PUSH1 0x2 MUL ADD PUSH0 ADD DUP1 SLOAD PUSH2 0x853 SWAP1 PUSH2 0x13AF JUMP JUMPDEST DUP1 PUSH1 0x1F ADD PUSH1 0x20 DUP1 SWAP2 DIV MUL PUSH1 0x20 ADD PUSH1 0x40 MLOAD SWAP1 DUP2 ADD PUSH1 0x40 MSTORE DUP1 SWAP3 SWAP2 SWAP1 DUP2 DUP2 MSTORE PUSH1 0x20 ADD DUP3 DUP1 SLOAD PUSH2 0x87F SWAP1 PUSH2 0x13AF JUMP JUMPDEST DUP1 ISZERO PUSH2 0x8CA JUMPI DUP1 PUSH1 0x1F LT PUSH2 0x8A1 JUMPI PUSH2 0x100 DUP1 DUP4 SLOAD DIV MUL DUP4 MSTORE SWAP2 PUSH1 0x20 ADD SWAP2 PUSH2 0x8CA JUMP JUMPDEST DUP3 ADD SWAP2 SWAP1 PUSH0 MSTORE PUSH1 0x20 PUSH0 KECCAK256 SWAP1 JUMPDEST DUP2 SLOAD DUP2 MSTORE SWAP1 PUSH1 0x1 ADD SWAP1 PUSH1 0x20 ADD DUP1 DUP4 GT PUSH2 0x8AD JUMPI DUP3 SWAP1 SUB PUSH1 0x1F AND DUP3 ADD SWAP2 JUMPDEST POP POP POP POP POP SWAP6 POP DUP3 SWAP5 POP POP POP POP JUMPDEST SWAP1 SWAP2 SWAP3 JUMP JUMPDEST PUSH0 DUP1 PUSH0 DUP1 PUSH0 PUSH1 0x4 SLOAD SWAP5 POP PUSH1 0x3 SLOAD SWAP4 POP PUSH1 0x4 SLOAD PUSH1 0x3 SLOAD GT PUSH2 0x8FD JUMPI PUSH0 PUSH2 0x90E JUMP JUMPDEST PUSH1 0x4 SLOAD PUSH1 0x3 SLOAD PUSH2 0x90D SWAP2 SWAP1 PUSH2 0x15B8 JUMP JUMPDEST JUMPDEST SWAP3 POP PUSH0 PUSH1 0x14 SWAP1 SLOAD SWAP1 PUSH2 0x100 EXP SWAP1 DIV PUSH1 0xFF AND ISZERO DUP1 ISZERO PUSH2 0x92E JUMPI POP PUSH1 0x5 SLOAD TIMESTAMP LT ISZERO JUMPDEST DUP1 ISZERO PUSH2 0x93C JUMPI POP PUSH1 0x6 SLOAD TIMESTAMP GT ISZERO JUMPDEST SWAP2 POP PUSH1 0x6 SLOAD TIMESTAMP LT ISZERO PUSH2 0x95D JUMPI TIMESTAMP PUSH1 0x6 SLOAD PUSH2 0x956 SWAP2 SWAP1 PUSH2 0x15B8 JUMP JUMPDEST SWAP1 POP PUSH2 0x961 JUMP JUMPDEST PUSH0 SWAP1 POP JUMPDEST SWAP1 SWAP2 SWAP3 SWAP4 SWAP5 JUMP JUMPDEST PUSH1 0x6 SLOAD DUP2 JUMP JUMPDEST PUSH0 DUP1 PUSH2 0x979 DUP4 PUSH2 0xCA0 JUMP JUMPDEST SWAP2 POP SWAP2 POP SWAP2 POP SWAP2 JUMP JUMPDEST PUSH1 0x5 SLOAD DUP2 JUMP JUMPDEST PUSH0 PUSH1 0x14 SWAP1 SLOAD SWAP1 PUSH2 0x100 EXP SWAP1 DIV PUSH1 0xFF AND DUP2 JUMP JUMPDEST PUSH2 0x9A4 DUP3 DUP3 PUSH2 0x9D1 JUMP JUMPDEST POP POP JUMP JUMPDEST PUSH1 0x3 SLOAD DUP2 JUMP JUMPDEST PUSH0 DUP1 SLOAD SWAP1 PUSH2 0x100 EXP SWAP1 DIV PUSH20 0xFFFFFFFFFFFFFFFFFFFFFFFFFFFFFFFFFFFFFFFF AND DUP2 JUMP JUMPDEST PUSH0 PUSH1 0x14 SWAP1 SLOAD SWAP1 PUSH2 0x100 EXP SWAP1 DIV PUSH1 0xFF AND ISZERO PUSH2 0xA20 JUMPI PUSH1 0x40 MLOAD PUSH32 0x8C379A000000000000000000000000000000000000000000000000000000000 DUP2 MSTORE PUSH1 0x4 ADD PUSH2 0xA17 SWAP1 PUSH2 0x1635 JUMP JUMPDEST PUSH1 0x40 MLOAD DUP1 SWAP2 SUB SWAP1 REVERT JUMPDEST PUSH1 0x5 SLOAD TIMESTAMP LT ISZERO PUSH2 0xA65 JUMPI PUSH1 0x40 MLOAD PUSH32 0x8C379A000000000000000000000000000000000000000000000000000000000 DUP2 MSTORE PUSH1 0x4 ADD PUSH2 0xA5C SWAP1 PUSH2 0x169D JUMP JUMPDEST PUSH1 0x40 MLOAD DUP1 SWAP2 SUB SWAP1 REVERT JUMPDEST PUSH1 0x6 SLOAD TIMESTAMP GT ISZERO PUSH2 0xAAA JUMPI PUSH1 0x40 MLOAD PUSH32 0x8C379A000000000000000000000000000000000000000000000000000000000 DUP2 MSTORE PUSH1 0x4 ADD PUSH2 0xAA1 SWAP1 PUSH2 0x1705 JUMP JUMPDEST PUSH1 0x40 MLOAD DUP1 SWAP2 SUB SWAP1 REVERT JUMPDEST PUSH1 0x1 PUSH0 DUP3 PUSH20 0xFFFFFFFFFFFFFFFFFFFFFFFFFFFFFFFFFFFFFFFF AND PUSH20 0xFFFFFFFFFFFFFFFFFFFFFFFFFFFFFFFFFFFFFFFF AND DUP2 MSTORE PUSH1 0x20 ADD SWAP1 DUP2 MSTORE PUSH1 0x20 ADD PUSH0 KECCAK256 PUSH0 SWAP1 SLOAD SWAP1 PUSH2 0x100 EXP SWAP1 DIV PUSH1 0xFF AND ISZERO PUSH2 0xB34 JUMPI PUSH1 0x40 MLOAD PUSH32 0x8C379A000000000000000000000000000000000000000000000000000000000 DUP2 MSTORE PUSH1 0x4 ADD PUSH2 0xB2B SWAP1 PUSH2 0x176D JUMP JUMPDEST PUSH1 0x40 MLOAD DUP1 SWAP2 SUB SWAP1 REVERT JUMPDEST PUSH1 0x2 DUP1 SLOAD SWAP1 POP DUP3 LT PUSH2 0xB7B JUMPI PUSH1 0x40 MLOAD PUSH32 0x8C379A000000000000000000000000000000000000000000000000000000000 DUP2 MSTORE PUSH1 0x4 ADD PUSH2 0xB72 SWAP1 PUSH2 0x17D5 JUMP JUMPDEST PUSH1 0x40 MLOAD DUP1 SWAP2 SUB SWAP1 REVERT JUMPDEST PUSH1 0x3 SLOAD PUSH1 0x4 SLOAD LT PUSH2 0xBC1 JUMPI PUSH1 0x40 MLOAD PUSH32 0x8C379A000000000000000000000000000000000000000000000000000000000 DUP2 MSTORE PUSH1 0x4 ADD PUSH2 0xBB8 SWAP1 PUSH2 0x183D JUMP JUMPDEST PUSH1 0x40 MLOAD DUP1 SWAP2 SUB SWAP1 REVERT JUMPDEST PUSH1 0x1 DUP1 PUSH0 DUP4 PUSH20 0xFFFFFFFFFFFFFFFFFFFFFFFFFFFFFFFFFFFFFFFF AND PUSH20 0xFFFFFFFFFFFFFFFFFFFFFFFFFFFFFFFFFFFFFFFF AND DUP2 MSTORE PUSH1 0x20 ADD SWAP1 DUP2 MSTORE PUSH1 0x20 ADD PUSH0 KECCAK256 PUSH0 PUSH2 0x100 EXP DUP2 SLOAD DUP2 PUSH1 0xFF MUL NOT AND SWAP1 DUP4 ISZERO ISZERO MUL OR SWAP1 SSTORE POP PUSH1 0x4 PUSH0 DUP2 SLOAD DUP1 SWAP3 SWAP2 SWAP1 PUSH2 0xC27 SWAP1 PUSH2 0x1571 JUMP JUMPDEST SWAP2 SWAP1 POP SSTORE POP PUSH1 0x2 DUP3 DUP2 SLOAD DUP2 LT PUSH2 0xC40 JUMPI PUSH2 0xC3F PUSH2 0x1517 JUMP JUMPDEST JUMPDEST SWAP1 PUSH0 MSTORE PUSH1 0x20 PUSH0 KECCAK256 SWAP1 PUSH1 0x2 MUL ADD PUSH1 0x1 ADD PUSH0 DUP2 SLOAD DUP1 SWAP3 SWAP2 SWAP1 PUSH2 0xC5F SWAP1 PUSH2 0x1571 JUMP JUMPDEST SWAP2 SWAP1 POP SSTORE POP DUP2 PUSH32 0xC31875EF3ED5138B71A0C1DA7E494BC4D2BA4F567084EA481EC9C45F3A93948B TIMESTAMP PUSH1 0x40 MLOAD PUSH2 0xC94 SWAP2 SWAP1 PUSH2 0x1208 JUMP JUMPDEST PUSH1 0x40 MLOAD DUP1 SWAP2 SUB SWAP1 LOG2 POP POP JUMP JUMPDEST PUSH0 DUP1 PUSH0 DUP4 DUP1 MLOAD SWAP1 PUSH1 0x20 ADD KECCAK256 SWAP1 POP PUSH0 JUMPDEST PUSH1 0x2 DUP1 SLOAD SWAP1 POP DUP2 LT ISZERO PUSH2 0xD1A JUMPI DUP2 PUSH1 0x2 DUP3 DUP2 SLOAD DUP2 LT PUSH2 0xCD1 JUMPI PUSH2 0xCD0 PUSH2 0x1517 JUMP JUMPDEST JUMPDEST SWAP1 PUSH0 MSTORE PUSH1 0x20 PUSH0 KECCAK256 SWAP1 PUSH1 0x2 MUL ADD PUSH0 ADD PUSH1 0x40 MLOAD PUSH2 0xCEC SWAP2 SWAP1 PUSH2 0x18F7 JUMP JUMPDEST PUSH1 0x40 MLOAD DUP1 SWAP2 SUB SWAP1 KECCAK256 SUB PUSH2 0xD07 JUMPI DUP1 PUSH1 0x1 SWAP4 POP SWAP4 POP POP POP PUSH2 0xD23 JUMP JUMPDEST DUP1 DUP1 PUSH2 0xD12 SWAP1 PUSH2 0x1571 JUMP JUMPDEST SWAP2 POP POP PUSH2 0xCAF JUMP JUMPDEST POP PUSH0 DUP1 SWAP3 POP SWAP3 POP POP JUMPDEST SWAP2 POP SWAP2 JUMP JUMPDEST PUSH0 PUSH1 0x40 MLOAD SWAP1 POP SWAP1 JUMP JUMPDEST PUSH0 DUP1 REVERT JUMPDEST PUSH0 DUP1 REVERT JUMPDEST PUSH0 DUP2 SWAP1 POP SWAP2 SWAP1 POP JUMP JUMPDEST PUSH2 0xD4B DUP2 PUSH2 0xD39 JUMP JUMPDEST DUP2 EQ PUSH2 0xD55 JUMPI PUSH0 DUP1 REVERT JUMPDEST POP JUMP JUMPDEST PUSH0 DUP2 CALLDATALOAD SWAP1 POP PUSH2 0xD66 DUP2 PUSH2 0xD42 JUMP JUMPDEST SWAP3 SWAP2 POP POP JUMP JUMPDEST PUSH0 PUSH1 0x20 DUP3 DUP5 SUB SLT ISZERO PUSH2 0xD81 JUMPI PUSH2 0xD80 PUSH2 0xD31 JUMP JUMPDEST JUMPDEST PUSH0 PUSH2 0xD8E DUP5 DUP3 DUP6 ADD PUSH2 0xD58 JUMP JUMPDEST SWAP2 POP POP SWAP3 SWAP2 POP POP JUMP JUMPDEST PUSH0 DUP2 MLOAD SWAP1 POP SWAP2 SWAP1 POP JUMP JUMPDEST PUSH0 DUP3 DUP3 MSTORE PUSH1 0x20 DUP3 ADD SWAP1 POP SWAP3 SWAP2 POP POP JUMP JUMPDEST PUSH0 DUP2 SWAP1 POP PUSH1 0x20 DUP3 ADD SWAP1 POP SWAP2 SWAP1 POP JUMP JUMPDEST PUSH0 DUP2 MLOAD SWAP1 POP SWAP2 SWAP1 POP JUMP JUMPDEST PUSH0 DUP3 DUP3 MSTORE PUSH1 0x20 DUP3 ADD SWAP1 POP SWAP3 SWAP2 POP POP JUMP JUMPDEST PUSH0 JUMPDEST DUP4 DUP2 LT ISZERO PUSH2 0xDF7 JUMPI DUP1 DUP3 ADD MLOAD DUP2 DUP5 ADD MSTORE PUSH1 0x20 DUP2 ADD SWAP1 POP PUSH2 0xDDC JUMP JUMPDEST PUSH0 DUP5 DUP5 ADD MSTORE POP POP POP POP JUMP JUMPDEST PUSH0 PUSH1 0x1F NOT PUSH1 0x1F DUP4 ADD AND SWAP1 POP SWAP2 SWAP1 POP JUMP JUMPDEST PUSH0 PUSH2 0xE1C DUP3 PUSH2 0xDC0 JUMP JUMPDEST PUSH2 0xE26 DUP2 DUP6 PUSH2 0xDCA JUMP JUMPDEST SWAP4 POP PUSH2 0xE36 DUP2 DUP6 PUSH1 0x20 DUP7 ADD PUSH2 0xDDA JUMP JUMPDEST PUSH2 0xE3F DUP2 PUSH2 0xE02 JUMP JUMPDEST DUP5 ADD SWAP2 POP POP SWAP3 SWAP2 POP POP JUMP JUMPDEST PUSH2 0xE53 DUP2 PUSH2 0xD39 JUMP JUMPDEST DUP3 MSTORE POP POP JUMP JUMPDEST PUSH0 PUSH1 0x40 DUP4 ADD PUSH0 DUP4 ADD MLOAD DUP5 DUP3 SUB PUSH0 DUP7 ADD MSTORE PUSH2 0xE73 DUP3 DUP3 PUSH2 0xE12 JUMP JUMPDEST SWAP2 POP POP PUSH1 0x20 DUP4 ADD MLOAD PUSH2 0xE88 PUSH1 0x20 DUP7 ADD DUP3 PUSH2 0xE4A JUMP JUMPDEST POP DUP1 SWAP2 POP POP SWAP3 SWAP2 POP POP JUMP JUMPDEST PUSH0 PUSH2 0xE9E DUP4 DUP4 PUSH2 0xE59 JUMP JUMPDEST SWAP1 POP SWAP3 SWAP2 POP POP JUMP JUMPDEST PUSH0 PUSH1 0x20 DUP3 ADD SWAP1 POP SWAP2 SWAP1 POP JUMP JUMPDEST PUSH0 PUSH2 0xEBC DUP3 PUSH2 0xD97 JUMP JUMPDEST PUSH2 0xEC6 DUP2 DUP6 PUSH2 0xDA1 JUMP JUMPDEST SWAP4 POP DUP4 PUSH1 0x20 DUP3 MUL DUP6 ADD PUSH2 0xED8 DUP6 PUSH2 0xDB1 JUMP JUMPDEST DUP1 PUSH0 JUMPDEST DUP6 DUP2 LT ISZERO PUSH2 0xF13 JUMPI DUP5 DUP5 SUB DUP10 MSTORE DUP2 MLOAD PUSH2 0xEF4 DUP6 DUP3 PUSH2 0xE93 JUMP JUMPDEST SWAP5 POP PUSH2 0xEFF DUP4 PUSH2 0xEA6 JUMP JUMPDEST SWAP3 POP PUSH1 0x20 DUP11 ADD SWAP10 POP POP PUSH1 0x1 DUP2 ADD SWAP1 POP PUSH2 0xEDB JUMP JUMPDEST POP DUP3 SWAP8 POP DUP8 SWAP6 POP POP POP POP POP POP SWAP3 SWAP2 POP POP JUMP JUMPDEST PUSH0 PUSH1 0x20 DUP3 ADD SWAP1 POP DUP2 DUP2 SUB PUSH0 DUP4 ADD MSTORE PUSH2 0xF3D DUP2 DUP5 PUSH2 0xEB2 JUMP JUMPDEST SWAP1 POP SWAP3 SWAP2 POP POP JUMP JUMPDEST PUSH0 PUSH20 0xFFFFFFFFFFFFFFFFFFFFFFFFFFFFFFFFFFFFFFFF DUP3 AND SWAP1 POP SWAP2 SWAP1 POP JUMP JUMPDEST PUSH0 PUSH2 0xF6E DUP3 PUSH2 0xF45 JUMP JUMPDEST SWAP1 POP SWAP2 SWAP1 POP JUMP JUMPDEST PUSH2 0xF7E DUP2 PUSH2 0xF64 JUMP JUMPDEST DUP2 EQ PUSH2 0xF88 JUMPI PUSH0 DUP1 REVERT JUMPDEST POP JUMP JUMPDEST PUSH0 DUP2 CALLDATALOAD SWAP1 POP PUSH2 0xF99 DUP2 PUSH2 0xF75 JUMP JUMPDEST SWAP3 SWAP2 POP POP JUMP JUMPDEST PUSH0 PUSH1 0x20 DUP3 DUP5 SUB SLT ISZERO PUSH2 0xFB4 JUMPI PUSH2 0xFB3 PUSH2 0xD31 JUMP JUMPDEST JUMPDEST PUSH0 PUSH2 0xFC1 DUP5 DUP3 DUP6 ADD PUSH2 0xF8B JUMP JUMPDEST SWAP2 POP POP SWAP3 SWAP2 POP POP JUMP JUMPDEST PUSH0 DUP2 ISZERO ISZERO SWAP1 POP SWAP2 SWAP1 POP JUMP JUMPDEST PUSH2 0xFDE DUP2 PUSH2 0xFCA JUMP JUMPDEST DUP3 MSTORE POP POP JUMP JUMPDEST PUSH0 PUSH1 0x20 DUP3 ADD SWAP1 POP PUSH2 0xFF7 PUSH0 DUP4 ADD DUP5 PUSH2 0xFD5 JUMP JUMPDEST SWAP3 SWAP2 POP POP JUMP JUMPDEST PUSH0 DUP1 REVERT JUMPDEST PUSH0 DUP1 REVERT JUMPDEST PUSH32 0x4E487B7100000000000000000000000000000000000000000000000000000000 PUSH0 MSTORE PUSH1 0x41 PUSH1 0x4 MSTORE PUSH1 0x24 PUSH0 REVERT JUMPDEST PUSH2 0x103B DUP3 PUSH2 0xE02 JUMP JUMPDEST DUP2 ADD DUP2 DUP2 LT PUSH8 0xFFFFFFFFFFFFFFFF DUP3 GT OR ISZERO PUSH2 0x105A JUMPI PUSH2 0x1059 PUSH2 0x1005 JUMP JUMPDEST JUMPDEST DUP1 PUSH1 0x40 MSTORE POP POP POP JUMP JUMPDEST PUSH0 PUSH2 0x106C PUSH2 0xD28 JUMP JUMPDEST SWAP1 POP PUSH2 0x1078 DUP3 DUP3 PUSH2 0x1032 JUMP JUMPDEST SWAP2 SWAP1 POP JUMP JUMPDEST PUSH0 PUSH8 0xFFFFFFFFFFFFFFFF DUP3 GT ISZERO PUSH2 0x1097 JUMPI PUSH2 0x1096 PUSH2 0x1005 JUMP JUMPDEST JUMPDEST PUSH2 0x10A0 DUP3 PUSH2 0xE02 JUMP JUMPDEST SWAP1 POP PUSH1 0x20 DUP2 ADD SWAP1 POP SWAP2 SWAP1 POP JUMP JUMPDEST DUP3 DUP2 DUP4 CALLDATACOPY PUSH0 DUP4 DUP4 ADD MSTORE POP POP POP JUMP JUMPDEST PUSH0 PUSH2 0x10CD PUSH2 0x10C8 DUP5 PUSH2 0x107D JUMP JUMPDEST PUSH2 0x1063 JUMP JUMPDEST SWAP1 POP DUP3 DUP2 MSTORE PUSH1 0x20 DUP2 ADD DUP5 DUP5 DUP5 ADD GT ISZERO PUSH2 0x10E9 JUMPI PUSH2 0x10E8 PUSH2 0x1001 JUMP JUMPDEST JUMPDEST PUSH2 0x10F4 DUP5 DUP3 DUP6 PUSH2 0x10AD JUMP JUMPDEST POP SWAP4 SWAP3 POP POP POP JUMP JUMPDEST PUSH0 DUP3 PUSH1 0x1F DUP4 ADD SLT PUSH2 0x1110 JUMPI PUSH2 0x110F PUSH2 0xFFD JUMP JUMPDEST JUMPDEST DUP2 CALLDATALOAD PUSH2 0x1120 DUP5 DUP3 PUSH1 0x20 DUP7 ADD PUSH2 0x10BB JUMP JUMPDEST SWAP2 POP POP SWAP3 SWAP2 POP POP JUMP JUMPDEST PUSH0 DUP1 PUSH1 0x40 DUP4 DUP6 SUB SLT ISZERO PUSH2 0x113F JUMPI PUSH2 0x113E PUSH2 0xD31 JUMP JUMPDEST JUMPDEST PUSH0 DUP4 ADD CALLDATALOAD PUSH8 0xFFFFFFFFFFFFFFFF DUP2 GT ISZERO PUSH2 0x115C JUMPI PUSH2 0x115B PUSH2 0xD35 JUMP JUMPDEST JUMPDEST PUSH2 0x1168 DUP6 DUP3 DUP7 ADD PUSH2 0x10FC JUMP JUMPDEST SWAP3 POP POP PUSH1 0x20 PUSH2 0x1179 DUP6 DUP3 DUP7 ADD PUSH2 0xF8B JUMP JUMPDEST SWAP2 POP POP SWAP3 POP SWAP3 SWAP1 POP JUMP JUMPDEST PUSH0 DUP3 DUP3 MSTORE PUSH1 0x20 DUP3 ADD SWAP1 POP SWAP3 SWAP2 POP POP JUMP JUMPDEST PUSH0 PUSH2 0x119D DUP3 PUSH2 0xDC0 JUMP JUMPDEST PUSH2 0x11A7 DUP2 DUP6 PUSH2 0x1183 JUMP JUMPDEST SWAP4 POP PUSH2 0x11B7 DUP2 DUP6 PUSH1 0x20 DUP7 ADD PUSH2 0xDDA JUMP JUMPDEST PUSH2 0x11C0 DUP2 PUSH2 0xE02 JUMP JUMPDEST DUP5 ADD SWAP2 POP POP SWAP3 SWAP2 POP POP JUMP JUMPDEST PUSH2 0x11D4 DUP2 PUSH2 0xD39 JUMP JUMPDEST DUP3 MSTORE POP POP JUMP JUMPDEST PUSH0 PUSH1 0x40 DUP3 ADD SWAP1 POP DUP2 DUP2 SUB PUSH0 DUP4 ADD MSTORE PUSH2 0x11F2 DUP2 DUP6 PUSH2 0x1193 JUMP JUMPDEST SWAP1 POP PUSH2 0x1201 PUSH1 0x20 DUP4 ADD DUP5 PUSH2 0x11CB JUMP JUMPDEST SWAP4 SWAP3 POP POP POP JUMP JUMPDEST PUSH0 PUSH1 0x20 DUP3 ADD SWAP1 POP PUSH2 0x121B PUSH0 DUP4 ADD DUP5 PUSH2 0x11CB JUMP JUMPDEST SWAP3 SWAP2 POP POP JUMP JUMPDEST PUSH0 PUSH1 0x20 DUP3 DUP5 SUB SLT ISZERO PUSH2 0x1236 JUMPI PUSH2 0x1235 PUSH2 0xD31 JUMP JUMPDEST JUMPDEST PUSH0 DUP3 ADD CALLDATALOAD PUSH8 0xFFFFFFFFFFFFFFFF DUP2 GT ISZERO PUSH2 0x1253 JUMPI PUSH2 0x1252 PUSH2 0xD35 JUMP JUMPDEST JUMPDEST PUSH2 0x125F DUP5 DUP3 DUP6 ADD PUSH2 0x10FC JUMP JUMPDEST SWAP2 POP POP SWAP3 SWAP2 POP POP JUMP JUMPDEST PUSH0 PUSH1 0x60 DUP3 ADD SWAP1 POP DUP2 DUP2 SUB PUSH0 DUP4 ADD MSTORE PUSH2 0x1280 DUP2 DUP7 PUSH2 0x1193 JUMP JUMPDEST SWAP1 POP PUSH2 0x128F PUSH1 0x20 DUP4 ADD DUP6 PUSH2 0x11CB JUMP JUMPDEST PUSH2 0x129C PUSH1 0x40 DUP4 ADD DUP5 PUSH2 0xFD5 JUMP JUMPDEST SWAP5 SWAP4 POP POP POP POP JUMP JUMPDEST PUSH0 PUSH1 0xA0 DUP3 ADD SWAP1 POP PUSH2 0x12B7 PUSH0 DUP4 ADD DUP9 PUSH2 0x11CB JUMP JUMPDEST PUSH2 0x12C4 PUSH1 0x20 DUP4 ADD DUP8 PUSH2 0x11CB JUMP JUMPDEST PUSH2 0x12D1 PUSH1 0x40 DUP4 ADD DUP7 PUSH2 0x11CB JUMP JUMPDEST PUSH2 0x12DE PUSH1 0x60 DUP4 ADD DUP6 PUSH2 0xFD5 JUMP JUMPDEST PUSH2 0x12EB PUSH1 0x80 DUP4 ADD DUP5 PUSH2 0x11CB JUMP JUMPDEST SWAP7 SWAP6 POP POP POP POP POP POP JUMP JUMPDEST PUSH0 PUSH1 0x40 DUP3 ADD SWAP1 POP PUSH2 0x1308 PUSH0 DUP4 ADD DUP6 PUSH2 0x11CB JUMP JUMPDEST PUSH2 0x1315 PUSH1 0x20 DUP4 ADD DUP5 PUSH2 0xFD5 JUMP JUMPDEST SWAP4 SWAP3 POP POP POP JUMP JUMPDEST PUSH0 DUP1 PUSH1 0x40 DUP4 DUP6 SUB SLT ISZERO PUSH2 0x1332 JUMPI PUSH2 0x1331 PUSH2 0xD31 JUMP JUMPDEST JUMPDEST PUSH0 PUSH2 0x133F DUP6 DUP3 DUP7 ADD PUSH2 0xD58 JUMP JUMPDEST SWAP3 POP POP PUSH1 0x20 PUSH2 0x1350 DUP6 DUP3 DUP7 ADD PUSH2 0xF8B JUMP JUMPDEST SWAP2 POP POP SWAP3 POP SWAP3 SWAP1 POP JUMP JUMPDEST PUSH2 0x1363 DUP2 PUSH2 0xF64 JUMP JUMPDEST DUP3 MSTORE POP POP JUMP JUMPDEST PUSH0 PUSH1 0x20 DUP3 ADD SWAP1 POP PUSH2 0x137C PUSH0 DUP4 ADD DUP5 PUSH2 0x135A JUMP JUMPDEST SWAP3 SWAP2 POP POP JUMP JUMPDEST PUSH32 0x4E487B7100000000000000000000000000000000000000000000000000000000 PUSH0 MSTORE PUSH1 0x22 PUSH1 0x4 MSTORE PUSH1 0x24 PUSH0 REVERT JUMPDEST PUSH0 PUSH1 0x2 DUP3 DIV SWAP1 POP PUSH1 0x1 DUP3 AND DUP1 PUSH2 0x13C6 JUMPI PUSH1 0x7F DUP3 AND SWAP2 POP JUMPDEST PUSH1 0x20 DUP3 LT DUP2 SUB PUSH2 0x13D9 JUMPI PUSH2 0x13D8 PUSH2 0x1382 JUMP JUMPDEST JUMPDEST POP SWAP2 SWAP1 POP JUMP JUMPDEST PUSH32 0x43616E64696461746520646F6573206E6F742065786973740000000000000000 PUSH0 DUP3 ADD MSTORE POP JUMP JUMPDEST PUSH0 PUSH2 0x1413 PUSH1 0x18 DUP4 PUSH2 0x1183 JUMP JUMPDEST SWAP2 POP PUSH2 0x141E DUP3 PUSH2 0x13DF JUMP JUMPDEST PUSH1 0x20 DUP3 ADD SWAP1 POP SWAP2 SWAP1 POP JUMP JUMPDEST PUSH0 PUSH1 0x20 DUP3 ADD SWAP1 POP DUP2 DUP2 SUB PUSH0 DUP4 ADD MSTORE PUSH2 0x1440 DUP2 PUSH2 0x1407 JUMP JUMPDEST SWAP1 POP SWAP2 SWAP1 POP JUMP JUMPDEST PUSH32 0x4F6E6C792061646D696E2063616E20656E642074686520656C656374696F6E00 PUSH0 DUP3 ADD MSTORE POP JUMP JUMPDEST PUSH0 PUSH2 0x147B PUSH1 0x1F DUP4 PUSH2 0x1183 JUMP JUMPDEST SWAP2 POP PUSH2 0x1486 DUP3 PUSH2 0x1447 JUMP JUMPDEST PUSH1 0x20 DUP3 ADD SWAP1 POP SWAP2 SWAP1 POP JUMP JUMPDEST PUSH0 PUSH1 0x20 DUP3 ADD SWAP1 POP DUP2 DUP2 SUB PUSH0 DUP4 ADD MSTORE PUSH2 0x14A8 DUP2 PUSH2 0x146F JUMP JUMPDEST SWAP1 POP SWAP2 SWAP1 POP JUMP JUMPDEST PUSH32 0x456C656374696F6E206973207374696C6C206F6E676F696E6700000000000000 PUSH0 DUP3 ADD MSTORE POP JUMP JUMPDEST PUSH0 PUSH2 0x14E3 PUSH1 0x19 DUP4 PUSH2 0x1183 JUMP JUMPDEST SWAP2 POP PUSH2 0x14EE DUP3 PUSH2 0x14AF JUMP JUMPDEST PUSH1 0x20 DUP3 ADD SWAP1 POP SWAP2 SWAP1 POP JUMP JUMPDEST PUSH0 PUSH1 0x20 DUP3 ADD SWAP1 POP DUP2 DUP2 SUB PUSH0 DUP4 ADD MSTORE PUSH2 0x1510 DUP2 PUSH2 0x14D7 JUMP JUMPDEST SWAP1 POP SWAP2 SWAP1 POP JUMP JUMPDEST PUSH32 0x4E487B7100000000000000000000000000000000000000000000000000000000 PUSH0 MSTORE PUSH1 0x32 PUSH1 0x4 MSTORE PUSH1 0x24 PUSH0 REVERT JUMPDEST PUSH32 0x4E487B7100000000000000000000000000000000000000000000000000000000 PUSH0 MSTORE PUSH1 0x11 PUSH1 0x4 MSTORE PUSH1 0x24 PUSH0 REVERT JUMPDEST PUSH0 PUSH2 0x157B DUP3 PUSH2 0xD39 JUMP JUMPDEST SWAP2 POP PUSH32 0xFFFFFFFFFFFFFFFFFFFFFFFFFFFFFFFFFFFFFFFFFFFFFFFFFFFFFFFFFFFFFFFF DUP3 SUB PUSH2 0x15AD JUMPI PUSH2 0x15AC PUSH2 0x1544 JUMP JUMPDEST JUMPDEST PUSH1 0x1 DUP3 ADD SWAP1 POP SWAP2 SWAP1 POP JUMP JUMPDEST PUSH0 PUSH2 0x15C2 DUP3 PUSH2 0xD39 JUMP JUMPDEST SWAP2 POP PUSH2 0x15CD DUP4 PUSH2 0xD39 JUMP JUMPDEST SWAP3 POP DUP3 DUP3 SUB SWAP1 POP DUP2 DUP2 GT ISZERO PUSH2 0x15E5 JUMPI PUSH2 0x15E4 PUSH2 0x1544 JUMP JUMPDEST JUMPDEST SWAP3 SWAP2 POP POP JUMP JUMPDEST PUSH32 0x456C656374696F6E2068617320656E6465640000000000000000000000000000 PUSH0 DUP3 ADD MSTORE POP JUMP JUMPDEST PUSH0 PUSH2 0x161F PUSH1 0x12 DUP4 PUSH2 0x1183 JUMP JUMPDEST SWAP2 POP PUSH2 0x162A DUP3 PUSH2 0x15EB JUMP JUMPDEST PUSH1 0x20 DUP3 ADD SWAP1 POP SWAP2 SWAP1 POP JUMP JUMPDEST PUSH0 PUSH1 0x20 DUP3 ADD SWAP1 POP DUP2 DUP2 SUB PUSH0 DUP4 ADD MSTORE PUSH2 0x164C DUP2 PUSH2 0x1613 JUMP JUMPDEST SWAP1 POP SWAP2 SWAP1 POP JUMP JUMPDEST PUSH32 0x456C656374696F6E20686173206E6F7420737461727465642079657400000000 PUSH0 DUP3 ADD MSTORE POP JUMP JUMPDEST PUSH0 PUSH2 0x1687 PUSH1 0x1C DUP4 PUSH2 0x1183 JUMP JUMPDEST SWAP2 POP PUSH2 0x1692 DUP3 PUSH2 0x1653 JUMP JUMPDEST PUSH1 0x20 DUP3 ADD SWAP1 POP SWAP2 SWAP1 POP JUMP JUMPDEST PUSH0 PUSH1 0x20 DUP3 ADD SWAP1 POP DUP2 DUP2 SUB PUSH0 DUP4 ADD MSTORE PUSH2 0x16B4 DUP2 PUSH2 0x167B JUMP JUMPDEST SWAP1 POP SWAP2 SWAP1 POP JUMP JUMPDEST PUSH32 0x456C656374696F6E2074696D6520686173206578706972656400000000000000 PUSH0 DUP3 ADD MSTORE POP JUMP JUMPDEST PUSH0 PUSH2 0x16EF PUSH1 0x19 DUP4 PUSH2 0x1183 JUMP JUMPDEST SWAP2 POP PUSH2 0x16FA DUP3 PUSH2 0x16BB JUMP JUMPDEST PUSH1 0x20 DUP3 ADD SWAP1 POP SWAP2 SWAP1 POP JUMP JUMPDEST PUSH0 PUSH1 0x20 DUP3 ADD SWAP1 POP DUP2 DUP2 SUB PUSH0 DUP4 ADD MSTORE PUSH2 0x171C DUP2 PUSH2 0x16E3 JUMP JUMPDEST SWAP1 POP SWAP2 SWAP1 POP JUMP JUMPDEST PUSH32 0x596F75206861766520616C726561647920766F74656400000000000000000000 PUSH0 DUP3 ADD MSTORE POP JUMP JUMPDEST PUSH0 PUSH2 0x1757 PUSH1 0x16 DUP4 PUSH2 0x1183 JUMP JUMPDEST SWAP2 POP PUSH2 0x1762 DUP3 PUSH2 0x1723 JUMP JUMPDEST PUSH1 0x20 DUP3 ADD SWAP1 POP SWAP2 SWAP1 POP JUMP JUMPDEST PUSH0 PUSH1 0x20 DUP3 ADD SWAP1 POP DUP2 DUP2 SUB PUSH0 DUP4 ADD MSTORE PUSH2 0x1784 DUP2 PUSH2 0x174B JUMP JUMPDEST SWAP1 POP SWAP2 SWAP1 POP JUMP JUMPDEST PUSH32 0x496E76616C69642063616E64696461746520696E646578000000000000000000 PUSH0 DUP3 ADD MSTORE POP JUMP JUMPDEST PUSH0 PUSH2 0x17BF PUSH1 0x17 DUP4 PUSH2 0x1183 JUMP JUMPDEST SWAP2 POP PUSH2 0x17CA DUP3 PUSH2 0x178B JUMP JUMPDEST PUSH1 0x20 DUP3 ADD SWAP1 POP SWAP2 SWAP1 POP JUMP JUMPDEST PUSH0 PUSH1 0x20 DUP3 ADD SWAP1 POP DUP2 DUP2 SUB PUSH0 DUP4 ADD MSTORE PUSH2 0x17EC DUP2 PUSH2 0x17B3 JUMP JUMPDEST SWAP1 POP SWAP2 SWAP1 POP JUMP JUMPDEST PUSH32 0x4D6178696D756D20766F74657273207265616368656400000000000000000000 PUSH0 DUP3 ADD MSTORE POP JUMP JUMPDEST PUSH0 PUSH2 0x1827 PUSH1 0x16 DUP4 PUSH2 0x1183 JUMP JUMPDEST SWAP2 POP PUSH2 0x1832 DUP3 PUSH2 0x17F3 JUMP JUMPDEST PUSH1 0x20 DUP3 ADD SWAP1 POP SWAP2 SWAP1 POP JUMP JUMPDEST PUSH0 PUSH1 0x20 DUP3 ADD SWAP1 POP DUP2 DUP2 SUB PUSH0 DUP4 ADD MSTORE PUSH2 0x1854 DUP2 PUSH2 0x181B JUMP JUMPDEST SWAP1 POP SWAP2 SWAP1 POP JUMP JUMPDEST PUSH0 DUP2 SWAP1 POP SWAP3 SWAP2 POP POP JUMP JUMPDEST PUSH0 DUP2 SWAP1 POP DUP2 PUSH0 MSTORE PUSH1 0x20 PUSH0 KECCAK256 SWAP1 POP SWAP2 SWAP1 POP JUMP JUMPDEST PUSH0 DUP2 SLOAD PUSH2 0x1883 DUP2 PUSH2 0x13AF JUMP JUMPDEST PUSH2 0x188D DUP2 DUP7 PUSH2 0x185B JUMP JUMPDEST SWAP5 POP PUSH1 0x1 DUP3 AND PUSH0 DUP2 EQ PUSH2 0x18A7 JUMPI PUSH1 0x1 DUP2 EQ PUSH2 0x18BC JUMPI PUSH2 0x18EE JUMP JUMPDEST PUSH1 0xFF NOT DUP4 AND DUP7 MSTORE DUP2 ISZERO ISZERO DUP3 MUL DUP7 ADD SWAP4 POP PUSH2 0x18EE JUMP JUMPDEST PUSH2 0x18C5 DUP6 PUSH2 0x1865 JUMP JUMPDEST PUSH0 JUMPDEST DUP4 DUP2 LT ISZERO PUSH2 0x18E6 JUMPI DUP2 SLOAD DUP2 DUP10 ADD MSTORE PUSH1 0x1 DUP3 ADD SWAP2 POP PUSH1 0x20 DUP2 ADD SWAP1 POP PUSH2 0x18C7 JUMP JUMPDEST DUP4 DUP9 ADD SWAP6 POP POP POP JUMPDEST POP POP POP SWAP3 SWAP2 POP POP JUMP JUMPDEST PUSH0 PUSH2 0x1902 DUP3 DUP5 PUSH2 0x1877 JUMP JUMPDEST SWAP2 POP DUP2 SWAP1 POP SWAP3 SWAP2 POP POP JUMP INVALID LOG2 PUSH5 0x6970667358 0x22 SLT KECCAK256 0xDA 0xDF DUP9 PUSH25 0x36A3D68FFCFA91FC69F7DA26874585476A9FF8FE9CF800EA9D PUSH31 0x3B6B64736F6C63430008140033000000000000000000000000000000000000 "},"methodIdentifiers":{"admin()":"f851a440","candidates(uint256)":"3477ee2e","electionEndTime()":"9e136e64","electionEnded()":"c94ca9e3","electionStartTime()":"c5980c94","endElection()":"59f78468","getCandidateIndexByName(string)":"c07909f4","getCandidates()":"06a49fce","getElectionStats()":"906ad2a9","getWinner()":"8e7ea5b2","hasVoted(address)":"09eef43e","maxVoters()":"d5e50a63","vote(uint256)":"0121b93f","voteByName(string)":"88c10463","voteByNameForAddress(string,address)":"293cd782","voteForAddress(uint256,address)":"d446bfa9","voterCount()":"42169e48"}}}}}