{"project/contracts/schoolvoting.sol":{"SchoolVoting":{"abi":[{"inputs":[{"internalType":"string[]","name":"candidateNames","type":"string[]"},{"internalType":"uint256","name":"_maxVoters","type":"uint256"},{"internalType":"uint256","name":"durationHours","type":"uint256"}],"stateMutability":"nonpayable","type":"constructor"},{"anonymous":false,"inputs":[{"indexed":false,"internalType":"string","name":"name","type":"string"}],"name":"CandidateAdded","type":"event"},{"anonymous":false,"inputs":[{"indexed":false,"internalType":"uint256","name":"endedAt","type":"uint256"},{"indexed":true,"internalType":"address","name":"endedBy","type":"address"}],"name":"ElectionEnded","type":"event"},{"anonymous":false,"inputs":[{"indexed":false,"internalType":"uint256","name":"startTime","type":"uint256"},{"indexed":false,"internalType":"uint256","name":"endTime","type":"uint256"}],"name":"ElectionStarted","type":"event"},{"anonymous":false,"inputs":[{"indexed":true,"internalType":"address","name":"voter","type":"address"},{"indexed":true,"internalType":"uint256","name":"candidateIndex","type":"uint256"},{"indexed":false,"internalType":"uint256","name":"timestamp","type":"uint256"}],"name":"VoteCast","type":"event"},{"inputs":[{"internalType":"string","name":"name","type":"string"}],"name":"addCandidate","outputs":[],"stateMutability":"nonpayable","type":"function"},{"inputs":[],"name":"candidateCount","outputs":[{"internalType":"uint256","name":"","type":"uint256"}],"stateMutability":"view","type":"function"},{"inputs":[{"internalType":"uint256","name":"","type":"uint256"}],"name":"candidates","outputs":[{"internalType":"string","name":"name","type":"string"},{"internalType":"uint256","name":"voteCount","type":"uint256"}],"stateMutability":"view","type":"function"},{"inputs":[],"name":"electionEndTime","outputs":[{"internalType":"uint256","name":"","type":"uint256"}],"stateMutability":"view","type":"function"},{"inputs":[],"name":"electionEnded","outputs":[{"internalType":"bool","name":"","type":"bool"}],"stateMutability":"view","type":"function"},{"inputs":[],"name":"electionStartTime","outputs":[{"internalType":"uint256","name":"","type":"uint256"}],"stateMutability":"view","type":"function"},{"inputs":[],"name":"endElection","outputs":[],"stateMutability":"nonpayable","type":"function"},{"inputs":[{"internalType":"string","name":"candidateName","type":"string"}],"name":"getCandidateIndexByName","outputs":[{"internalType":"uint256","name":"","type":"uint256"},{"internalType":"bool","name":"","type":"bool"}],"stateMutability":"view","type":"function"},{"inputs":[],"name":"getElectionStats","outputs":[{"internalType":"uint256","name":"totalVoters","type":"uint256"},{"internalType":"uint256","name":"maxAllowedVoters","type":"uint256"},{"internalType":"uint256","name":"remainingVoters","type":"uint256"},{"internalType":"bool","name":"isActive","type":"bool"},{"internalType":"uint256","name":"timeRemaining","type":"uint256"}],"stateMutability":"view","type":"function"},{"inputs":[],"name":"getWinner","outputs":[{"internalType":"string","name":"winnerName","type":"string"},{"internalType":"uint256","name":"winnerVotes","type":"uint256"},{"internalType":"bool","name":"tie","type":"bool"}],"stateMutability":"view","type":"function"},{"inputs":[{"internalType":"address","name":"","type":"address"}],"name":"hasVoted","outputs":[{"internalType":"bool","name":"","type":"bool"}],"stateMutability":"view","type":"function"},{"inputs":[],"name":"maxVoters","outputs":[{"internalType":"uint256","name":"","type":"uint256"}],"stateMutability":"view","type":"function"},{"inputs":[{"internalType":"address","name":"","type":"address"}],"name":"nonces","outputs":[{"internalType":"uint256","name":"","type":"uint256"}],"stateMutability":"view","type":"function"},{"inputs":[],"name":"owner","outputs":[{"internalType":"address","name":"","type":"address"}],"stateMutability":"view","type":"function"},{"inputs":[{"internalType":"uint256","name":"candidateIndex","type":"uint256"}],"name":"vote","outputs":[],"stateMutability":"nonpayable","type":"function"},{"inputs":[{"internalType":"string","name":"candidateName","type":"string"}],"name":"voteByName","outputs":[],"stateMutability":"nonpayable","type":"function"},{"inputs":[{"internalType":"uint256","name":"candidateIndex","type":"uint256"},{"internalType":"address","name":"voter","type":"address"},{"internalType":"uint256","name":"nonce","type":"uint256"},{"internalType":"bytes","name":"signature","type":"bytes"}],"name":"voteBySignature","outputs":[],"stateMutability":"nonpayable","type":"function"},{"inputs":[],"name":"voterCount","outputs":[{"internalType":"uint256","name":"","type":"uint256"}],"stateMutability":"view","type":"function"}],"evm":{"bytecode":{"linkReferences":{},"object":"608060405234801562000010575f80fd5b506040516200368a3803806200368a833981810160405281019062000036919062000619565b6002835110156200007e576040517f08c379a00000000000000000000000000000000000000000000000000000000081526004016200007590620006ef565b60405180910390fd5b5f8211620000c3576040517f08c379a0000000000000000000000000000000000000000000000000000000008152600401620000ba906200075d565b60405180910390fd5b5f811162000108576040517f08c379a0000000000000000000000000000000000000000000000000000000008152600401620000ff90620007cb565b60405180910390fd5b335f806101000a81548173ffffffffffffffffffffffffffffffffffffffff021916908373ffffffffffffffffffffffffffffffffffffffff1602179055508160058190555042600681905550610e108162000165919062000818565b4262000172919062000862565b6007819055505f5b83518110156200031b575f5b818110156200023257848181518110620001a557620001a46200089c565b5b602002602001015180519060200120858381518110620001ca57620001c96200089c565b5b602002602001015180519060200120036200021c576040517f08c379a0000000000000000000000000000000000000000000000000000000008152600401620002139062000917565b60405180910390fd5b8080620002299062000937565b91505062000186565b50600160405180604001604052808684815181106200025657620002556200089c565b5b602002602001015181526020015f815250908060018154018082558091505060019003905f5260205f2090600202015f909190919091505f820151815f019081620002a2919062000bb1565b506020820151816001015550507ff29562dad1599aea0ebb142466120aab326d5efa8f839df82a9c064bf78e8938848281518110620002e657620002e56200089c565b5b6020026020010151604051620002fd919062000cd5565b60405180910390a18080620003129062000937565b9150506200017a565b507fff6a30dd22f5e8b783044c7d895a6e8592b55c56f139978d44dc39daf596731f6006546007546040516200035392919062000d08565b60405180910390a150505062000d33565b5f604051905090565b5f80fd5b5f80fd5b5f80fd5b5f601f19601f8301169050919050565b7f4e487b71000000000000000000000000000000000000000000000000000000005f52604160045260245ffd5b620003c18262000379565b810181811067ffffffffffffffff82111715620003e357620003e262000389565b5b80604052505050565b5f620003f762000364565b9050620004058282620003b6565b919050565b5f67ffffffffffffffff82111562000427576200042662000389565b5b602082029050602081019050919050565b5f80fd5b5f80fd5b5f67ffffffffffffffff8211156200045d576200045c62000389565b5b620004688262000379565b9050602081019050919050565b5f5b838110156200049457808201518184015260208101905062000477565b5f8484015250505050565b5f620004b5620004af8462000440565b620003ec565b905082815260208101848484011115620004d457620004d36200043c565b5b620004e184828562000475565b509392505050565b5f82601f8301126200050057620004ff62000375565b5b8151620005128482602086016200049f565b91505092915050565b5f620005316200052b846200040a565b620003ec565b9050808382526020820190506020840283018581111562000557576200055662000438565b5b835b81811015620005a557805167ffffffffffffffff81111562000580576200057f62000375565b5b8086016200058f8982620004e9565b8552602085019450505060208101905062000559565b5050509392505050565b5f82601f830112620005c657620005c562000375565b5b8151620005d88482602086016200051b565b91505092915050565b5f819050919050565b620005f581620005e1565b811462000600575f80fd5b50565b5f815190506200061381620005ea565b92915050565b5f805f606084860312156200063357620006326200036d565b5b5f84015167ffffffffffffffff81111562000653576200065262000371565b5b6200066186828701620005af565b9350506020620006748682870162000603565b9250506040620006878682870162000603565b9150509250925092565b5f82825260208201905092915050565b7f4174206c656173742074776f2063616e646964617465730000000000000000005f82015250565b5f620006d760178362000691565b9150620006e482620006a1565b602082019050919050565b5f6020820190508181035f8301526200070881620006c9565b9050919050565b7f6d6178566f74657273203e2030000000000000000000000000000000000000005f82015250565b5f62000745600d8362000691565b915062000752826200070f565b602082019050919050565b5f6020820190508181035f830152620007768162000737565b9050919050565b7f6475726174696f6e203e203000000000000000000000000000000000000000005f82015250565b5f620007b3600c8362000691565b9150620007c0826200077d565b602082019050919050565b5f6020820190508181035f830152620007e481620007a5565b9050919050565b7f4e487b71000000000000000000000000000000000000000000000000000000005f52601160045260245ffd5b5f6200082482620005e1565b91506200083183620005e1565b92508282026200084181620005e1565b915082820484148315176200085b576200085a620007eb565b5b5092915050565b5f6200086e82620005e1565b91506200087b83620005e1565b9250828201905080821115620008965762000895620007eb565b5b92915050565b7f4e487b71000000000000000000000000000000000000000000000000000000005f52603260045260245ffd5b7f4475706c69636174652063616e646964617465206e616d6500000000000000005f82015250565b5f620008ff60188362000691565b91506200090c82620008c9565b602082019050919050565b5f6020820190508181035f8301526200093081620008f1565b9050919050565b5f6200094382620005e1565b91507fffffffffffffffffffffffffffffffffffffffffffffffffffffffffffffffff8203620009785762000977620007eb565b5b600182019050919050565b5f81519050919050565b7f4e487b71000000000000000000000000000000000000000000000000000000005f52602260045260245ffd5b5f6002820490506001821680620009d257607f821691505b602082108103620009e857620009e76200098d565b5b50919050565b5f819050815f5260205f209050919050565b5f6020601f8301049050919050565b5f82821b905092915050565b5f6008830262000a4c7fffffffffffffffffffffffffffffffffffffffffffffffffffffffffffffffff8262000a0f565b62000a58868362000a0f565b95508019841693508086168417925050509392505050565b5f819050919050565b5f62000a9962000a9362000a8d84620005e1565b62000a70565b620005e1565b9050919050565b5f819050919050565b62000ab48362000a79565b62000acc62000ac38262000aa0565b84845462000a1b565b825550505050565b5f90565b62000ae262000ad4565b62000aef81848462000aa9565b505050565b5b8181101562000b165762000b0a5f8262000ad8565b60018101905062000af5565b5050565b601f82111562000b655762000b2f81620009ee565b62000b3a8462000a00565b8101602085101562000b4a578190505b62000b6262000b598562000a00565b83018262000af4565b50505b505050565b5f82821c905092915050565b5f62000b875f198460080262000b6a565b1980831691505092915050565b5f62000ba1838362000b76565b9150826002028217905092915050565b62000bbc8262000983565b67ffffffffffffffff81111562000bd85762000bd762000389565b5b62000be48254620009ba565b62000bf182828562000b1a565b5f60209050601f83116001811462000c27575f841562000c12578287015190505b62000c1e858262000b94565b86555062000c8d565b601f19841662000c3786620009ee565b5f5b8281101562000c605784890151825560018201915060208501945060208101905062000c39565b8683101562000c80578489015162000c7c601f89168262000b76565b8355505b6001600288020188555050505b505050505050565b5f62000ca18262000983565b62000cad818562000691565b935062000cbf81856020860162000475565b62000cca8162000379565b840191505092915050565b5f6020820190508181035f83015262000cef818462000c95565b905092915050565b62000d0281620005e1565b82525050565b5f60408201905062000d1d5f83018562000cf7565b62000d2c602083018462000cf7565b9392505050565b6129498062000d415f395ff3fe608060405234801561000f575f80fd5b5060043610610114575f3560e01c80638da5cb5b116100a0578063a9a981a31161006f578063a9a981a3146102bf578063c07909f4146102dd578063c5980c941461030e578063c94ca9e31461032c578063d5e50a631461034a57610114565b80638da5cb5b146102415780638e7ea5b21461025f578063906ad2a91461027f5780639e136e64146102a157610114565b8063462e91ec116100e7578063462e91ec146101b35780634d3e0f68146101cf57806359f78468146101eb5780637ecebe00146101f557806388c104631461022557610114565b80630121b93f1461011857806309eef43e146101345780633477ee2e1461016457806342169e4814610195575b5f80fd5b610132600480360381019061012d9190611576565b610368565b005b61014e600480360381019061014991906115fb565b61044e565b60405161015b9190611640565b60405180910390f35b61017e60048036038101906101799190611576565b61046b565b60405161018c9291906116f2565b60405180910390f35b61019d610520565b6040516101aa9190611720565b60405180910390f35b6101cd60048036038101906101c89190611865565b610526565b005b6101e960048036038101906101e49190611909565b610730565b005b6101f3610b2a565b005b61020f600480360381019061020a91906115fb565b610cb5565b60405161021c9190611720565b60405180910390f35b61023f600480360381019061023a9190611865565b610cca565b005b610249610e01565b604051610256919061199c565b60405180910390f35b610267610e24565b604051610276939291906119b5565b60405180910390f35b61028761101c565b6040516102989594939291906119f1565b60405180910390f35b6102a96110a4565b6040516102b69190611720565b60405180910390f35b6102c76110aa565b6040516102d49190611720565b60405180910390f35b6102f760048036038101906102f29190611865565b6110b6565b604051610305929190611a42565b60405180910390f35b61031661113e565b6040516103239190611720565b60405180910390f35b610334611144565b6040516103419190611640565b60405180910390f35b610352611156565b60405161035f9190611720565b60405180910390f35b60085f9054906101000a900460ff16156103b7576040517f08c379a00000000000000000000000000000000000000000000000000000000081526004016103ae90611ab3565b60405180910390fd5b6006544210156103fc576040517f08c379a00000000000000000000000000000000000000000000000000000000081526004016103f390611b1b565b60405180910390fd5b600754421115610441576040517f08c379a000000000000000000000000000000000000000000000000000000000815260040161043890611b83565b60405180910390fd5b61044b813361115c565b50565b6002602052805f5260405f205f915054906101000a900460ff1681565b6001818154811061047a575f80fd5b905f5260205f2090600202015f91509050805f01805461049990611bce565b80601f01602080910402602001604051908101604052809291908181526020018280546104c590611bce565b80156105105780601f106104e757610100808354040283529160200191610510565b820191905f5260205f20905b8154815290600101906020018083116104f357829003601f168201915b5050505050908060010154905082565b60045481565b5f8054906101000a900473ffffffffffffffffffffffffffffffffffffffff1673ffffffffffffffffffffffffffffffffffffffff163373ffffffffffffffffffffffffffffffffffffffff16146105b3576040517f08c379a00000000000000000000000000000000000000000000000000000000081526004016105aa90611c48565b60405180910390fd5b60065442106105f7576040517f08c379a00000000000000000000000000000000000000000000000000000000081526004016105ee90611cd6565b60405180910390fd5b5f5b6001805490508110156106985781805190602001206001828154811061062257610621611cf4565b5b905f5260205f2090600202015f0160405161063d9190611dbd565b604051809103902003610685576040517f08c379a000000000000000000000000000000000000000000000000000000000815260040161067c90611e1d565b60405180910390fd5b808061069090611e68565b9150506105f9565b50600160405180604001604052808381526020015f815250908060018154018082558091505060019003905f5260205f2090600202015f909190919091505f820151815f0190816106e9919061204c565b506020820151816001015550507ff29562dad1599aea0ebb142466120aab326d5efa8f839df82a9c064bf78e893881604051610725919061211b565b60405180910390a150565b60085f9054906101000a900460ff161561077f576040517f08c379a000000000000000000000000000000000000000000000000000000000815260040161077690611ab3565b60405180910390fd5b6006544210156107c4576040517f08c379a00000000000000000000000000000000000000000000000000000000081526004016107bb90611b1b565b60405180910390fd5b600754421115610809576040517f08c379a000000000000000000000000000000000000000000000000000000000815260040161080090611b83565b60405180910390fd5b6001805490508510610850576040517f08c379a000000000000000000000000000000000000000000000000000000000815260040161084790612185565b60405180910390fd5b60025f8573ffffffffffffffffffffffffffffffffffffffff1673ffffffffffffffffffffffffffffffffffffffff1681526020019081526020015f205f9054906101000a900460ff16156108da576040517f08c379a00000000000000000000000000000000000000000000000000000000081526004016108d1906121ed565b60405180910390fd5b60055460045410610920576040517f08c379a000000000000000000000000000000000000000000000000000000000815260040161091790612255565b60405180910390fd5b8260035f8673ffffffffffffffffffffffffffffffffffffffff1673ffffffffffffffffffffffffffffffffffffffff1681526020019081526020015f20541461099f576040517f08c379a0000000000000000000000000000000000000000000000000000000008152600401610996906122bd565b60405180910390fd5b5f6109d5308688876040516020016109ba9493929190612340565b6040516020818303038152906040528051906020012061136a565b90505f610a258285858080601f0160208091040260200160405190810160405280939291908181526020018383808284375f81840152601f19601f82011690508083019250505050505050611399565b90508573ffffffffffffffffffffffffffffffffffffffff168173ffffffffffffffffffffffffffffffffffffffff1614610a95576040517f08c379a0000000000000000000000000000000000000000000000000000000008152600401610a8c906123d7565b60405180910390fd5b600160035f8873ffffffffffffffffffffffffffffffffffffffff1673ffffffffffffffffffffffffffffffffffffffff1681526020019081526020015f20540160035f8873ffffffffffffffffffffffffffffffffffffffff1673ffffffffffffffffffffffffffffffffffffffff1681526020019081526020015f2081905550610b21878761115c565b50505050505050565b5f8054906101000a900473ffffffffffffffffffffffffffffffffffffffff1673ffffffffffffffffffffffffffffffffffffffff163373ffffffffffffffffffffffffffffffffffffffff1614610bb7576040517f08c379a0000000000000000000000000000000000000000000000000000000008152600401610bae90611c48565b60405180910390fd5b60085f9054906101000a900460ff1615610c06576040517f08c379a0000000000000000000000000000000000000000000000000000000008152600401610bfd9061243f565b60405180910390fd5b600754421015610c4b576040517f08c379a0000000000000000000000000000000000000000000000000000000008152600401610c42906124a7565b60405180910390fd5b600160085f6101000a81548160ff0219169083151502179055503373ffffffffffffffffffffffffffffffffffffffff167f82e7c3995e0a57d5e4f59cb69206614abd00f1631bf411d4ed7040004215401142604051610cab9190611720565b60405180910390a2565b6003602052805f5260405f205f915090505481565b60085f9054906101000a900460ff1615610d19576040517f08c379a0000000000000000000000000000000000000000000000000000000008152600401610d1090611ab3565b60405180910390fd5b600654421015610d5e576040517f08c379a0000000000000000000000000000000000000000000000000000000008152600401610d5590611b1b565b60405180910390fd5b600754421115610da3576040517f08c379a0000000000000000000000000000000000000000000000000000000008152600401610d9a90611b83565b60405180910390fd5b5f80610dae836110b6565b9150915080610df2576040517f08c379a0000000000000000000000000000000000000000000000000000000008152600401610de99061250f565b60405180910390fd5b610dfc823361115c565b505050565b5f8054906101000a900473ffffffffffffffffffffffffffffffffffffffff1681565b60605f8060085f9054906101000a900460ff1680610e43575060075442115b610e82576040517f08c379a0000000000000000000000000000000000000000000000000000000008152600401610e7990612577565b60405180910390fd5b5f60018054905003610eac575f8060405180602001604052805f8152509190925092509250611017565b5f805f805b600180549050811015610f33575f60018281548110610ed357610ed2611cf4565b5b905f5260205f20906002020160010154905084811115610efc5780945060019350819250610f1f565b8481148015610f0a57505f81115b15610f1e578380610f1a90611e68565b9450505b5b508080610f2b90611e68565b915050610eb1565b505f8303610f5c575f8060405180602001604052805f8152509190955095509550505050611017565b60018181548110610f7057610f6f611cf4565b5b905f5260205f2090600202015f018360018411828054610f8f90611bce565b80601f0160208091040260200160405190810160405280929190818152602001828054610fbb90611bce565b80156110065780601f10610fdd57610100808354040283529160200191611006565b820191905f5260205f20905b815481529060010190602001808311610fe957829003601f168201915b505050505092509550955095505050505b909192565b5f805f805f600454945060055493506004546005541161103c575f61104d565b60045460055461104c9190612595565b5b925060085f9054906101000a900460ff1615801561106d57506006544210155b801561107b57506007544211155b9150600754421061108c575f61109b565b4260075461109a9190612595565b5b90509091929394565b60075481565b5f600180549050905090565b5f805f838051906020012090505f5b6001805490508110156111305781600182815481106110e7576110e6611cf4565b5b905f5260205f2090600202015f016040516111029190611dbd565b60405180910390200361111d57806001935093505050611139565b808061112890611e68565b9150506110c5565b505f8092509250505b915091565b60065481565b60085f9054906101000a900460ff1681565b60055481565b60025f8273ffffffffffffffffffffffffffffffffffffffff1673ffffffffffffffffffffffffffffffffffffffff1681526020019081526020015f205f9054906101000a900460ff16156111e6576040517f08c379a00000000000000000000000000000000000000000000000000000000081526004016111dd90612612565b60405180910390fd5b600180549050821061122d576040517f08c379a00000000000000000000000000000000000000000000000000000000081526004016112249061267a565b60405180910390fd5b60055460045410611273576040517f08c379a000000000000000000000000000000000000000000000000000000000815260040161126a90612255565b60405180910390fd5b600160025f8373ffffffffffffffffffffffffffffffffffffffff1673ffffffffffffffffffffffffffffffffffffffff1681526020019081526020015f205f6101000a81548160ff02191690831515021790555060045f8154809291906112da90611e68565b9190505550600182815481106112f3576112f2611cf4565b5b905f5260205f2090600202016001015f81548092919061131290611e68565b9190505550818173ffffffffffffffffffffffffffffffffffffffff167fb4cfecf70861b7b150d8337780d34fb4cbc2114b5fb1fe51a5c5fca1849f72744260405161135e9190611720565b60405180910390a35050565b5f8160405160200161137c9190612715565b604051602081830303815290604052805190602001209050919050565b5f60418251146113de576040517f08c379a00000000000000000000000000000000000000000000000000000000081526004016113d590612784565b60405180910390fd5b5f805f602085015192506040850151915060608501515f1a9050601b8160ff16101561141457601b8161141191906127ae565b90505b601b8160ff1614806114295750601c8160ff16145b611468576040517f08c379a000000000000000000000000000000000000000000000000000000000815260040161145f9061282c565b60405180910390fd5b5f6001878386866040515f815260200160405260405161148b9493929190612868565b6020604051602081039080840390855afa1580156114ab573d5f803e3d5ffd5b5050506020604051035190505f73ffffffffffffffffffffffffffffffffffffffff168173ffffffffffffffffffffffffffffffffffffffff1603611525576040517f08c379a000000000000000000000000000000000000000000000000000000000815260040161151c906128f5565b60405180910390fd5b8094505050505092915050565b5f604051905090565b5f80fd5b5f80fd5b5f819050919050565b61155581611543565b811461155f575f80fd5b50565b5f813590506115708161154c565b92915050565b5f6020828403121561158b5761158a61153b565b5b5f61159884828501611562565b91505092915050565b5f73ffffffffffffffffffffffffffffffffffffffff82169050919050565b5f6115ca826115a1565b9050919050565b6115da816115c0565b81146115e4575f80fd5b50565b5f813590506115f5816115d1565b92915050565b5f602082840312156116105761160f61153b565b5b5f61161d848285016115e7565b91505092915050565b5f8115159050919050565b61163a81611626565b82525050565b5f6020820190506116535f830184611631565b92915050565b5f81519050919050565b5f82825260208201905092915050565b5f5b83811015611690578082015181840152602081019050611675565b5f8484015250505050565b5f601f19601f8301169050919050565b5f6116b582611659565b6116bf8185611663565b93506116cf818560208601611673565b6116d88161169b565b840191505092915050565b6116ec81611543565b82525050565b5f6040820190508181035f83015261170a81856116ab565b905061171960208301846116e3565b9392505050565b5f6020820190506117335f8301846116e3565b92915050565b5f80fd5b5f80fd5b7f4e487b71000000000000000000000000000000000000000000000000000000005f52604160045260245ffd5b6117778261169b565b810181811067ffffffffffffffff8211171561179657611795611741565b5b80604052505050565b5f6117a8611532565b90506117b4828261176e565b919050565b5f67ffffffffffffffff8211156117d3576117d2611741565b5b6117dc8261169b565b9050602081019050919050565b828183375f83830152505050565b5f611809611804846117b9565b61179f565b9050828152602081018484840111156118255761182461173d565b5b6118308482856117e9565b509392505050565b5f82601f83011261184c5761184b611739565b5b813561185c8482602086016117f7565b91505092915050565b5f6020828403121561187a5761187961153b565b5b5f82013567ffffffffffffffff8111156118975761189661153f565b5b6118a384828501611838565b91505092915050565b5f80fd5b5f80fd5b5f8083601f8401126118c9576118c8611739565b5b8235905067ffffffffffffffff8111156118e6576118e56118ac565b5b602083019150836001820283011115611902576119016118b0565b5b9250929050565b5f805f805f608086880312156119225761192161153b565b5b5f61192f88828901611562565b9550506020611940888289016115e7565b945050604061195188828901611562565b935050606086013567ffffffffffffffff8111156119725761197161153f565b5b61197e888289016118b4565b92509250509295509295909350565b611996816115c0565b82525050565b5f6020820190506119af5f83018461198d565b92915050565b5f6060820190508181035f8301526119cd81866116ab565b90506119dc60208301856116e3565b6119e96040830184611631565b949350505050565b5f60a082019050611a045f8301886116e3565b611a1160208301876116e3565b611a1e60408301866116e3565b611a2b6060830185611631565b611a3860808301846116e3565b9695505050505050565b5f604082019050611a555f8301856116e3565b611a626020830184611631565b9392505050565b7f456c656374696f6e2068617320656e64656400000000000000000000000000005f82015250565b5f611a9d601283611663565b9150611aa882611a69565b602082019050919050565b5f6020820190508181035f830152611aca81611a91565b9050919050565b7f456c656374696f6e206e6f7420737461727465640000000000000000000000005f82015250565b5f611b05601483611663565b9150611b1082611ad1565b602082019050919050565b5f6020820190508181035f830152611b3281611af9565b9050919050565b7f456c656374696f6e2074696d65206578706972656400000000000000000000005f82015250565b5f611b6d601583611663565b9150611b7882611b39565b602082019050919050565b5f6020820190508181035f830152611b9a81611b61565b9050919050565b7f4e487b71000000000000000000000000000000000000000000000000000000005f52602260045260245ffd5b5f6002820490506001821680611be557607f821691505b602082108103611bf857611bf7611ba1565b5b50919050565b7f4f6e6c79206f776e6572000000000000000000000000000000000000000000005f82015250565b5f611c32600a83611663565b9150611c3d82611bfe565b602082019050919050565b5f6020820190508181035f830152611c5f81611c26565b9050919050565b7f43616e206f6e6c79206164642063616e64696461746573206265666f726520735f8201527f7461727400000000000000000000000000000000000000000000000000000000602082015250565b5f611cc0602483611663565b9150611ccb82611c66565b604082019050919050565b5f6020820190508181035f830152611ced81611cb4565b9050919050565b7f4e487b71000000000000000000000000000000000000000000000000000000005f52603260045260245ffd5b5f81905092915050565b5f819050815f5260205f209050919050565b5f8154611d4981611bce565b611d538186611d21565b9450600182165f8114611d6d5760018114611d8257611db4565b60ff1983168652811515820286019350611db4565b611d8b85611d2b565b5f5b83811015611dac57815481890152600182019150602081019050611d8d565b838801955050505b50505092915050565b5f611dc88284611d3d565b915081905092915050565b7f4475706c69636174652063616e646964617465000000000000000000000000005f82015250565b5f611e07601383611663565b9150611e1282611dd3565b602082019050919050565b5f6020820190508181035f830152611e3481611dfb565b9050919050565b7f4e487b71000000000000000000000000000000000000000000000000000000005f52601160045260245ffd5b5f611e7282611543565b91507fffffffffffffffffffffffffffffffffffffffffffffffffffffffffffffffff8203611ea457611ea3611e3b565b5b600182019050919050565b5f819050815f5260205f209050919050565b5f6020601f8301049050919050565b5f82821b905092915050565b5f60088302611f0b7fffffffffffffffffffffffffffffffffffffffffffffffffffffffffffffffff82611ed0565b611f158683611ed0565b95508019841693508086168417925050509392505050565b5f819050919050565b5f611f50611f4b611f4684611543565b611f2d565b611543565b9050919050565b5f819050919050565b611f6983611f36565b611f7d611f7582611f57565b848454611edc565b825550505050565b5f90565b611f91611f85565b611f9c818484611f60565b505050565b5b81811015611fbf57611fb45f82611f89565b600181019050611fa2565b5050565b601f82111561200457611fd581611eaf565b611fde84611ec1565b81016020851015611fed578190505b612001611ff985611ec1565b830182611fa1565b50505b505050565b5f82821c905092915050565b5f6120245f1984600802612009565b1980831691505092915050565b5f61203c8383612015565b9150826002028217905092915050565b61205582611659565b67ffffffffffffffff81111561206e5761206d611741565b5b6120788254611bce565b612083828285611fc3565b5f60209050601f8311600181146120b4575f84156120a2578287015190505b6120ac8582612031565b865550612113565b601f1984166120c286611eaf565b5f5b828110156120e9578489015182556001820191506020850194506020810190506120c4565b868310156121065784890151612102601f891682612015565b8355505b6001600288020188555050505b505050505050565b5f6020820190508181035f83015261213381846116ab565b905092915050565b7f496e76616c69642063616e6469646174650000000000000000000000000000005f82015250565b5f61216f601183611663565b915061217a8261213b565b602082019050919050565b5f6020820190508181035f83015261219c81612163565b9050919050565b7f566f74657220616c726561647920766f746564000000000000000000000000005f82015250565b5f6121d7601383611663565b91506121e2826121a3565b602082019050919050565b5f6020820190508181035f830152612204816121cb565b9050919050565b7f4d617820766f74657273207265616368656400000000000000000000000000005f82015250565b5f61223f601283611663565b915061224a8261220b565b602082019050919050565b5f6020820190508181035f83015261226c81612233565b9050919050565b7f496e76616c6964206e6f6e6365000000000000000000000000000000000000005f82015250565b5f6122a7600d83611663565b91506122b282612273565b602082019050919050565b5f6020820190508181035f8301526122d48161229b565b9050919050565b5f8160601b9050919050565b5f6122f1826122db565b9050919050565b5f612302826122e7565b9050919050565b61231a612315826115c0565b6122f8565b82525050565b5f819050919050565b61233a61233582611543565b612320565b82525050565b5f61234b8287612309565b60148201915061235b8286612309565b60148201915061236b8285612329565b60208201915061237b8284612329565b60208201915081905095945050505050565b7f496e76616c6964207369676e61747572650000000000000000000000000000005f82015250565b5f6123c1601183611663565b91506123cc8261238d565b602082019050919050565b5f6020820190508181035f8301526123ee816123b5565b9050919050565b7f416c726561647920656e646564000000000000000000000000000000000000005f82015250565b5f612429600d83611663565b9150612434826123f5565b602082019050919050565b5f6020820190508181035f8301526124568161241d565b9050919050565b7f456c656374696f6e207374696c6c2072756e6e696e67000000000000000000005f82015250565b5f612491601683611663565b915061249c8261245d565b602082019050919050565b5f6020820190508181035f8301526124be81612485565b9050919050565b7f43616e646964617465206e6f7420666f756e64000000000000000000000000005f82015250565b5f6124f9601383611663565b9150612504826124c5565b602082019050919050565b5f6020820190508181035f830152612526816124ed565b9050919050565b7f456c656374696f6e206f6e676f696e67000000000000000000000000000000005f82015250565b5f612561601083611663565b915061256c8261252d565b602082019050919050565b5f6020820190508181035f83015261258e81612555565b9050919050565b5f61259f82611543565b91506125aa83611543565b92508282039050818111156125c2576125c1611e3b565b5b92915050565b7f416c726561647920766f746564000000000000000000000000000000000000005f82015250565b5f6125fc600d83611663565b9150612607826125c8565b602082019050919050565b5f6020820190508181035f830152612629816125f0565b9050919050565b7f43616e646964617465206f7574206f662072616e6765000000000000000000005f82015250565b5f612664601683611663565b915061266f82612630565b602082019050919050565b5f6020820190508181035f83015261269181612658565b9050919050565b5f81905092915050565b7f19457468657265756d205369676e6564204d6573736167653a0a3332000000005f82015250565b5f6126d6601c83612698565b91506126e1826126a2565b601c82019050919050565b5f819050919050565b5f819050919050565b61270f61270a826126ec565b6126f5565b82525050565b5f61271f826126ca565b915061272b82846126fe565b60208201915081905092915050565b7f496e76616c696420736967206c656e67746800000000000000000000000000005f82015250565b5f61276e601283611663565b91506127798261273a565b602082019050919050565b5f6020820190508181035f83015261279b81612762565b9050919050565b5f60ff82169050919050565b5f6127b8826127a2565b91506127c3836127a2565b9250828201905060ff8111156127dc576127db611e3b565b5b92915050565b7f496e76616c6964207600000000000000000000000000000000000000000000005f82015250565b5f612816600983611663565b9150612821826127e2565b602082019050919050565b5f6020820190508181035f8301526128438161280a565b9050919050565b612853816126ec565b82525050565b612862816127a2565b82525050565b5f60808201905061287b5f83018761284a565b6128886020830186612859565b612895604083018561284a565b6128a2606083018461284a565b95945050505050565b7f496e76616c6964207369676e65720000000000000000000000000000000000005f82015250565b5f6128df600e83611663565b91506128ea826128ab565b602082019050919050565b5f6020820190508181035f83015261290c816128d3565b905091905056fea26469706673582212208a3831afeb58a617a7a0ad3ff96e14f23a58f83a08e3f57ae528bc9f447abd6564736f6c63430008140033","opcodes":"PUSH1 0x80 PUSH1 0x40 MSTORE CALLVALUE DUP1 ISZERO PUSH3 0x10 JUMPI PUSH0 DUP1 REVERT JUMPDEST POP PUSH1 0x40 MLOAD PUSH3 0x368A CODESIZE SUB DUP1 PUSH3 0x368A DUP4 CODECOPY DUP2 DUP2 ADD PUSH1 0x40 MSTORE DUP2 ADD SWAP1 PUSH3 0x36 SWAP2 SWAP1 PUSH3 0x619 JUMP JUMPDEST PUSH1 0x2 DUP4 MLOAD LT ISZERO PUSH3 0x7E JUMPI PUSH1 0x40 MLOAD PUSH32 0x8C379A000000000000000000000000000000000000000000000000000000000 DUP2 MSTORE PUSH1 0x4 ADD PUSH3 0x75 SWAP1 PUSH3 0x6EF JUMP JUMPDEST PUSH1 0x40 MLOAD DUP1 SWAP2 SUB SWAP1 REVERT JUMPDEST PUSH0 DUP3 GT PUSH3 0xC3 JUMPI PUSH1 0x40 MLOAD PUSH32 0x8C379A000000000000000000000000000000000000000000000000000000000 DUP2 MSTORE PUSH1 0x4 ADD PUSH3 0xBA SWAP1 PUSH3 0x75D JUMP JUMPDEST PUSH1 0x40 MLOAD DUP1 SWAP2 SUB SWAP1 REVERT JUMPDEST PUSH0 DUP2 GT PUSH3 0x108 JUMPI PUSH1 0x40 MLOAD PUSH32 0x8C379A000000000000000000000000000000000000000000000000000000000 DUP2 MSTORE PUSH1 0x4 ADD PUSH3 0xFF SWAP1 PUSH3 0x7CB JUMP JUMPDEST PUSH1 0x40 MLOAD DUP1 SWAP2 SUB SWAP1 REVERT JUMPDEST CALLER PUSH0 DUP1 PUSH2 0x100 EXP DUP2 SLOAD DUP2 PUSH20 0xFFFFFFFFFFFFFFFFFFFFFFFFFFFFFFFFFFFFFFFF MUL NOT AND SWAP1 DUP4 PUSH20 0xFFFFFFFFFFFFFFFFFFFFFFFFFFFFFFFFFFFFFFFF AND MUL OR SWAP1 SSTORE POP DUP2 PUSH1 0x5 DUP2 SWAP1 SSTORE POP TIMESTAMP PUSH1 0x6 DUP2 SWAP1 SSTORE POP PUSH2 0xE10 DUP2 PUSH3 0x165 SWAP2 SWAP1 PUSH3 0x818 JUMP JUMPDEST TIMESTAMP PUSH3 0x172 SWAP2 SWAP1 PUSH3 0x862 JUMP JUMPDEST PUSH1 0x7 DUP2 SWAP1 SSTORE POP PUSH0 JUMPDEST DUP4 MLOAD DUP2 LT ISZERO PUSH3 0x31B JUMPI PUSH0 JUMPDEST DUP2 DUP2 LT ISZERO PUSH3 0x232 JUMPI DUP5 DUP2 DUP2 MLOAD DUP2 LT PUSH3 0x1A5 JUMPI PUSH3 0x1A4 PUSH3 0x89C JUMP JUMPDEST JUMPDEST PUSH1 0x20 MUL PUSH1 0x20 ADD ADD MLOAD DUP1 MLOAD SWAP1 PUSH1 0x20 ADD KECCAK256 DUP6 DUP4 DUP2 MLOAD DUP2 LT PUSH3 0x1CA JUMPI PUSH3 0x1C9 PUSH3 0x89C JUMP JUMPDEST JUMPDEST PUSH1 0x20 MUL PUSH1 0x20 ADD ADD MLOAD DUP1 MLOAD SWAP1 PUSH1 0x20 ADD KECCAK256 SUB PUSH3 0x21C JUMPI PUSH1 0x40 MLOAD PUSH32 0x8C379A000000000000000000000000000000000000000000000000000000000 DUP2 MSTORE PUSH1 0x4 ADD PUSH3 0x213 SWAP1 PUSH3 0x917 JUMP JUMPDEST PUSH1 0x40 MLOAD DUP1 SWAP2 SUB SWAP1 REVERT JUMPDEST DUP1 DUP1 PUSH3 0x229 SWAP1 PUSH3 0x937 JUMP JUMPDEST SWAP2 POP POP PUSH3 0x186 JUMP JUMPDEST POP PUSH1 0x1 PUSH1 0x40 MLOAD DUP1 PUSH1 0x40 ADD PUSH1 0x40 MSTORE DUP1 DUP7 DUP5 DUP2 MLOAD DUP2 LT PUSH3 0x256 JUMPI PUSH3 0x255 PUSH3 0x89C JUMP JUMPDEST JUMPDEST PUSH1 0x20 MUL PUSH1 0x20 ADD ADD MLOAD DUP2 MSTORE PUSH1 0x20 ADD PUSH0 DUP2 MSTORE POP SWAP1 DUP1 PUSH1 0x1 DUP2 SLOAD ADD DUP1 DUP3 SSTORE DUP1 SWAP2 POP POP PUSH1 0x1 SWAP1 SUB SWAP1 PUSH0 MSTORE PUSH1 0x20 PUSH0 KECCAK256 SWAP1 PUSH1 0x2 MUL ADD PUSH0 SWAP1 SWAP2 SWAP1 SWAP2 SWAP1 SWAP2 POP PUSH0 DUP3 ADD MLOAD DUP2 PUSH0 ADD SWAP1 DUP2 PUSH3 0x2A2 SWAP2 SWAP1 PUSH3 0xBB1 JUMP JUMPDEST POP PUSH1 0x20 DUP3 ADD MLOAD DUP2 PUSH1 0x1 ADD SSTORE POP POP PUSH32 0xF29562DAD1599AEA0EBB142466120AAB326D5EFA8F839DF82A9C064BF78E8938 DUP5 DUP3 DUP2 MLOAD DUP2 LT PUSH3 0x2E6 JUMPI PUSH3 0x2E5 PUSH3 0x89C JUMP JUMPDEST JUMPDEST PUSH1 0x20 MUL PUSH1 0x20 ADD ADD MLOAD PUSH1 0x40 MLOAD PUSH3 0x2FD SWAP2 SWAP1 PUSH3 0xCD5 JUMP JUMPDEST PUSH1 0x40 MLOAD DUP1 SWAP2 SUB SWAP1 LOG1 DUP1 DUP1 PUSH3 0x312 SWAP1 PUSH3 0x937 JUMP JUMPDEST SWAP2 POP POP PUSH3 0x17A JUMP JUMPDEST POP PUSH32 0xFF6A30DD22F5E8B783044C7D895A6E8592B55C56F139978D44DC39DAF596731F PUSH1 0x6 SLOAD PUSH1 0x7 SLOAD PUSH1 0x40 MLOAD PUSH3 0x353 SWAP3 SWAP2 SWAP1 PUSH3 0xD08 JUMP JUMPDEST PUSH1 0x40 MLOAD DUP1 SWAP2 SUB SWAP1 LOG1 POP POP POP PUSH3 0xD33 JUMP JUMPDEST PUSH0 PUSH1 0x40 MLOAD SWAP1 POP SWAP1 JUMP JUMPDEST PUSH0 DUP1 REVERT JUMPDEST PUSH0 DUP1 REVERT JUMPDEST PUSH0 DUP1 REVERT JUMPDEST PUSH0 PUSH1 0x1F NOT PUSH1 0x1F DUP4 ADD AND SWAP1 POP SWAP2 SWAP1 POP JUMP JUMPDEST PUSH32 0x4E487B7100000000000000000000000000000000000000000000000000000000 PUSH0 MSTORE PUSH1 0x41 PUSH1 0x4 MSTORE PUSH1 0x24 PUSH0 REVERT JUMPDEST PUSH3 0x3C1 DUP3 PUSH3 0x379 JUMP JUMPDEST DUP2 ADD DUP2 DUP2 LT PUSH8 0xFFFFFFFFFFFFFFFF DUP3 GT OR ISZERO PUSH3 0x3E3 JUMPI PUSH3 0x3E2 PUSH3 0x389 JUMP JUMPDEST JUMPDEST DUP1 PUSH1 0x40 MSTORE POP POP POP JUMP JUMPDEST PUSH0 PUSH3 0x3F7 PUSH3 0x364 JUMP JUMPDEST SWAP1 POP PUSH3 0x405 DUP3 DUP3 PUSH3 0x3B6 JUMP JUMPDEST SWAP2 SWAP1 POP JUMP JUMPDEST PUSH0 PUSH8 0xFFFFFFFFFFFFFFFF DUP3 GT ISZERO PUSH3 0x427 JUMPI PUSH3 0x426 PUSH3 0x389 JUMP JUMPDEST JUMPDEST PUSH1 0x20 DUP3 MUL SWAP1 POP PUSH1 0x20 DUP2 ADD SWAP1 POP SWAP2 SWAP1 POP JUMP JUMPDEST PUSH0 DUP1 REVERT JUMPDEST PUSH0 DUP1 REVERT JUMPDEST PUSH0 PUSH8 0xFFFFFFFFFFFFFFFF DUP3 GT ISZERO PUSH3 0x45D JUMPI PUSH3 0x45C PUSH3 0x389 JUMP JUMPDEST JUMPDEST PUSH3 0x468 DUP3 PUSH3 0x379 JUMP JUMPDEST SWAP1 POP PUSH1 0x20 DUP2 ADD SWAP1 POP SWAP2 SWAP1 POP JUMP JUMPDEST PUSH0 JUMPDEST DUP4 DUP2 LT ISZERO PUSH3 0x494 JUMPI DUP1 DUP3 ADD MLOAD DUP2 DUP5 ADD MSTORE PUSH1 0x20 DUP2 ADD SWAP1 POP PUSH3 0x477 JUMP JUMPDEST PUSH0 DUP5 DUP5 ADD MSTORE POP POP POP POP JUMP JUMPDEST PUSH0 PUSH3 0x4B5 PUSH3 0x4AF DUP5 PUSH3 0x440 JUMP JUMPDEST PUSH3 0x3EC JUMP JUMPDEST SWAP1 POP DUP3 DUP2 MSTORE PUSH1 0x20 DUP2 ADD DUP5 DUP5 DUP5 ADD GT ISZERO PUSH3 0x4D4 JUMPI PUSH3 0x4D3 PUSH3 0x43C JUMP JUMPDEST JUMPDEST PUSH3 0x4E1 DUP5 DUP3 DUP6 PUSH3 0x475 JUMP JUMPDEST POP SWAP4 SWAP3 POP POP POP JUMP JUMPDEST PUSH0 DUP3 PUSH1 0x1F DUP4 ADD SLT PUSH3 0x500 JUMPI PUSH3 0x4FF PUSH3 0x375 JUMP JUMPDEST JUMPDEST DUP2 MLOAD PUSH3 0x512 DUP5 DUP3 PUSH1 0x20 DUP7 ADD PUSH3 0x49F JUMP JUMPDEST SWAP2 POP POP SWAP3 SWAP2 POP POP JUMP JUMPDEST PUSH0 PUSH3 0x531 PUSH3 0x52B DUP5 PUSH3 0x40A JUMP JUMPDEST PUSH3 0x3EC JUMP JUMPDEST SWAP1 POP DUP1 DUP4 DUP3 MSTORE PUSH1 0x20 DUP3 ADD SWAP1 POP PUSH1 0x20 DUP5 MUL DUP4 ADD DUP6 DUP2 GT ISZERO PUSH3 0x557 JUMPI PUSH3 0x556 PUSH3 0x438 JUMP JUMPDEST JUMPDEST DUP4 JUMPDEST DUP2 DUP2 LT ISZERO PUSH3 0x5A5 JUMPI DUP1 MLOAD PUSH8 0xFFFFFFFFFFFFFFFF DUP2 GT ISZERO PUSH3 0x580 JUMPI PUSH3 0x57F PUSH3 0x375 JUMP JUMPDEST JUMPDEST DUP1 DUP7 ADD PUSH3 0x58F DUP10 DUP3 PUSH3 0x4E9 JUMP JUMPDEST DUP6 MSTORE PUSH1 0x20 DUP6 ADD SWAP5 POP POP POP PUSH1 0x20 DUP2 ADD SWAP1 POP PUSH3 0x559 JUMP JUMPDEST POP POP POP SWAP4 SWAP3 POP POP POP JUMP JUMPDEST PUSH0 DUP3 PUSH1 0x1F DUP4 ADD SLT PUSH3 0x5C6 JUMPI PUSH3 0x5C5 PUSH3 0x375 JUMP JUMPDEST JUMPDEST DUP2 MLOAD PUSH3 0x5D8 DUP5 DUP3 PUSH1 0x20 DUP7 ADD PUSH3 0x51B JUMP JUMPDEST SWAP2 POP POP SWAP3 SWAP2 POP POP JUMP JUMPDEST PUSH0 DUP2 SWAP1 POP SWAP2 SWAP1 POP JUMP JUMPDEST PUSH3 0x5F5 DUP2 PUSH3 0x5E1 JUMP JUMPDEST DUP2 EQ PUSH3 0x600 JUMPI PUSH0 DUP1 REVERT JUMPDEST POP JUMP JUMPDEST PUSH0 DUP2 MLOAD SWAP1 POP PUSH3 0x613 DUP2 PUSH3 0x5EA JUMP JUMPDEST SWAP3 SWAP2 POP POP JUMP JUMPDEST PUSH0 DUP1 PUSH0 PUSH1 0x60 DUP5 DUP7 SUB SLT ISZERO PUSH3 0x633 JUMPI PUSH3 0x632 PUSH3 0x36D JUMP JUMPDEST JUMPDEST PUSH0 DUP5 ADD MLOAD PUSH8 0xFFFFFFFFFFFFFFFF DUP2 GT ISZERO PUSH3 0x653 JUMPI PUSH3 0x652 PUSH3 0x371 JUMP JUMPDEST JUMPDEST PUSH3 0x661 DUP7 DUP3 DUP8 ADD PUSH3 0x5AF JUMP JUMPDEST SWAP4 POP POP PUSH1 0x20 PUSH3 0x674 DUP7 DUP3 DUP8 ADD PUSH3 0x603 JUMP JUMPDEST SWAP3 POP POP PUSH1 0x40 PUSH3 0x687 DUP7 DUP3 DUP8 ADD PUSH3 0x603 JUMP JUMPDEST SWAP2 POP POP SWAP3 POP SWAP3 POP SWAP3 JUMP JUMPDEST PUSH0 DUP3 DUP3 MSTORE PUSH1 0x20 DUP3 ADD SWAP1 POP SWAP3 SWAP2 POP POP JUMP JUMPDEST PUSH32 0x4174206C656173742074776F2063616E64696461746573000000000000000000 PUSH0 DUP3 ADD MSTORE POP JUMP JUMPDEST PUSH0 PUSH3 0x6D7 PUSH1 0x17 DUP4 PUSH3 0x691 JUMP JUMPDEST SWAP2 POP PUSH3 0x6E4 DUP3 PUSH3 0x6A1 JUMP JUMPDEST PUSH1 0x20 DUP3 ADD SWAP1 POP SWAP2 SWAP1 POP JUMP JUMPDEST PUSH0 PUSH1 0x20 DUP3 ADD SWAP1 POP DUP2 DUP2 SUB PUSH0 DUP4 ADD MSTORE PUSH3 0x708 DUP2 PUSH3 0x6C9 JUMP JUMPDEST SWAP1 POP SWAP2 SWAP1 POP JUMP JUMPDEST PUSH32 0x6D6178566F74657273203E203000000000000000000000000000000000000000 PUSH0 DUP3 ADD MSTORE POP JUMP JUMPDEST PUSH0 PUSH3 0x745 PUSH1 0xD DUP4 PUSH3 0x691 JUMP JUMPDEST SWAP2 POP PUSH3 0x752 DUP3 PUSH3 0x70F JUMP JUMPDEST PUSH1 0x20 DUP3 ADD SWAP1 POP SWAP2 SWAP1 POP JUMP JUMPDEST PUSH0 PUSH1 0x20 DUP3 ADD SWAP1 POP DUP2 DUP2 SUB PUSH0 DUP4 ADD MSTORE PUSH3 0x776 DUP2 PUSH3 0x737 JUMP JUMPDEST SWAP1 POP SWAP2 SWAP1 POP JUMP JUMPDEST PUSH32 0x6475726174696F6E203E20300000000000000000000000000000000000000000 PUSH0 DUP3 ADD MSTORE POP JUMP JUMPDEST PUSH0 PUSH3 0x7B3 PUSH1 0xC DUP4 PUSH3 0x691 JUMP JUMPDEST SWAP2 POP PUSH3 0x7C0 DUP3 PUSH3 0x77D JUMP JUMPDEST PUSH1 0x20 DUP3 ADD SWAP1 POP SWAP2 SWAP1 POP JUMP JUMPDEST PUSH0 PUSH1 0x20 DUP3 ADD SWAP1 POP DUP2 DUP2 SUB PUSH0 DUP4 ADD MSTORE PUSH3 0x7E4 DUP2 PUSH3 0x7A5 JUMP JUMPDEST SWAP1 POP SWAP2 SWAP1 POP JUMP JUMPDEST PUSH32 0x4E487B7100000000000000000000000000000000000000000000000000000000 PUSH0 MSTORE PUSH1 0x11 PUSH1 0x4 MSTORE PUSH1 0x24 PUSH0 REVERT JUMPDEST PUSH0 PUSH3 0x824 DUP3 PUSH3 0x5E1 JUMP JUMPDEST SWAP2 POP PUSH3 0x831 DUP4 PUSH3 0x5E1 JUMP JUMPDEST SWAP3 POP DUP3 DUP3 MUL PUSH3 0x841 DUP2 PUSH3 0x5E1 JUMP JUMPDEST SWAP2 POP DUP3 DUP3 DIV DUP5 EQ DUP4 ISZERO OR PUSH3 0x85B JUMPI PUSH3 0x85A PUSH3 0x7EB JUMP JUMPDEST JUMPDEST POP SWAP3 SWAP2 POP POP JUMP JUMPDEST PUSH0 PUSH3 0x86E DUP3 PUSH3 0x5E1 JUMP JUMPDEST SWAP2 POP PUSH3 0x87B DUP4 PUSH3 0x5E1 JUMP JUMPDEST SWAP3 POP DUP3 DUP3 ADD SWAP1 POP DUP1 DUP3 GT ISZERO PUSH3 0x896 JUMPI PUSH3 0x895 PUSH3 0x7EB JUMP JUMPDEST JUMPDEST SWAP3 SWAP2 POP POP JUMP JUMPDEST PUSH32 0x4E487B7100000000000000000000000000000000000000000000000000000000 PUSH0 MSTORE PUSH1 0x32 PUSH1 0x4 MSTORE PUSH1 0x24 PUSH0 REVERT JUMPDEST PUSH32 0x4475706C69636174652063616E646964617465206E616D650000000000000000 PUSH0 DUP3 ADD MSTORE POP JUMP JUMPDEST PUSH0 PUSH3 0x8FF PUSH1 0x18 DUP4 PUSH3 0x691 JUMP JUMPDEST SWAP2 POP PUSH3 0x90C DUP3 PUSH3 0x8C9 JUMP JUMPDEST PUSH1 0x20 DUP3 ADD SWAP1 POP SWAP2 SWAP1 POP JUMP JUMPDEST PUSH0 PUSH1 0x20 DUP3 ADD SWAP1 POP DUP2 DUP2 SUB PUSH0 DUP4 ADD MSTORE PUSH3 0x930 DUP2 PUSH3 0x8F1 JUMP JUMPDEST SWAP1 POP SWAP2 SWAP1 POP JUMP JUMPDEST PUSH0 PUSH3 0x943 DUP3 PUSH3 0x5E1 JUMP JUMPDEST SWAP2 POP PUSH32 0xFFFFFFFFFFFFFFFFFFFFFFFFFFFFFFFFFFFFFFFFFFFFFFFFFFFFFFFFFFFFFFFF DUP3 SUB PUSH3 0x978 JUMPI PUSH3 0x977 PUSH3 0x7EB JUMP JUMPDEST JUMPDEST PUSH1 0x1 DUP3 ADD SWAP1 POP SWAP2 SWAP1 POP JUMP JUMPDEST PUSH0 DUP2 MLOAD SWAP1 POP SWAP2 SWAP1 POP JUMP JUMPDEST PUSH32 0x4E487B7100000000000000000000000000000000000000000000000000000000 PUSH0 MSTORE PUSH1 0x22 PUSH1 0x4 MSTORE PUSH1 0x24 PUSH0 REVERT JUMPDEST PUSH0 PUSH1 0x2 DUP3 DIV SWAP1 POP PUSH1 0x1 DUP3 AND DUP1 PUSH3 0x9D2 JUMPI PUSH1 0x7F DUP3 AND SWAP2 POP JUMPDEST PUSH1 0x20 DUP3 LT DUP2 SUB PUSH3 0x9E8 JUMPI PUSH3 0x9E7 PUSH3 0x98D JUMP JUMPDEST JUMPDEST POP SWAP2 SWAP1 POP JUMP JUMPDEST PUSH0 DUP2 SWAP1 POP DUP2 PUSH0 MSTORE PUSH1 0x20 PUSH0 KECCAK256 SWAP1 POP SWAP2 SWAP1 POP JUMP JUMPDEST PUSH0 PUSH1 0x20 PUSH1 0x1F DUP4 ADD DIV SWAP1 POP SWAP2 SWAP1 POP JUMP JUMPDEST PUSH0 DUP3 DUP3 SHL SWAP1 POP SWAP3 SWAP2 POP POP JUMP JUMPDEST PUSH0 PUSH1 0x8 DUP4 MUL PUSH3 0xA4C PUSH32 0xFFFFFFFFFFFFFFFFFFFFFFFFFFFFFFFFFFFFFFFFFFFFFFFFFFFFFFFFFFFFFFFF DUP3 PUSH3 0xA0F JUMP JUMPDEST PUSH3 0xA58 DUP7 DUP4 PUSH3 0xA0F JUMP JUMPDEST SWAP6 POP DUP1 NOT DUP5 AND SWAP4 POP DUP1 DUP7 AND DUP5 OR SWAP3 POP POP POP SWAP4 SWAP3 POP POP POP JUMP JUMPDEST PUSH0 DUP2 SWAP1 POP SWAP2 SWAP1 POP JUMP JUMPDEST PUSH0 PUSH3 0xA99 PUSH3 0xA93 PUSH3 0xA8D DUP5 PUSH3 0x5E1 JUMP JUMPDEST PUSH3 0xA70 JUMP JUMPDEST PUSH3 0x5E1 JUMP JUMPDEST SWAP1 POP SWAP2 SWAP1 POP JUMP JUMPDEST PUSH0 DUP2 SWAP1 POP SWAP2 SWAP1 POP JUMP JUMPDEST PUSH3 0xAB4 DUP4 PUSH3 0xA79 JUMP JUMPDEST PUSH3 0xACC PUSH3 0xAC3 DUP3 PUSH3 0xAA0 JUMP JUMPDEST DUP5 DUP5 SLOAD PUSH3 0xA1B JUMP JUMPDEST DUP3 SSTORE POP POP POP POP JUMP JUMPDEST PUSH0 SWAP1 JUMP JUMPDEST PUSH3 0xAE2 PUSH3 0xAD4 JUMP JUMPDEST PUSH3 0xAEF DUP2 DUP5 DUP5 PUSH3 0xAA9 JUMP JUMPDEST POP POP POP JUMP JUMPDEST JUMPDEST DUP2 DUP2 LT ISZERO PUSH3 0xB16 JUMPI PUSH3 0xB0A PUSH0 DUP3 PUSH3 0xAD8 JUMP JUMPDEST PUSH1 0x1 DUP2 ADD SWAP1 POP PUSH3 0xAF5 JUMP JUMPDEST POP POP JUMP JUMPDEST PUSH1 0x1F DUP3 GT ISZERO PUSH3 0xB65 JUMPI PUSH3 0xB2F DUP2 PUSH3 0x9EE JUMP JUMPDEST PUSH3 0xB3A DUP5 PUSH3 0xA00 JUMP JUMPDEST DUP2 ADD PUSH1 0x20 DUP6 LT ISZERO PUSH3 0xB4A JUMPI DUP2 SWAP1 POP JUMPDEST PUSH3 0xB62 PUSH3 0xB59 DUP6 PUSH3 0xA00 JUMP JUMPDEST DUP4 ADD DUP3 PUSH3 0xAF4 JUMP JUMPDEST POP POP JUMPDEST POP POP POP JUMP JUMPDEST PUSH0 DUP3 DUP3 SHR SWAP1 POP SWAP3 SWAP2 POP POP JUMP JUMPDEST PUSH0 PUSH3 0xB87 PUSH0 NOT DUP5 PUSH1 0x8 MUL PUSH3 0xB6A JUMP JUMPDEST NOT DUP1 DUP4 AND SWAP2 POP POP SWAP3 SWAP2 POP POP JUMP JUMPDEST PUSH0 PUSH3 0xBA1 DUP4 DUP4 PUSH3 0xB76 JUMP JUMPDEST SWAP2 POP DUP3 PUSH1 0x2 MUL DUP3 OR SWAP1 POP SWAP3 SWAP2 POP POP JUMP JUMPDEST PUSH3 0xBBC DUP3 PUSH3 0x983 JUMP JUMPDEST PUSH8 0xFFFFFFFFFFFFFFFF DUP2 GT ISZERO PUSH3 0xBD8 JUMPI PUSH3 0xBD7 PUSH3 0x389 JUMP JUMPDEST JUMPDEST PUSH3 0xBE4 DUP3 SLOAD PUSH3 0x9BA JUMP JUMPDEST PUSH3 0xBF1 DUP3 DUP3 DUP6 PUSH3 0xB1A JUMP JUMPDEST PUSH0 PUSH1 0x20 SWAP1 POP PUSH1 0x1F DUP4 GT PUSH1 0x1 DUP2 EQ PUSH3 0xC27 JUMPI PUSH0 DUP5 ISZERO PUSH3 0xC12 JUMPI DUP3 DUP8 ADD MLOAD SWAP1 POP JUMPDEST PUSH3 0xC1E DUP6 DUP3 PUSH3 0xB94 JUMP JUMPDEST DUP7 SSTORE POP PUSH3 0xC8D JUMP JUMPDEST PUSH1 0x1F NOT DUP5 AND PUSH3 0xC37 DUP7 PUSH3 0x9EE JUMP JUMPDEST PUSH0 JUMPDEST DUP3 DUP2 LT ISZERO PUSH3 0xC60 JUMPI DUP5 DUP10 ADD MLOAD DUP3 SSTORE PUSH1 0x1 DUP3 ADD SWAP2 POP PUSH1 0x20 DUP6 ADD SWAP5 POP PUSH1 0x20 DUP2 ADD SWAP1 POP PUSH3 0xC39 JUMP JUMPDEST DUP7 DUP4 LT ISZERO PUSH3 0xC80 JUMPI DUP5 DUP10 ADD MLOAD PUSH3 0xC7C PUSH1 0x1F DUP10 AND DUP3 PUSH3 0xB76 JUMP JUMPDEST DUP4 SSTORE POP JUMPDEST PUSH1 0x1 PUSH1 0x2 DUP9 MUL ADD DUP9 SSTORE POP POP POP JUMPDEST POP POP POP POP POP POP JUMP JUMPDEST PUSH0 PUSH3 0xCA1 DUP3 PUSH3 0x983 JUMP JUMPDEST PUSH3 0xCAD DUP2 DUP6 PUSH3 0x691 JUMP JUMPDEST SWAP4 POP PUSH3 0xCBF DUP2 DUP6 PUSH1 0x20 DUP7 ADD PUSH3 0x475 JUMP JUMPDEST PUSH3 0xCCA DUP2 PUSH3 0x379 JUMP JUMPDEST DUP5 ADD SWAP2 POP POP SWAP3 SWAP2 POP POP JUMP JUMPDEST PUSH0 PUSH1 0x20 DUP3 ADD SWAP1 POP DUP2 DUP2 SUB PUSH0 DUP4 ADD MSTORE PUSH3 0xCEF DUP2 DUP5 PUSH3 0xC95 JUMP JUMPDEST SWAP1 POP SWAP3 SWAP2 POP POP JUMP JUMPDEST PUSH3 0xD02 DUP2 PUSH3 0x5E1 JUMP JUMPDEST DUP3 MSTORE POP POP JUMP JUMPDEST PUSH0 PUSH1 0x40 DUP3 ADD SWAP1 POP PUSH3 0xD1D PUSH0 DUP4 ADD DUP6 PUSH3 0xCF7 JUMP JUMPDEST PUSH3 0xD2C PUSH1 0x20 DUP4 ADD DUP5 PUSH3 0xCF7 JUMP JUMPDEST SWAP4 SWAP3 POP POP POP JUMP JUMPDEST PUSH2 0x2949 DUP1 PUSH3 0xD41 PUSH0 CODECOPY PUSH0 RETURN INVALID PUSH1 0x80 PUSH1 0x40 MSTORE CALLVALUE DUP1 ISZERO PUSH2 0xF JUMPI PUSH0 DUP1 REVERT JUMPDEST POP PUSH1 0x4 CALLDATASIZE LT PUSH2 0x114 JUMPI PUSH0 CALLDATALOAD PUSH1 0xE0 SHR DUP1 PUSH4 0x8DA5CB5B GT PUSH2 0xA0 JUMPI DUP1 PUSH4 0xA9A981A3 GT PUSH2 0x6F JUMPI DUP1 PUSH4 0xA9A981A3 EQ PUSH2 0x2BF JUMPI DUP1 PUSH4 0xC07909F4 EQ PUSH2 0x2DD JUMPI DUP1 PUSH4 0xC5980C94 EQ PUSH2 0x30E JUMPI DUP1 PUSH4 0xC94CA9E3 EQ PUSH2 0x32C JUMPI DUP1 PUSH4 0xD5E50A63 EQ PUSH2 0x34A JUMPI PUSH2 0x114 JUMP JUMPDEST DUP1 PUSH4 0x8DA5CB5B EQ PUSH2 0x241 JUMPI DUP1 PUSH4 0x8E7EA5B2 EQ PUSH2 0x25F JUMPI DUP1 PUSH4 0x906AD2A9 EQ PUSH2 0x27F JUMPI DUP1 PUSH4 0x9E136E64 EQ PUSH2 0x2A1 JUMPI PUSH2 0x114 JUMP JUMPDEST DUP1 PUSH4 0x462E91EC GT PUSH2 0xE7 JUMPI DUP1 PUSH4 0x462E91EC EQ PUSH2 0x1B3 JUMPI DUP1 PUSH4 0x4D3E0F68 EQ PUSH2 0x1CF JUMPI DUP1 PUSH4 0x59F78468 EQ PUSH2 0x1EB JUMPI DUP1 PUSH4 0x7ECEBE00 EQ PUSH2 0x1F5 JUMPI DUP1 PUSH4 0x88C10463 EQ PUSH2 0x225 JUMPI PUSH2 0x114 JUMP JUMPDEST DUP1 PUSH4 0x121B93F EQ PUSH2 0x118 JUMPI DUP1 PUSH4 0x9EEF43E EQ PUSH2 0x134 JUMPI DUP1 PUSH4 0x3477EE2E EQ PUSH2 0x164 JUMPI DUP1 PUSH4 0x42169E48 EQ PUSH2 0x195 JUMPI JUMPDEST PUSH0 DUP1 REVERT JUMPDEST PUSH2 0x132 PUSH1 0x4 DUP1 CALLDATASIZE SUB DUP2 ADD SWAP1 PUSH2 0x12D SWAP2 SWAP1 PUSH2 0x1576 JUMP JUMPDEST PUSH2 0x368 JUMP JUMPDEST STOP JUMPDEST PUSH2 0x14E PUSH1 0x4 DUP1 CALLDATASIZE SUB DUP2 ADD SWAP1 PUSH2 0x149 SWAP2 SWAP1 PUSH2 0x15FB JUMP JUMPDEST PUSH2 0x44E JUMP JUMPDEST PUSH1 0x40 MLOAD PUSH2 0x15B SWAP2 SWAP1 PUSH2 0x1640 JUMP JUMPDEST PUSH1 0x40 MLOAD DUP1 SWAP2 SUB SWAP1 RETURN JUMPDEST PUSH2 0x17E PUSH1 0x4 DUP1 CALLDATASIZE SUB DUP2 ADD SWAP1 PUSH2 0x179 SWAP2 SWAP1 PUSH2 0x1576 JUMP JUMPDEST PUSH2 0x46B JUMP JUMPDEST PUSH1 0x40 MLOAD PUSH2 0x18C SWAP3 SWAP2 SWAP1 PUSH2 0x16F2 JUMP JUMPDEST PUSH1 0x40 MLOAD DUP1 SWAP2 SUB SWAP1 RETURN JUMPDEST PUSH2 0x19D PUSH2 0x520 JUMP JUMPDEST PUSH1 0x40 MLOAD PUSH2 0x1AA SWAP2 SWAP1 PUSH2 0x1720 JUMP JUMPDEST PUSH1 0x40 MLOAD DUP1 SWAP2 SUB SWAP1 RETURN JUMPDEST PUSH2 0x1CD PUSH1 0x4 DUP1 CALLDATASIZE SUB DUP2 ADD SWAP1 PUSH2 0x1C8 SWAP2 SWAP1 PUSH2 0x1865 JUMP JUMPDEST PUSH2 0x526 JUMP JUMPDEST STOP JUMPDEST PUSH2 0x1E9 PUSH1 0x4 DUP1 CALLDATASIZE SUB DUP2 ADD SWAP1 PUSH2 0x1E4 SWAP2 SWAP1 PUSH2 0x1909 JUMP JUMPDEST PUSH2 0x730 JUMP JUMPDEST STOP JUMPDEST PUSH2 0x1F3 PUSH2 0xB2A JUMP JUMPDEST STOP JUMPDEST PUSH2 0x20F PUSH1 0x4 DUP1 CALLDATASIZE SUB DUP2 ADD SWAP1 PUSH2 0x20A SWAP2 SWAP1 PUSH2 0x15FB JUMP JUMPDEST PUSH2 0xCB5 JUMP JUMPDEST PUSH1 0x40 MLOAD PUSH2 0x21C SWAP2 SWAP1 PUSH2 0x1720 JUMP JUMPDEST PUSH1 0x40 MLOAD DUP1 SWAP2 SUB SWAP1 RETURN JUMPDEST PUSH2 0x23F PUSH1 0x4 DUP1 CALLDATASIZE SUB DUP2 ADD SWAP1 PUSH2 0x23A SWAP2 SWAP1 PUSH2 0x1865 JUMP JUMPDEST PUSH2 0xCCA JUMP JUMPDEST STOP JUMPDEST PUSH2 0x249 PUSH2 0xE01 JUMP JUMPDEST PUSH1 0x40 MLOAD PUSH2 0x256 SWAP2 SWAP1 PUSH2 0x199C JUMP JUMPDEST PUSH1 0x40 MLOAD DUP1 SWAP2 SUB SWAP1 RETURN JUMPDEST PUSH2 0x267 PUSH2 0xE24 JUMP JUMPDEST PUSH1 0x40 MLOAD PUSH2 0x276 SWAP4 SWAP3 SWAP2 SWAP1 PUSH2 0x19B5 JUMP JUMPDEST PUSH1 0x40 MLOAD DUP1 SWAP2 SUB SWAP1 RETURN JUMPDEST PUSH2 0x287 PUSH2 0x101C JUMP JUMPDEST PUSH1 0x40 MLOAD PUSH2 0x298 SWAP6 SWAP5 SWAP4 SWAP3 SWAP2 SWAP1 PUSH2 0x19F1 JUMP JUMPDEST PUSH1 0x40 MLOAD DUP1 SWAP2 SUB SWAP1 RETURN JUMPDEST PUSH2 0x2A9 PUSH2 0x10A4 JUMP JUMPDEST PUSH1 0x40 MLOAD PUSH2 0x2B6 SWAP2 SWAP1 PUSH2 0x1720 JUMP JUMPDEST PUSH1 0x40 MLOAD DUP1 SWAP2 SUB SWAP1 RETURN JUMPDEST PUSH2 0x2C7 PUSH2 0x10AA JUMP JUMPDEST PUSH1 0x40 MLOAD PUSH2 0x2D4 SWAP2 SWAP1 PUSH2 0x1720 JUMP JUMPDEST PUSH1 0x40 MLOAD DUP1 SWAP2 SUB SWAP1 RETURN JUMPDEST PUSH2 0x2F7 PUSH1 0x4 DUP1 CALLDATASIZE SUB DUP2 ADD SWAP1 PUSH2 0x2F2 SWAP2 SWAP1 PUSH2 0x1865 JUMP JUMPDEST PUSH2 0x10B6 JUMP JUMPDEST PUSH1 0x40 MLOAD PUSH2 0x305 SWAP3 SWAP2 SWAP1 PUSH2 0x1A42 JUMP JUMPDEST PUSH1 0x40 MLOAD DUP1 SWAP2 SUB SWAP1 RETURN JUMPDEST PUSH2 0x316 PUSH2 0x113E JUMP JUMPDEST PUSH1 0x40 MLOAD PUSH2 0x323 SWAP2 SWAP1 PUSH2 0x1720 JUMP JUMPDEST PUSH1 0x40 MLOAD DUP1 SWAP2 SUB SWAP1 RETURN JUMPDEST PUSH2 0x334 PUSH2 0x1144 JUMP JUMPDEST PUSH1 0x40 MLOAD PUSH2 0x341 SWAP2 SWAP1 PUSH2 0x1640 JUMP JUMPDEST PUSH1 0x40 MLOAD DUP1 SWAP2 SUB SWAP1 RETURN JUMPDEST PUSH2 0x352 PUSH2 0x1156 JUMP JUMPDEST PUSH1 0x40 MLOAD PUSH2 0x35F SWAP2 SWAP1 PUSH2 0x1720 JUMP JUMPDEST PUSH1 0x40 MLOAD DUP1 SWAP2 SUB SWAP1 RETURN JUMPDEST PUSH1 0x8 PUSH0 SWAP1 SLOAD SWAP1 PUSH2 0x100 EXP SWAP1 DIV PUSH1 0xFF AND ISZERO PUSH2 0x3B7 JUMPI PUSH1 0x40 MLOAD PUSH32 0x8C379A000000000000000000000000000000000000000000000000000000000 DUP2 MSTORE PUSH1 0x4 ADD PUSH2 0x3AE SWAP1 PUSH2 0x1AB3 JUMP JUMPDEST PUSH1 0x40 MLOAD DUP1 SWAP2 SUB SWAP1 REVERT JUMPDEST PUSH1 0x6 SLOAD TIMESTAMP LT ISZERO PUSH2 0x3FC JUMPI PUSH1 0x40 MLOAD PUSH32 0x8C379A000000000000000000000000000000000000000000000000000000000 DUP2 MSTORE PUSH1 0x4 ADD PUSH2 0x3F3 SWAP1 PUSH2 0x1B1B JUMP JUMPDEST PUSH1 0x40 MLOAD DUP1 SWAP2 SUB SWAP1 REVERT JUMPDEST PUSH1 0x7 SLOAD TIMESTAMP GT ISZERO PUSH2 0x441 JUMPI PUSH1 0x40 MLOAD PUSH32 0x8C379A000000000000000000000000000000000000000000000000000000000 DUP2 MSTORE PUSH1 0x4 ADD PUSH2 0x438 SWAP1 PUSH2 0x1B83 JUMP JUMPDEST PUSH1 0x40 MLOAD DUP1 SWAP2 SUB SWAP1 REVERT JUMPDEST PUSH2 0x44B DUP2 CALLER PUSH2 0x115C JUMP JUMPDEST POP JUMP JUMPDEST PUSH1 0x2 PUSH1 0x20 MSTORE DUP1 PUSH0 MSTORE PUSH1 0x40 PUSH0 KECCAK256 PUSH0 SWAP2 POP SLOAD SWAP1 PUSH2 0x100 EXP SWAP1 DIV PUSH1 0xFF AND DUP2 JUMP JUMPDEST PUSH1 0x1 DUP2 DUP2 SLOAD DUP2 LT PUSH2 0x47A JUMPI PUSH0 DUP1 REVERT JUMPDEST SWAP1 PUSH0 MSTORE PUSH1 0x20 PUSH0 KECCAK256 SWAP1 PUSH1 0x2 MUL ADD PUSH0 SWAP2 POP SWAP1 POP DUP1 PUSH0 ADD DUP1 SLOAD PUSH2 0x499 SWAP1 PUSH2 0x1BCE JUMP JUMPDEST DUP1 PUSH1 0x1F ADD PUSH1 0x20 DUP1 SWAP2 DIV MUL PUSH1 0x20 ADD PUSH1 0x40 MLOAD SWAP1 DUP2 ADD PUSH1 0x40 MSTORE DUP1 SWAP3 SWAP2 SWAP1 DUP2 DUP2 MSTORE PUSH1 0x20 ADD DUP3 DUP1 SLOAD PUSH2 0x4C5 SWAP1 PUSH2 0x1BCE JUMP JUMPDEST DUP1 ISZERO PUSH2 0x510 JUMPI DUP1 PUSH1 0x1F LT PUSH2 0x4E7 JUMPI PUSH2 0x100 DUP1 DUP4 SLOAD DIV MUL DUP4 MSTORE SWAP2 PUSH1 0x20 ADD SWAP2 PUSH2 0x510 JUMP JUMPDEST DUP3 ADD SWAP2 SWAP1 PUSH0 MSTORE PUSH1 0x20 PUSH0 KECCAK256 SWAP1 JUMPDEST DUP2 SLOAD DUP2 MSTORE SWAP1 PUSH1 0x1 ADD SWAP1 PUSH1 0x20 ADD DUP1 DUP4 GT PUSH2 0x4F3 JUMPI DUP3 SWAP1 SUB PUSH1 0x1F AND DUP3 ADD SWAP2 JUMPDEST POP POP POP POP POP SWAP1 DUP1 PUSH1 0x1 ADD SLOAD SWAP1 POP DUP3 JUMP JUMPDEST PUSH1 0x4 SLOAD DUP2 JUMP JUMPDEST PUSH0 DUP1 SLOAD SWAP1 PUSH2 0x100 EXP SWAP1 DIV PUSH20 0xFFFFFFFFFFFFFFFFFFFFFFFFFFFFFFFFFFFFFFFF AND PUSH20 0xFFFFFFFFFFFFFFFFFFFFFFFFFFFFFFFFFFFFFFFF AND CALLER PUSH20 0xFFFFFFFFFFFFFFFFFFFFFFFFFFFFFFFFFFFFFFFF AND EQ PUSH2 0x5B3 JUMPI PUSH1 0x40 MLOAD PUSH32 0x8C379A000000000000000000000000000000000000000000000000000000000 DUP2 MSTORE PUSH1 0x4 ADD PUSH2 0x5AA SWAP1 PUSH2 0x1C48 JUMP JUMPDEST PUSH1 0x40 MLOAD DUP1 SWAP2 SUB SWAP1 REVERT JUMPDEST PUSH1 0x6 SLOAD TIMESTAMP LT PUSH2 0x5F7 JUMPI PUSH1 0x40 MLOAD PUSH32 0x8C379A000000000000000000000000000000000000000000000000000000000 DUP2 MSTORE PUSH1 0x4 ADD PUSH2 0x5EE SWAP1 PUSH2 0x1CD6 JUMP JUMPDEST PUSH1 0x40 MLOAD DUP1 SWAP2 SUB SWAP1 REVERT JUMPDEST PUSH0 JUMPDEST PUSH1 0x1 DUP1 SLOAD SWAP1 POP DUP2 LT ISZERO PUSH2 0x698 JUMPI DUP2 DUP1 MLOAD SWAP1 PUSH1 0x20 ADD KECCAK256 PUSH1 0x1 DUP3 DUP2 SLOAD DUP2 LT PUSH2 0x622 JUMPI PUSH2 0x621 PUSH2 0x1CF4 JUMP JUMPDEST JUMPDEST SWAP1 PUSH0 MSTORE PUSH1 0x20 PUSH0 KECCAK256 SWAP1 PUSH1 0x2 MUL ADD PUSH0 ADD PUSH1 0x40 MLOAD PUSH2 0x63D SWAP2 SWAP1 PUSH2 0x1DBD JUMP JUMPDEST PUSH1 0x40 MLOAD DUP1 SWAP2 SUB SWAP1 KECCAK256 SUB PUSH2 0x685 JUMPI PUSH1 0x40 MLOAD PUSH32 0x8C379A000000000000000000000000000000000000000000000000000000000 DUP2 MSTORE PUSH1 0x4 ADD PUSH2 0x67C SWAP1 PUSH2 0x1E1D JUMP JUMPDEST PUSH1 0x40 MLOAD DUP1 SWAP2 SUB SWAP1 REVERT JUMPDEST DUP1 DUP1 PUSH2 0x690 SWAP1 PUSH2 0x1E68 JUMP JUMPDEST SWAP2 POP POP PUSH2 0x5F9 JUMP JUMPDEST POP PUSH1 0x1 PUSH1 0x40 MLOAD DUP1 PUSH1 0x40 ADD PUSH1 0x40 MSTORE DUP1 DUP4 DUP2 MSTORE PUSH1 0x20 ADD PUSH0 DUP2 MSTORE POP SWAP1 DUP1 PUSH1 0x1 DUP2 SLOAD ADD DUP1 DUP3 SSTORE DUP1 SWAP2 POP POP PUSH1 0x1 SWAP1 SUB SWAP1 PUSH0 MSTORE PUSH1 0x20 PUSH0 KECCAK256 SWAP1 PUSH1 0x2 MUL ADD PUSH0 SWAP1 SWAP2 SWAP1 SWAP2 SWAP1 SWAP2 POP PUSH0 DUP3 ADD MLOAD DUP2 PUSH0 ADD SWAP1 DUP2 PUSH2 0x6E9 SWAP2 SWAP1 PUSH2 0x204C JUMP JUMPDEST POP PUSH1 0x20 DUP3 ADD MLOAD DUP2 PUSH1 0x1 ADD SSTORE POP POP PUSH32 0xF29562DAD1599AEA0EBB142466120AAB326D5EFA8F839DF82A9C064BF78E8938 DUP2 PUSH1 0x40 MLOAD PUSH2 0x725 SWAP2 SWAP1 PUSH2 0x211B JUMP JUMPDEST PUSH1 0x40 MLOAD DUP1 SWAP2 SUB SWAP1 LOG1 POP JUMP JUMPDEST PUSH1 0x8 PUSH0 SWAP1 SLOAD SWAP1 PUSH2 0x100 EXP SWAP1 DIV PUSH1 0xFF AND ISZERO PUSH2 0x77F JUMPI PUSH1 0x40 MLOAD PUSH32 0x8C379A000000000000000000000000000000000000000000000000000000000 DUP2 MSTORE PUSH1 0x4 ADD PUSH2 0x776 SWAP1 PUSH2 0x1AB3 JUMP JUMPDEST PUSH1 0x40 MLOAD DUP1 SWAP2 SUB SWAP1 REVERT JUMPDEST PUSH1 0x6 SLOAD TIMESTAMP LT ISZERO PUSH2 0x7C4 JUMPI PUSH1 0x40 MLOAD PUSH32 0x8C379A000000000000000000000000000000000000000000000000000000000 DUP2 MSTORE PUSH1 0x4 ADD PUSH2 0x7BB SWAP1 PUSH2 0x1B1B JUMP JUMPDEST PUSH1 0x40 MLOAD DUP1 SWAP2 SUB SWAP1 REVERT JUMPDEST PUSH1 0x7 SLOAD TIMESTAMP GT ISZERO PUSH2 0x809 JUMPI PUSH1 0x40 MLOAD PUSH32 0x8C379A000000000000000000000000000000000000000000000000000000000 DUP2 MSTORE PUSH1 0x4 ADD PUSH2 0x800 SWAP1 PUSH2 0x1B83 JUMP JUMPDEST PUSH1 0x40 MLOAD DUP1 SWAP2 SUB SWAP1 REVERT JUMPDEST PUSH1 0x1 DUP1 SLOAD SWAP1 POP DUP6 LT PUSH2 0x850 JUMPI PUSH1 0x40 MLOAD PUSH32 0x8C379A000000000000000000000000000000000000000000000000000000000 DUP2 MSTORE PUSH1 0x4 ADD PUSH2 0x847 SWAP1 PUSH2 0x2185 JUMP JUMPDEST PUSH1 0x40 MLOAD DUP1 SWAP2 SUB SWAP1 REVERT JUMPDEST PUSH1 0x2 PUSH0 DUP6 PUSH20 0xFFFFFFFFFFFFFFFFFFFFFFFFFFFFFFFFFFFFFFFF AND PUSH20 0xFFFFFFFFFFFFFFFFFFFFFFFFFFFFFFFFFFFFFFFF AND DUP2 MSTORE PUSH1 0x20 ADD SWAP1 DUP2 MSTORE PUSH1 0x20 ADD PUSH0 KECCAK256 PUSH0 SWAP1 SLOAD SWAP1 PUSH2 0x100 EXP SWAP1 DIV PUSH1 0xFF AND ISZERO PUSH2 0x8DA JUMPI PUSH1 0x40 MLOAD PUSH32 0x8C379A000000000000000000000000000000000000000000000000000000000 DUP2 MSTORE PUSH1 0x4 ADD PUSH2 0x8D1 SWAP1 PUSH2 0x21ED JUMP JUMPDEST PUSH1 0x40 MLOAD DUP1 SWAP2 SUB SWAP1 REVERT JUMPDEST PUSH1 0x5 SLOAD PUSH1 0x4 SLOAD LT PUSH2 0x920 JUMPI PUSH1 0x40 MLOAD PUSH32 0x8C379A000000000000000000000000000000000000000000000000000000000 DUP2 MSTORE PUSH1 0x4 ADD PUSH2 0x917 SWAP1 PUSH2 0x2255 JUMP JUMPDEST PUSH1 0x40 MLOAD DUP1 SWAP2 SUB SWAP1 REVERT JUMPDEST DUP3 PUSH1 0x3 PUSH0 DUP7 PUSH20 0xFFFFFFFFFFFFFFFFFFFFFFFFFFFFFFFFFFFFFFFF AND PUSH20 0xFFFFFFFFFFFFFFFFFFFFFFFFFFFFFFFFFFFFFFFF AND DUP2 MSTORE PUSH1 0x20 ADD SWAP1 DUP2 MSTORE PUSH1 0x20 ADD PUSH0 KECCAK256 SLOAD EQ PUSH2 0x99F JUMPI PUSH1 0x40 MLOAD PUSH32 0x8C379A000000000000000000000000000000000000000000000000000000000 DUP2 MSTORE PUSH1 0x4 ADD PUSH2 0x996 SWAP1 PUSH2 0x22BD JUMP JUMPDEST PUSH1 0x40 MLOAD DUP1 SWAP2 SUB SWAP1 REVERT JUMPDEST PUSH0 PUSH2 0x9D5 ADDRESS DUP7 DUP9 DUP8 PUSH1 0x40 MLOAD PUSH1 0x20 ADD PUSH2 0x9BA SWAP5 SWAP4 SWAP3 SWAP2 SWAP1 PUSH2 0x2340 JUMP JUMPDEST PUSH1 0x40 MLOAD PUSH1 0x20 DUP2 DUP4 SUB SUB DUP2 MSTORE SWAP1 PUSH1 0x40 MSTORE DUP1 MLOAD SWAP1 PUSH1 0x20 ADD KECCAK256 PUSH2 0x136A JUMP JUMPDEST SWAP1 POP PUSH0 PUSH2 0xA25 DUP3 DUP6 DUP6 DUP1 DUP1 PUSH1 0x1F ADD PUSH1 0x20 DUP1 SWAP2 DIV MUL PUSH1 0x20 ADD PUSH1 0x40 MLOAD SWAP1 DUP2 ADD PUSH1 0x40 MSTORE DUP1 SWAP4 SWAP3 SWAP2 SWAP1 DUP2 DUP2 MSTORE PUSH1 0x20 ADD DUP4 DUP4 DUP1 DUP3 DUP5 CALLDATACOPY PUSH0 DUP2 DUP5 ADD MSTORE PUSH1 0x1F NOT PUSH1 0x1F DUP3 ADD AND SWAP1 POP DUP1 DUP4 ADD SWAP3 POP POP POP POP POP POP POP PUSH2 0x1399 JUMP JUMPDEST SWAP1 POP DUP6 PUSH20 0xFFFFFFFFFFFFFFFFFFFFFFFFFFFFFFFFFFFFFFFF AND DUP2 PUSH20 0xFFFFFFFFFFFFFFFFFFFFFFFFFFFFFFFFFFFFFFFF AND EQ PUSH2 0xA95 JUMPI PUSH1 0x40 MLOAD PUSH32 0x8C379A000000000000000000000000000000000000000000000000000000000 DUP2 MSTORE PUSH1 0x4 ADD PUSH2 0xA8C SWAP1 PUSH2 0x23D7 JUMP JUMPDEST PUSH1 0x40 MLOAD DUP1 SWAP2 SUB SWAP1 REVERT JUMPDEST PUSH1 0x1 PUSH1 0x3 PUSH0 DUP9 PUSH20 0xFFFFFFFFFFFFFFFFFFFFFFFFFFFFFFFFFFFFFFFF AND PUSH20 0xFFFFFFFFFFFFFFFFFFFFFFFFFFFFFFFFFFFFFFFF AND DUP2 MSTORE PUSH1 0x20 ADD SWAP1 DUP2 MSTORE PUSH1 0x20 ADD PUSH0 KECCAK256 SLOAD ADD PUSH1 0x3 PUSH0 DUP9 PUSH20 0xFFFFFFFFFFFFFFFFFFFFFFFFFFFFFFFFFFFFFFFF AND PUSH20 0xFFFFFFFFFFFFFFFFFFFFFFFFFFFFFFFFFFFFFFFF AND DUP2 MSTORE PUSH1 0x20 ADD SWAP1 DUP2 MSTORE PUSH1 0x20 ADD PUSH0 KECCAK256 DUP2 SWAP1 SSTORE POP PUSH2 0xB21 DUP8 DUP8 PUSH2 0x115C JUMP JUMPDEST POP POP POP POP POP POP POP JUMP JUMPDEST PUSH0 DUP1 SLOAD SWAP1 PUSH2 0x100 EXP SWAP1 DIV PUSH20 0xFFFFFFFFFFFFFFFFFFFFFFFFFFFFFFFFFFFFFFFF AND PUSH20 0xFFFFFFFFFFFFFFFFFFFFFFFFFFFFFFFFFFFFFFFF AND CALLER PUSH20 0xFFFFFFFFFFFFFFFFFFFFFFFFFFFFFFFFFFFFFFFF AND EQ PUSH2 0xBB7 JUMPI PUSH1 0x40 MLOAD PUSH32 0x8C379A000000000000000000000000000000000000000000000000000000000 DUP2 MSTORE PUSH1 0x4 ADD PUSH2 0xBAE SWAP1 PUSH2 0x1C48 JUMP JUMPDEST PUSH1 0x40 MLOAD DUP1 SWAP2 SUB SWAP1 REVERT JUMPDEST PUSH1 0x8 PUSH0 SWAP1 SLOAD SWAP1 PUSH2 0x100 EXP SWAP1 DIV PUSH1 0xFF AND ISZERO PUSH2 0xC06 JUMPI PUSH1 0x40 MLOAD PUSH32 0x8C379A000000000000000000000000000000000000000000000000000000000 DUP2 MSTORE PUSH1 0x4 ADD PUSH2 0xBFD SWAP1 PUSH2 0x243F JUMP JUMPDEST PUSH1 0x40 MLOAD DUP1 SWAP2 SUB SWAP1 REVERT JUMPDEST PUSH1 0x7 SLOAD TIMESTAMP LT ISZERO PUSH2 0xC4B JUMPI PUSH1 0x40 MLOAD PUSH32 0x8C379A000000000000000000000000000000000000000000000000000000000 DUP2 MSTORE PUSH1 0x4 ADD PUSH2 0xC42 SWAP1 PUSH2 0x24A7 JUMP JUMPDEST PUSH1 0x40 MLOAD DUP1 SWAP2 SUB SWAP1 REVERT JUMPDEST PUSH1 0x1 PUSH1 0x8 PUSH0 PUSH2 0x100 EXP DUP2 SLOAD DUP2 PUSH1 0xFF MUL NOT AND SWAP1 DUP4 ISZERO ISZERO MUL OR SWAP1 SSTORE POP CALLER PUSH20 0xFFFFFFFFFFFFFFFFFFFFFFFFFFFFFFFFFFFFFFFF AND PUSH32 0x82E7C3995E0A57D5E4F59CB69206614ABD00F1631BF411D4ED70400042154011 TIMESTAMP PUSH1 0x40 MLOAD PUSH2 0xCAB SWAP2 SWAP1 PUSH2 0x1720 JUMP JUMPDEST PUSH1 0x40 MLOAD DUP1 SWAP2 SUB SWAP1 LOG2 JUMP JUMPDEST PUSH1 0x3 PUSH1 0x20 MSTORE DUP1 PUSH0 MSTORE PUSH1 0x40 PUSH0 KECCAK256 PUSH0 SWAP2 POP SWAP1 POP SLOAD DUP2 JUMP JUMPDEST PUSH1 0x8 PUSH0 SWAP1 SLOAD SWAP1 PUSH2 0x100 EXP SWAP1 DIV PUSH1 0xFF AND ISZERO PUSH2 0xD19 JUMPI PUSH1 0x40 MLOAD PUSH32 0x8C379A000000000000000000000000000000000000000000000000000000000 DUP2 MSTORE PUSH1 0x4 ADD PUSH2 0xD10 SWAP1 PUSH2 0x1AB3 JUMP JUMPDEST PUSH1 0x40 MLOAD DUP1 SWAP2 SUB SWAP1 REVERT JUMPDEST PUSH1 0x6 SLOAD TIMESTAMP LT ISZERO PUSH2 0xD5E JUMPI PUSH1 0x40 MLOAD PUSH32 0x8C379A000000000000000000000000000000000000000000000000000000000 DUP2 MSTORE PUSH1 0x4 ADD PUSH2 0xD55 SWAP1 PUSH2 0x1B1B JUMP JUMPDEST PUSH1 0x40 MLOAD DUP1 SWAP2 SUB SWAP1 REVERT JUMPDEST PUSH1 0x7 SLOAD TIMESTAMP GT ISZERO PUSH2 0xDA3 JUMPI PUSH1 0x40 MLOAD PUSH32 0x8C379A000000000000000000000000000000000000000000000000000000000 DUP2 MSTORE PUSH1 0x4 ADD PUSH2 0xD9A SWAP1 PUSH2 0x1B83 JUMP JUMPDEST PUSH1 0x40 MLOAD DUP1 SWAP2 SUB SWAP1 REVERT JUMPDEST PUSH0 DUP1 PUSH2 0xDAE DUP4 PUSH2 0x10B6 JUMP JUMPDEST SWAP2 POP SWAP2 POP DUP1 PUSH2 0xDF2 JUMPI PUSH1 0x40 MLOAD PUSH32 0x8C379A000000000000000000000000000000000000000000000000000000000 DUP2 MSTORE PUSH1 0x4 ADD PUSH2 0xDE9 SWAP1 PUSH2 0x250F JUMP JUMPDEST PUSH1 0x40 MLOAD DUP1 SWAP2 SUB SWAP1 REVERT JUMPDEST PUSH2 0xDFC DUP3 CALLER PUSH2 0x115C JUMP JUMPDEST POP POP POP JUMP JUMPDEST PUSH0 DUP1 SLOAD SWAP1 PUSH2 0x100 EXP SWAP1 DIV PUSH20 0xFFFFFFFFFFFFFFFFFFFFFFFFFFFFFFFFFFFFFFFF AND DUP2 JUMP JUMPDEST PUSH1 0x60 PUSH0 DUP1 PUSH1 0x8 PUSH0 SWAP1 SLOAD SWAP1 PUSH2 0x100 EXP SWAP1 DIV PUSH1 0xFF AND DUP1 PUSH2 0xE43 JUMPI POP PUSH1 0x7 SLOAD TIMESTAMP GT JUMPDEST PUSH2 0xE82 JUMPI PUSH1 0x40 MLOAD PUSH32 0x8C379A000000000000000000000000000000000000000000000000000000000 DUP2 MSTORE PUSH1 0x4 ADD PUSH2 0xE79 SWAP1 PUSH2 0x2577 JUMP JUMPDEST PUSH1 0x40 MLOAD DUP1 SWAP2 SUB SWAP1 REVERT JUMPDEST PUSH0 PUSH1 0x1 DUP1 SLOAD SWAP1 POP SUB PUSH2 0xEAC JUMPI PUSH0 DUP1 PUSH1 0x40 MLOAD DUP1 PUSH1 0x20 ADD PUSH1 0x40 MSTORE DUP1 PUSH0 DUP2 MSTORE POP SWAP2 SWAP1 SWAP3 POP SWAP3 POP SWAP3 POP PUSH2 0x1017 JUMP JUMPDEST PUSH0 DUP1 PUSH0 DUP1 JUMPDEST PUSH1 0x1 DUP1 SLOAD SWAP1 POP DUP2 LT ISZERO PUSH2 0xF33 JUMPI PUSH0 PUSH1 0x1 DUP3 DUP2 SLOAD DUP2 LT PUSH2 0xED3 JUMPI PUSH2 0xED2 PUSH2 0x1CF4 JUMP JUMPDEST JUMPDEST SWAP1 PUSH0 MSTORE PUSH1 0x20 PUSH0 KECCAK256 SWAP1 PUSH1 0x2 MUL ADD PUSH1 0x1 ADD SLOAD SWAP1 POP DUP5 DUP2 GT ISZERO PUSH2 0xEFC JUMPI DUP1 SWAP5 POP PUSH1 0x1 SWAP4 POP DUP2 SWAP3 POP PUSH2 0xF1F JUMP JUMPDEST DUP5 DUP2 EQ DUP1 ISZERO PUSH2 0xF0A JUMPI POP PUSH0 DUP2 GT JUMPDEST ISZERO PUSH2 0xF1E JUMPI DUP4 DUP1 PUSH2 0xF1A SWAP1 PUSH2 0x1E68 JUMP JUMPDEST SWAP5 POP POP JUMPDEST JUMPDEST POP DUP1 DUP1 PUSH2 0xF2B SWAP1 PUSH2 0x1E68 JUMP JUMPDEST SWAP2 POP POP PUSH2 0xEB1 JUMP JUMPDEST POP PUSH0 DUP4 SUB PUSH2 0xF5C JUMPI PUSH0 DUP1 PUSH1 0x40 MLOAD DUP1 PUSH1 0x20 ADD PUSH1 0x40 MSTORE DUP1 PUSH0 DUP2 MSTORE POP SWAP2 SWAP1 SWAP6 POP SWAP6 POP SWAP6 POP POP POP POP PUSH2 0x1017 JUMP JUMPDEST PUSH1 0x1 DUP2 DUP2 SLOAD DUP2 LT PUSH2 0xF70 JUMPI PUSH2 0xF6F PUSH2 0x1CF4 JUMP JUMPDEST JUMPDEST SWAP1 PUSH0 MSTORE PUSH1 0x20 PUSH0 KECCAK256 SWAP1 PUSH1 0x2 MUL ADD PUSH0 ADD DUP4 PUSH1 0x1 DUP5 GT DUP3 DUP1 SLOAD PUSH2 0xF8F SWAP1 PUSH2 0x1BCE JUMP JUMPDEST DUP1 PUSH1 0x1F ADD PUSH1 0x20 DUP1 SWAP2 DIV MUL PUSH1 0x20 ADD PUSH1 0x40 MLOAD SWAP1 DUP2 ADD PUSH1 0x40 MSTORE DUP1 SWAP3 SWAP2 SWAP1 DUP2 DUP2 MSTORE PUSH1 0x20 ADD DUP3 DUP1 SLOAD PUSH2 0xFBB SWAP1 PUSH2 0x1BCE JUMP JUMPDEST DUP1 ISZERO PUSH2 0x1006 JUMPI DUP1 PUSH1 0x1F LT PUSH2 0xFDD JUMPI PUSH2 0x100 DUP1 DUP4 SLOAD DIV MUL DUP4 MSTORE SWAP2 PUSH1 0x20 ADD SWAP2 PUSH2 0x1006 JUMP JUMPDEST DUP3 ADD SWAP2 SWAP1 PUSH0 MSTORE PUSH1 0x20 PUSH0 KECCAK256 SWAP1 JUMPDEST DUP2 SLOAD DUP2 MSTORE SWAP1 PUSH1 0x1 ADD SWAP1 PUSH1 0x20 ADD DUP1 DUP4 GT PUSH2 0xFE9 JUMPI DUP3 SWAP1 SUB PUSH1 0x1F AND DUP3 ADD SWAP2 JUMPDEST POP POP POP POP POP SWAP3 POP SWAP6 POP SWAP6 POP SWAP6 POP POP POP POP JUMPDEST SWAP1 SWAP2 SWAP3 JUMP JUMPDEST PUSH0 DUP1 PUSH0 DUP1 PUSH0 PUSH1 0x4 SLOAD SWAP5 POP PUSH1 0x5 SLOAD SWAP4 POP PUSH1 0x4 SLOAD PUSH1 0x5 SLOAD GT PUSH2 0x103C JUMPI PUSH0 PUSH2 0x104D JUMP JUMPDEST PUSH1 0x4 SLOAD PUSH1 0x5 SLOAD PUSH2 0x104C SWAP2 SWAP1 PUSH2 0x2595 JUMP JUMPDEST JUMPDEST SWAP3 POP PUSH1 0x8 PUSH0 SWAP1 SLOAD SWAP1 PUSH2 0x100 EXP SWAP1 DIV PUSH1 0xFF AND ISZERO DUP1 ISZERO PUSH2 0x106D JUMPI POP PUSH1 0x6 SLOAD TIMESTAMP LT ISZERO JUMPDEST DUP1 ISZERO PUSH2 0x107B JUMPI POP PUSH1 0x7 SLOAD TIMESTAMP GT ISZERO JUMPDEST SWAP2 POP PUSH1 0x7 SLOAD TIMESTAMP LT PUSH2 0x108C JUMPI PUSH0 PUSH2 0x109B JUMP JUMPDEST TIMESTAMP PUSH1 0x7 SLOAD PUSH2 0x109A SWAP2 SWAP1 PUSH2 0x2595 JUMP JUMPDEST JUMPDEST SWAP1 POP SWAP1 SWAP2 SWAP3 SWAP4 SWAP5 JUMP JUMPDEST PUSH1 0x7 SLOAD DUP2 JUMP JUMPDEST PUSH0 PUSH1 0x1 DUP1 SLOAD SWAP1 POP SWAP1 POP SWAP1 JUMP JUMPDEST PUSH0 DUP1 PUSH0 DUP4 DUP1 MLOAD SWAP1 PUSH1 0x20 ADD KECCAK256 SWAP1 POP PUSH0 JUMPDEST PUSH1 0x1 DUP1 SLOAD SWAP1 POP DUP2 LT ISZERO PUSH2 0x1130 JUMPI DUP2 PUSH1 0x1 DUP3 DUP2 SLOAD DUP2 LT PUSH2 0x10E7 JUMPI PUSH2 0x10E6 PUSH2 0x1CF4 JUMP JUMPDEST JUMPDEST SWAP1 PUSH0 MSTORE PUSH1 0x20 PUSH0 KECCAK256 SWAP1 PUSH1 0x2 MUL ADD PUSH0 ADD PUSH1 0x40 MLOAD PUSH2 0x1102 SWAP2 SWAP1 PUSH2 0x1DBD JUMP JUMPDEST PUSH1 0x40 MLOAD DUP1 SWAP2 SUB SWAP1 KECCAK256 SUB PUSH2 0x111D JUMPI DUP1 PUSH1 0x1 SWAP4 POP SWAP4 POP POP POP PUSH2 0x1139 JUMP JUMPDEST DUP1 DUP1 PUSH2 0x1128 SWAP1 PUSH2 0x1E68 JUMP JUMPDEST SWAP2 POP POP PUSH2 0x10C5 JUMP JUMPDEST POP PUSH0 DUP1 SWAP3 POP SWAP3 POP POP JUMPDEST SWAP2 POP SWAP2 JUMP JUMPDEST PUSH1 0x6 SLOAD DUP2 JUMP JUMPDEST PUSH1 0x8 PUSH0 SWAP1 SLOAD SWAP1 PUSH2 0x100 EXP SWAP1 DIV PUSH1 0xFF AND DUP2 JUMP JUMPDEST PUSH1 0x5 SLOAD DUP2 JUMP JUMPDEST PUSH1 0x2 PUSH0 DUP3 PUSH20 0xFFFFFFFFFFFFFFFFFFFFFFFFFFFFFFFFFFFFFFFF AND PUSH20 0xFFFFFFFFFFFFFFFFFFFFFFFFFFFFFFFFFFFFFFFF AND DUP2 MSTORE PUSH1 0x20 ADD SWAP1 DUP2 MSTORE PUSH1 0x20 ADD PUSH0 KECCAK256 PUSH0 SWAP1 SLOAD SWAP1 PUSH2 0x100 EXP SWAP1 DIV PUSH1 0xFF AND ISZERO PUSH2 0x11E6 JUMPI PUSH1 0x40 MLOAD PUSH32 0x8C379A000000000000000000000000000000000000000000000000000000000 DUP2 MSTORE PUSH1 0x4 ADD PUSH2 0x11DD SWAP1 PUSH2 0x2612 JUMP JUMPDEST PUSH1 0x40 MLOAD DUP1 SWAP2 SUB SWAP1 REVERT JUMPDEST PUSH1 0x1 DUP1 SLOAD SWAP1 POP DUP3 LT PUSH2 0x122D JUMPI PUSH1 0x40 MLOAD PUSH32 0x8C379A000000000000000000000000000000000000000000000000000000000 DUP2 MSTORE PUSH1 0x4 ADD PUSH2 0x1224 SWAP1 PUSH2 0x267A JUMP JUMPDEST PUSH1 0x40 MLOAD DUP1 SWAP2 SUB SWAP1 REVERT JUMPDEST PUSH1 0x5 SLOAD PUSH1 0x4 SLOAD LT PUSH2 0x1273 JUMPI PUSH1 0x40 MLOAD PUSH32 0x8C379A000000000000000000000000000000000000000000000000000000000 DUP2 MSTORE PUSH1 0x4 ADD PUSH2 0x126A SWAP1 PUSH2 0x2255 JUMP JUMPDEST PUSH1 0x40 MLOAD DUP1 SWAP2 SUB SWAP1 REVERT JUMPDEST PUSH1 0x1 PUSH1 0x2 PUSH0 DUP4 PUSH20 0xFFFFFFFFFFFFFFFFFFFFFFFFFFFFFFFFFFFFFFFF AND PUSH20 0xFFFFFFFFFFFFFFFFFFFFFFFFFFFFFFFFFFFFFFFF AND DUP2 MSTORE PUSH1 0x20 ADD SWAP1 DUP2 MSTORE PUSH1 0x20 ADD PUSH0 KECCAK256 PUSH0 PUSH2 0x100 EXP DUP2 SLOAD DUP2 PUSH1 0xFF MUL NOT AND SWAP1 DUP4 ISZERO ISZERO MUL OR SWAP1 SSTORE POP PUSH1 0x4 PUSH0 DUP2 SLOAD DUP1 SWAP3 SWAP2 SWAP1 PUSH2 0x12DA SWAP1 PUSH2 0x1E68 JUMP JUMPDEST SWAP2 SWAP1 POP SSTORE POP PUSH1 0x1 DUP3 DUP2 SLOAD DUP2 LT PUSH2 0x12F3 JUMPI PUSH2 0x12F2 PUSH2 0x1CF4 JUMP JUMPDEST JUMPDEST SWAP1 PUSH0 MSTORE PUSH1 0x20 PUSH0 KECCAK256 SWAP1 PUSH1 0x2 MUL ADD PUSH1 0x1 ADD PUSH0 DUP2 SLOAD DUP1 SWAP3 SWAP2 SWAP1 PUSH2 0x1312 SWAP1 PUSH2 0x1E68 JUMP JUMPDEST SWAP2 SWAP1 POP SSTORE POP DUP2 DUP2 PUSH20 0xFFFFFFFFFFFFFFFFFFFFFFFFFFFFFFFFFFFFFFFF AND PUSH32 0xB4CFECF70861B7B150D8337780D34FB4CBC2114B5FB1FE51A5C5FCA1849F7274 TIMESTAMP PUSH1 0x40 MLOAD PUSH2 0x135E SWAP2 SWAP1 PUSH2 0x1720 JUMP JUMPDEST PUSH1 0x40 MLOAD DUP1 SWAP2 SUB SWAP1 LOG3 POP POP JUMP JUMPDEST PUSH0 DUP2 PUSH1 0x40 MLOAD PUSH1 0x20 ADD PUSH2 0x137C SWAP2 SWAP1 PUSH2 0x2715 JUMP JUMPDEST PUSH1 0x40 MLOAD PUSH1 0x20 DUP2 DUP4 SUB SUB DUP2 MSTORE SWAP1 PUSH1 0x40 MSTORE DUP1 MLOAD SWAP1 PUSH1 0x20 ADD KECCAK256 SWAP1 POP SWAP2 SWAP1 POP JUMP JUMPDEST PUSH0 PUSH1 0x41 DUP3 MLOAD EQ PUSH2 0x13DE JUMPI PUSH1 0x40 MLOAD PUSH32 0x8C379A000000000000000000000000000000000000000000000000000000000 DUP2 MSTORE PUSH1 0x4 ADD PUSH2 0x13D5 SWAP1 PUSH2 0x2784 JUMP JUMPDEST PUSH1 0x40 MLOAD DUP1 SWAP2 SUB SWAP1 REVERT JUMPDEST PUSH0 DUP1 PUSH0 PUSH1 0x20 DUP6 ADD MLOAD SWAP3 POP PUSH1 0x40 DUP6 ADD MLOAD SWAP2 POP PUSH1 0x60 DUP6 ADD MLOAD PUSH0 BYTE SWAP1 POP PUSH1 0x1B DUP2 PUSH1 0xFF AND LT ISZERO PUSH2 0x1414 JUMPI PUSH1 0x1B DUP2 PUSH2 0x1411 SWAP2 SWAP1 PUSH2 0x27AE JUMP JUMPDEST SWAP1 POP JUMPDEST PUSH1 0x1B DUP2 PUSH1 0xFF AND EQ DUP1 PUSH2 0x1429 JUMPI POP PUSH1 0x1C DUP2 PUSH1 0xFF AND EQ JUMPDEST PUSH2 0x1468 JUMPI PUSH1 0x40 MLOAD PUSH32 0x8C379A000000000000000000000000000000000000000000000000000000000 DUP2 MSTORE PUSH1 0x4 ADD PUSH2 0x145F SWAP1 PUSH2 0x282C JUMP JUMPDEST PUSH1 0x40 MLOAD DUP1 SWAP2 SUB SWAP1 REVERT JUMPDEST PUSH0 PUSH1 0x1 DUP8 DUP4 DUP7 DUP7 PUSH1 0x40 MLOAD PUSH0 DUP2 MSTORE PUSH1 0x20 ADD PUSH1 0x40 MSTORE PUSH1 0x40 MLOAD PUSH2 0x148B SWAP5 SWAP4 SWAP3 SWAP2 SWAP1 PUSH2 0x2868 JUMP JUMPDEST PUSH1 0x20 PUSH1 0x40 MLOAD PUSH1 0x20 DUP2 SUB SWAP1 DUP1 DUP5 SUB SWAP1 DUP6 GAS STATICCALL ISZERO DUP1 ISZERO PUSH2 0x14AB JUMPI RETURNDATASIZE PUSH0 DUP1 RETURNDATACOPY RETURNDATASIZE PUSH0 REVERT JUMPDEST POP POP POP PUSH1 0x20 PUSH1 0x40 MLOAD SUB MLOAD SWAP1 POP PUSH0 PUSH20 0xFFFFFFFFFFFFFFFFFFFFFFFFFFFFFFFFFFFFFFFF AND DUP2 PUSH20 0xFFFFFFFFFFFFFFFFFFFFFFFFFFFFFFFFFFFFFFFF AND SUB PUSH2 0x1525 JUMPI PUSH1 0x40 MLOAD PUSH32 0x8C379A000000000000000000000000000000000000000000000000000000000 DUP2 MSTORE PUSH1 0x4 ADD PUSH2 0x151C SWAP1 PUSH2 0x28F5 JUMP JUMPDEST PUSH1 0x40 MLOAD DUP1 SWAP2 SUB SWAP1 REVERT JUMPDEST DUP1 SWAP5 POP POP POP POP POP SWAP3 SWAP2 POP POP JUMP JUMPDEST PUSH0 PUSH1 0x40 MLOAD SWAP1 POP SWAP1 JUMP JUMPDEST PUSH0 DUP1 REVERT JUMPDEST PUSH0 DUP1 REVERT JUMPDEST PUSH0 DUP2 SWAP1 POP SWAP2 SWAP1 POP JUMP JUMPDEST PUSH2 0x1555 DUP2 PUSH2 0x1543 JUMP JUMPDEST DUP2 EQ PUSH2 0x155F JUMPI PUSH0 DUP1 REVERT JUMPDEST POP JUMP JUMPDEST PUSH0 DUP2 CALLDATALOAD SWAP1 POP PUSH2 0x1570 DUP2 PUSH2 0x154C JUMP JUMPDEST SWAP3 SWAP2 POP POP JUMP JUMPDEST PUSH0 PUSH1 0x20 DUP3 DUP5 SUB SLT ISZERO PUSH2 0x158B JUMPI PUSH2 0x158A PUSH2 0x153B JUMP JUMPDEST JUMPDEST PUSH0 PUSH2 0x1598 DUP5 DUP3 DUP6 ADD PUSH2 0x1562 JUMP JUMPDEST SWAP2 POP POP SWAP3 SWAP2 POP POP JUMP JUMPDEST PUSH0 PUSH20 0xFFFFFFFFFFFFFFFFFFFFFFFFFFFFFFFFFFFFFFFF DUP3 AND SWAP1 POP SWAP2 SWAP1 POP JUMP JUMPDEST PUSH0 PUSH2 0x15CA DUP3 PUSH2 0x15A1 JUMP JUMPDEST SWAP1 POP SWAP2 SWAP1 POP JUMP JUMPDEST PUSH2 0x15DA DUP2 PUSH2 0x15C0 JUMP JUMPDEST DUP2 EQ PUSH2 0x15E4 JUMPI PUSH0 DUP1 REVERT JUMPDEST POP JUMP JUMPDEST PUSH0 DUP2 CALLDATALOAD SWAP1 POP PUSH2 0x15F5 DUP2 PUSH2 0x15D1 JUMP JUMPDEST SWAP3 SWAP2 POP POP JUMP JUMPDEST PUSH0 PUSH1 0x20 DUP3 DUP5 SUB SLT ISZERO PUSH2 0x1610 JUMPI PUSH2 0x160F PUSH2 0x153B JUMP JUMPDEST JUMPDEST PUSH0 PUSH2 0x161D DUP5 DUP3 DUP6 ADD PUSH2 0x15E7 JUMP JUMPDEST SWAP2 POP POP SWAP3 SWAP2 POP POP JUMP JUMPDEST PUSH0 DUP2 ISZERO ISZERO SWAP1 POP SWAP2 SWAP1 POP JUMP JUMPDEST PUSH2 0x163A DUP2 PUSH2 0x1626 JUMP JUMPDEST DUP3 MSTORE POP POP JUMP JUMPDEST PUSH0 PUSH1 0x20 DUP3 ADD SWAP1 POP PUSH2 0x1653 PUSH0 DUP4 ADD DUP5 PUSH2 0x1631 JUMP JUMPDEST SWAP3 SWAP2 POP POP JUMP JUMPDEST PUSH0 DUP2 MLOAD SWAP1 POP SWAP2 SWAP1 POP JUMP JUMPDEST PUSH0 DUP3 DUP3 MSTORE PUSH1 0x20 DUP3 ADD SWAP1 POP SWAP3 SWAP2 POP POP JUMP JUMPDEST PUSH0 JUMPDEST DUP4 DUP2 LT ISZERO PUSH2 0x1690 JUMPI DUP1 DUP3 ADD MLOAD DUP2 DUP5 ADD MSTORE PUSH1 0x20 DUP2 ADD SWAP1 POP PUSH2 0x1675 JUMP JUMPDEST PUSH0 DUP5 DUP5 ADD MSTORE POP POP POP POP JUMP JUMPDEST PUSH0 PUSH1 0x1F NOT PUSH1 0x1F DUP4 ADD AND SWAP1 POP SWAP2 SWAP1 POP JUMP JUMPDEST PUSH0 PUSH2 0x16B5 DUP3 PUSH2 0x1659 JUMP JUMPDEST PUSH2 0x16BF DUP2 DUP6 PUSH2 0x1663 JUMP JUMPDEST SWAP4 POP PUSH2 0x16CF DUP2 DUP6 PUSH1 0x20 DUP7 ADD PUSH2 0x1673 JUMP JUMPDEST PUSH2 0x16D8 DUP2 PUSH2 0x169B JUMP JUMPDEST DUP5 ADD SWAP2 POP POP SWAP3 SWAP2 POP POP JUMP JUMPDEST PUSH2 0x16EC DUP2 PUSH2 0x1543 JUMP JUMPDEST DUP3 MSTORE POP POP JUMP JUMPDEST PUSH0 PUSH1 0x40 DUP3 ADD SWAP1 POP DUP2 DUP2 SUB PUSH0 DUP4 ADD MSTORE PUSH2 0x170A DUP2 DUP6 PUSH2 0x16AB JUMP JUMPDEST SWAP1 POP PUSH2 0x1719 PUSH1 0x20 DUP4 ADD DUP5 PUSH2 0x16E3 JUMP JUMPDEST SWAP4 SWAP3 POP POP POP JUMP JUMPDEST PUSH0 PUSH1 0x20 DUP3 ADD SWAP1 POP PUSH2 0x1733 PUSH0 DUP4 ADD DUP5 PUSH2 0x16E3 JUMP JUMPDEST SWAP3 SWAP2 POP POP JUMP JUMPDEST PUSH0 DUP1 REVERT JUMPDEST PUSH0 DUP1 REVERT JUMPDEST PUSH32 0x4E487B7100000000000000000000000000000000000000000000000000000000 PUSH0 MSTORE PUSH1 0x41 PUSH1 0x4 MSTORE PUSH1 0x24 PUSH0 REVERT JUMPDEST PUSH2 0x1777 DUP3 PUSH2 0x169B JUMP JUMPDEST DUP2 ADD DUP2 DUP2 LT PUSH8 0xFFFFFFFFFFFFFFFF DUP3 GT OR ISZERO PUSH2 0x1796 JUMPI PUSH2 0x1795 PUSH2 0x1741 JUMP JUMPDEST JUMPDEST DUP1 PUSH1 0x40 MSTORE POP POP POP JUMP JUMPDEST PUSH0 PUSH2 0x17A8 PUSH2 0x1532 JUMP JUMPDEST SWAP1 POP PUSH2 0x17B4 DUP3 DUP3 PUSH2 0x176E JUMP JUMPDEST SWAP2 SWAP1 POP JUMP JUMPDEST PUSH0 PUSH8 0xFFFFFFFFFFFFFFFF DUP3 GT ISZERO PUSH2 0x17D3 JUMPI PUSH2 0x17D2 PUSH2 0x1741 JUMP JUMPDEST JUMPDEST PUSH2 0x17DC DUP3 PUSH2 0x169B JUMP JUMPDEST SWAP1 POP PUSH1 0x20 DUP2 ADD SWAP1 POP SWAP2 SWAP1 POP JUMP JUMPDEST DUP3 DUP2 DUP4 CALLDATACOPY PUSH0 DUP4 DUP4 ADD MSTORE POP POP POP JUMP JUMPDEST PUSH0 PUSH2 0x1809 PUSH2 0x1804 DUP5 PUSH2 0x17B9 JUMP JUMPDEST PUSH2 0x179F JUMP JUMPDEST SWAP1 POP DUP3 DUP2 MSTORE PUSH1 0x20 DUP2 ADD DUP5 DUP5 DUP5 ADD GT ISZERO PUSH2 0x1825 JUMPI PUSH2 0x1824 PUSH2 0x173D JUMP JUMPDEST JUMPDEST PUSH2 0x1830 DUP5 DUP3 DUP6 PUSH2 0x17E9 JUMP JUMPDEST POP SWAP4 SWAP3 POP POP POP JUMP JUMPDEST PUSH0 DUP3 PUSH1 0x1F DUP4 ADD SLT PUSH2 0x184C JUMPI PUSH2 0x184B PUSH2 0x1739 JUMP JUMPDEST JUMPDEST DUP2 CALLDATALOAD PUSH2 0x185C DUP5 DUP3 PUSH1 0x20 DUP7 ADD PUSH2 0x17F7 JUMP JUMPDEST SWAP2 POP POP SWAP3 SWAP2 POP POP JUMP JUMPDEST PUSH0 PUSH1 0x20 DUP3 DUP5 SUB SLT ISZERO PUSH2 0x187A JUMPI PUSH2 0x1879 PUSH2 0x153B JUMP JUMPDEST JUMPDEST PUSH0 DUP3 ADD CALLDATALOAD PUSH8 0xFFFFFFFFFFFFFFFF DUP2 GT ISZERO PUSH2 0x1897 JUMPI PUSH2 0x1896 PUSH2 0x153F JUMP JUMPDEST JUMPDEST PUSH2 0x18A3 DUP5 DUP3 DUP6 ADD PUSH2 0x1838 JUMP JUMPDEST SWAP2 POP POP SWAP3 SWAP2 POP POP JUMP JUMPDEST PUSH0 DUP1 REVERT JUMPDEST PUSH0 DUP1 REVERT JUMPDEST PUSH0 DUP1 DUP4 PUSH1 0x1F DUP5 ADD SLT PUSH2 0x18C9 JUMPI PUSH2 0x18C8 PUSH2 0x1739 JUMP JUMPDEST JUMPDEST DUP3 CALLDATALOAD SWAP1 POP PUSH8 0xFFFFFFFFFFFFFFFF DUP2 GT ISZERO PUSH2 0x18E6 JUMPI PUSH2 0x18E5 PUSH2 0x18AC JUMP JUMPDEST JUMPDEST PUSH1 0x20 DUP4 ADD SWAP2 POP DUP4 PUSH1 0x1 DUP3 MUL DUP4 ADD GT ISZERO PUSH2 0x1902 JUMPI PUSH2 0x1901 PUSH2 0x18B0 JUMP JUMPDEST JUMPDEST SWAP3 POP SWAP3 SWAP1 POP JUMP JUMPDEST PUSH0 DUP1 PUSH0 DUP1 PUSH0 PUSH1 0x80 DUP7 DUP9 SUB SLT ISZERO PUSH2 0x1922 JUMPI PUSH2 0x1921 PUSH2 0x153B JUMP JUMPDEST JUMPDEST PUSH0 PUSH2 0x192F DUP9 DUP3 DUP10 ADD PUSH2 0x1562 JUMP JUMPDEST SWAP6 POP POP PUSH1 0x20 PUSH2 0x1940 DUP9 DUP3 DUP10 ADD PUSH2 0x15E7 JUMP JUMPDEST SWAP5 POP POP PUSH1 0x40 PUSH2 0x1951 DUP9 DUP3 DUP10 ADD PUSH2 0x1562 JUMP JUMPDEST SWAP4 POP POP PUSH1 0x60 DUP7 ADD CALLDATALOAD PUSH8 0xFFFFFFFFFFFFFFFF DUP2 GT ISZERO PUSH2 0x1972 JUMPI PUSH2 0x1971 PUSH2 0x153F JUMP JUMPDEST JUMPDEST PUSH2 0x197E DUP9 DUP3 DUP10 ADD PUSH2 0x18B4 JUMP JUMPDEST SWAP3 POP SWAP3 POP POP SWAP3 SWAP6 POP SWAP3 SWAP6 SWAP1 SWAP4 POP JUMP JUMPDEST PUSH2 0x1996 DUP2 PUSH2 0x15C0 JUMP JUMPDEST DUP3 MSTORE POP POP JUMP JUMPDEST PUSH0 PUSH1 0x20 DUP3 ADD SWAP1 POP PUSH2 0x19AF PUSH0 DUP4 ADD DUP5 PUSH2 0x198D JUMP JUMPDEST SWAP3 SWAP2 POP POP JUMP JUMPDEST PUSH0 PUSH1 0x60 DUP3 ADD SWAP1 POP DUP2 DUP2 SUB PUSH0 DUP4 ADD MSTORE PUSH2 0x19CD DUP2 DUP7 PUSH2 0x16AB JUMP JUMPDEST SWAP1 POP PUSH2 0x19DC PUSH1 0x20 DUP4 ADD DUP6 PUSH2 0x16E3 JUMP JUMPDEST PUSH2 0x19E9 PUSH1 0x40 DUP4 ADD DUP5 PUSH2 0x1631 JUMP JUMPDEST SWAP5 SWAP4 POP POP POP POP JUMP JUMPDEST PUSH0 PUSH1 0xA0 DUP3 ADD SWAP1 POP PUSH2 0x1A04 PUSH0 DUP4 ADD DUP9 PUSH2 0x16E3 JUMP JUMPDEST PUSH2 0x1A11 PUSH1 0x20 DUP4 ADD DUP8 PUSH2 0x16E3 JUMP JUMPDEST PUSH2 0x1A1E PUSH1 0x40 DUP4 ADD DUP7 PUSH2 0x16E3 JUMP JUMPDEST PUSH2 0x1A2B PUSH1 0x60 DUP4 ADD DUP6 PUSH2 0x1631 JUMP JUMPDEST PUSH2 0x1A38 PUSH1 0x80 DUP4 ADD DUP5 PUSH2 0x16E3 JUMP JUMPDEST SWAP7 SWAP6 POP POP POP POP POP POP JUMP JUMPDEST PUSH0 PUSH1 0x40 DUP3 ADD SWAP1 POP PUSH2 0x1A55 PUSH0 DUP4 ADD DUP6 PUSH2 0x16E3 JUMP JUMPDEST PUSH2 0x1A62 PUSH1 0x20 DUP4 ADD DUP5 PUSH2 0x1631 JUMP JUMPDEST SWAP4 SWAP3 POP POP POP JUMP JUMPDEST PUSH32 0x456C656374696F6E2068617320656E6465640000000000000000000000000000 PUSH0 DUP3 ADD MSTORE POP JUMP JUMPDEST PUSH0 PUSH2 0x1A9D PUSH1 0x12 DUP4 PUSH2 0x1663 JUMP JUMPDEST SWAP2 POP PUSH2 0x1AA8 DUP3 PUSH2 0x1A69 JUMP JUMPDEST PUSH1 0x20 DUP3 ADD SWAP1 POP SWAP2 SWAP1 POP JUMP JUMPDEST PUSH0 PUSH1 0x20 DUP3 ADD SWAP1 POP DUP2 DUP2 SUB PUSH0 DUP4 ADD MSTORE PUSH2 0x1ACA DUP2 PUSH2 0x1A91 JUMP JUMPDEST SWAP1 POP SWAP2 SWAP1 POP JUMP JUMPDEST PUSH32 0x456C656374696F6E206E6F742073746172746564000000000000000000000000 PUSH0 DUP3 ADD MSTORE POP JUMP JUMPDEST PUSH0 PUSH2 0x1B05 PUSH1 0x14 DUP4 PUSH2 0x1663 JUMP JUMPDEST SWAP2 POP PUSH2 0x1B10 DUP3 PUSH2 0x1AD1 JUMP JUMPDEST PUSH1 0x20 DUP3 ADD SWAP1 POP SWAP2 SWAP1 POP JUMP JUMPDEST PUSH0 PUSH1 0x20 DUP3 ADD SWAP1 POP DUP2 DUP2 SUB PUSH0 DUP4 ADD MSTORE PUSH2 0x1B32 DUP2 PUSH2 0x1AF9 JUMP JUMPDEST SWAP1 POP SWAP2 SWAP1 POP JUMP JUMPDEST PUSH32 0x456C656374696F6E2074696D6520657870697265640000000000000000000000 PUSH0 DUP3 ADD MSTORE POP JUMP JUMPDEST PUSH0 PUSH2 0x1B6D PUSH1 0x15 DUP4 PUSH2 0x1663 JUMP JUMPDEST SWAP2 POP PUSH2 0x1B78 DUP3 PUSH2 0x1B39 JUMP JUMPDEST PUSH1 0x20 DUP3 ADD SWAP1 POP SWAP2 SWAP1 POP JUMP JUMPDEST PUSH0 PUSH1 0x20 DUP3 ADD SWAP1 POP DUP2 DUP2 SUB PUSH0 DUP4 ADD MSTORE PUSH2 0x1B9A DUP2 PUSH2 0x1B61 JUMP JUMPDEST SWAP1 POP SWAP2 SWAP1 POP JUMP JUMPDEST PUSH32 0x4E487B7100000000000000000000000000000000000000000000000000000000 PUSH0 MSTORE PUSH1 0x22 PUSH1 0x4 MSTORE PUSH1 0x24 PUSH0 REVERT JUMPDEST PUSH0 PUSH1 0x2 DUP3 DIV SWAP1 POP PUSH1 0x1 DUP3 AND DUP1 PUSH2 0x1BE5 JUMPI PUSH1 0x7F DUP3 AND SWAP2 POP JUMPDEST PUSH1 0x20 DUP3 LT DUP2 SUB PUSH2 0x1BF8 JUMPI PUSH2 0x1BF7 PUSH2 0x1BA1 JUMP JUMPDEST JUMPDEST POP SWAP2 SWAP1 POP JUMP JUMPDEST PUSH32 0x4F6E6C79206F776E657200000000000000000000000000000000000000000000 PUSH0 DUP3 ADD MSTORE POP JUMP JUMPDEST PUSH0 PUSH2 0x1C32 PUSH1 0xA DUP4 PUSH2 0x1663 JUMP JUMPDEST SWAP2 POP PUSH2 0x1C3D DUP3 PUSH2 0x1BFE JUMP JUMPDEST PUSH1 0x20 DUP3 ADD SWAP1 POP SWAP2 SWAP1 POP JUMP JUMPDEST PUSH0 PUSH1 0x20 DUP3 ADD SWAP1 POP DUP2 DUP2 SUB PUSH0 DUP4 ADD MSTORE PUSH2 0x1C5F DUP2 PUSH2 0x1C26 JUMP JUMPDEST SWAP1 POP SWAP2 SWAP1 POP JUMP JUMPDEST PUSH32 0x43616E206F6E6C79206164642063616E64696461746573206265666F72652073 PUSH0 DUP3 ADD MSTORE PUSH32 0x7461727400000000000000000000000000000000000000000000000000000000 PUSH1 0x20 DUP3 ADD MSTORE POP JUMP JUMPDEST PUSH0 PUSH2 0x1CC0 PUSH1 0x24 DUP4 PUSH2 0x1663 JUMP JUMPDEST SWAP2 POP PUSH2 0x1CCB DUP3 PUSH2 0x1C66 JUMP JUMPDEST PUSH1 0x40 DUP3 ADD SWAP1 POP SWAP2 SWAP1 POP JUMP JUMPDEST PUSH0 PUSH1 0x20 DUP3 ADD SWAP1 POP DUP2 DUP2 SUB PUSH0 DUP4 ADD MSTORE PUSH2 0x1CED DUP2 PUSH2 0x1CB4 JUMP JUMPDEST SWAP1 POP SWAP2 SWAP1 POP JUMP JUMPDEST PUSH32 0x4E487B7100000000000000000000000000000000000000000000000000000000 PUSH0 MSTORE PUSH1 0x32 PUSH1 0x4 MSTORE PUSH1 0x24 PUSH0 REVERT JUMPDEST PUSH0 DUP2 SWAP1 POP SWAP3 SWAP2 POP POP JUMP JUMPDEST PUSH0 DUP2 SWAP1 POP DUP2 PUSH0 MSTORE PUSH1 0x20 PUSH0 KECCAK256 SWAP1 POP SWAP2 SWAP1 POP JUMP JUMPDEST PUSH0 DUP2 SLOAD PUSH2 0x1D49 DUP2 PUSH2 0x1BCE JUMP JUMPDEST PUSH2 0x1D53 DUP2 DUP7 PUSH2 0x1D21 JUMP JUMPDEST SWAP5 POP PUSH1 0x1 DUP3 AND PUSH0 DUP2 EQ PUSH2 0x1D6D JUMPI PUSH1 0x1 DUP2 EQ PUSH2 0x1D82 JUMPI PUSH2 0x1DB4 JUMP JUMPDEST PUSH1 0xFF NOT DUP4 AND DUP7 MSTORE DUP2 ISZERO ISZERO DUP3 MUL DUP7 ADD SWAP4 POP PUSH2 0x1DB4 JUMP JUMPDEST PUSH2 0x1D8B DUP6 PUSH2 0x1D2B JUMP JUMPDEST PUSH0 JUMPDEST DUP4 DUP2 LT ISZERO PUSH2 0x1DAC JUMPI DUP2 SLOAD DUP2 DUP10 ADD MSTORE PUSH1 0x1 DUP3 ADD SWAP2 POP PUSH1 0x20 DUP2 ADD SWAP1 POP PUSH2 0x1D8D JUMP JUMPDEST DUP4 DUP9 ADD SWAP6 POP POP POP JUMPDEST POP POP POP SWAP3 SWAP2 POP POP JUMP JUMPDEST PUSH0 PUSH2 0x1DC8 DUP3 DUP5 PUSH2 0x1D3D JUMP JUMPDEST SWAP2 POP DUP2 SWAP1 POP SWAP3 SWAP2 POP POP JUMP JUMPDEST PUSH32 0x4475706C69636174652063616E64696461746500000000000000000000000000 PUSH0 DUP3 ADD MSTORE POP JUMP JUMPDEST PUSH0 PUSH2 0x1E07 PUSH1 0x13 DUP4 PUSH2 0x1663 JUMP JUMPDEST SWAP2 POP PUSH2 0x1E12 DUP3 PUSH2 0x1DD3 JUMP JUMPDEST PUSH1 0x20 DUP3 ADD SWAP1 POP SWAP2 SWAP1 POP JUMP JUMPDEST PUSH0 PUSH1 0x20 DUP3 ADD SWAP1 POP DUP2 DUP2 SUB PUSH0 DUP4 ADD MSTORE PUSH2 0x1E34 DUP2 PUSH2 0x1DFB JUMP JUMPDEST SWAP1 POP SWAP2 SWAP1 POP JUMP JUMPDEST PUSH32 0x4E487B7100000000000000000000000000000000000000000000000000000000 PUSH0 MSTORE PUSH1 0x11 PUSH1 0x4 MSTORE PUSH1 0x24 PUSH0 REVERT JUMPDEST PUSH0 PUSH2 0x1E72 DUP3 PUSH2 0x1543 JUMP JUMPDEST SWAP2 POP PUSH32 0xFFFFFFFFFFFFFFFFFFFFFFFFFFFFFFFFFFFFFFFFFFFFFFFFFFFFFFFFFFFFFFFF DUP3 SUB PUSH2 0x1EA4 JUMPI PUSH2 0x1EA3 PUSH2 0x1E3B JUMP JUMPDEST JUMPDEST PUSH1 0x1 DUP3 ADD SWAP1 POP SWAP2 SWAP1 POP JUMP JUMPDEST PUSH0 DUP2 SWAP1 POP DUP2 PUSH0 MSTORE PUSH1 0x20 PUSH0 KECCAK256 SWAP1 POP SWAP2 SWAP1 POP JUMP JUMPDEST PUSH0 PUSH1 0x20 PUSH1 0x1F DUP4 ADD DIV SWAP1 POP SWAP2 SWAP1 POP JUMP JUMPDEST PUSH0 DUP3 DUP3 SHL SWAP1 POP SWAP3 SWAP2 POP POP JUMP JUMPDEST PUSH0 PUSH1 0x8 DUP4 MUL PUSH2 0x1F0B PUSH32 0xFFFFFFFFFFFFFFFFFFFFFFFFFFFFFFFFFFFFFFFFFFFFFFFFFFFFFFFFFFFFFFFF DUP3 PUSH2 0x1ED0 JUMP JUMPDEST PUSH2 0x1F15 DUP7 DUP4 PUSH2 0x1ED0 JUMP JUMPDEST SWAP6 POP DUP1 NOT DUP5 AND SWAP4 POP DUP1 DUP7 AND DUP5 OR SWAP3 POP POP POP SWAP4 SWAP3 POP POP POP JUMP JUMPDEST PUSH0 DUP2 SWAP1 POP SWAP2 SWAP1 POP JUMP JUMPDEST PUSH0 PUSH2 0x1F50 PUSH2 0x1F4B PUSH2 0x1F46 DUP5 PUSH2 0x1543 JUMP JUMPDEST PUSH2 0x1F2D JUMP JUMPDEST PUSH2 0x1543 JUMP JUMPDEST SWAP1 POP SWAP2 SWAP1 POP JUMP JUMPDEST PUSH0 DUP2 SWAP1 POP SWAP2 SWAP1 POP JUMP JUMPDEST PUSH2 0x1F69 DUP4 PUSH2 0x1F36 JUMP JUMPDEST PUSH2 0x1F7D PUSH2 0x1F75 DUP3 PUSH2 0x1F57 JUMP JUMPDEST DUP5 DUP5 SLOAD PUSH2 0x1EDC JUMP JUMPDEST DUP3 SSTORE POP POP POP POP JUMP JUMPDEST PUSH0 SWAP1 JUMP JUMPDEST PUSH2 0x1F91 PUSH2 0x1F85 JUMP JUMPDEST PUSH2 0x1F9C DUP2 DUP5 DUP5 PUSH2 0x1F60 JUMP JUMPDEST POP POP POP JUMP JUMPDEST JUMPDEST DUP2 DUP2 LT ISZERO PUSH2 0x1FBF JUMPI PUSH2 0x1FB4 PUSH0 DUP3 PUSH2 0x1F89 JUMP JUMPDEST PUSH1 0x1 DUP2 ADD SWAP1 POP PUSH2 0x1FA2 JUMP JUMPDEST POP POP JUMP JUMPDEST PUSH1 0x1F DUP3 GT ISZERO PUSH2 0x2004 JUMPI PUSH2 0x1FD5 DUP2 PUSH2 0x1EAF JUMP JUMPDEST PUSH2 0x1FDE DUP5 PUSH2 0x1EC1 JUMP JUMPDEST DUP2 ADD PUSH1 0x20 DUP6 LT ISZERO PUSH2 0x1FED JUMPI DUP2 SWAP1 POP JUMPDEST PUSH2 0x2001 PUSH2 0x1FF9 DUP6 PUSH2 0x1EC1 JUMP JUMPDEST DUP4 ADD DUP3 PUSH2 0x1FA1 JUMP JUMPDEST POP POP JUMPDEST POP POP POP JUMP JUMPDEST PUSH0 DUP3 DUP3 SHR SWAP1 POP SWAP3 SWAP2 POP POP JUMP JUMPDEST PUSH0 PUSH2 0x2024 PUSH0 NOT DUP5 PUSH1 0x8 MUL PUSH2 0x2009 JUMP JUMPDEST NOT DUP1 DUP4 AND SWAP2 POP POP SWAP3 SWAP2 POP POP JUMP JUMPDEST PUSH0 PUSH2 0x203C DUP4 DUP4 PUSH2 0x2015 JUMP JUMPDEST SWAP2 POP DUP3 PUSH1 0x2 MUL DUP3 OR SWAP1 POP SWAP3 SWAP2 POP POP JUMP JUMPDEST PUSH2 0x2055 DUP3 PUSH2 0x1659 JUMP JUMPDEST PUSH8 0xFFFFFFFFFFFFFFFF DUP2 GT ISZERO PUSH2 0x206E JUMPI PUSH2 0x206D PUSH2 0x1741 JUMP JUMPDEST JUMPDEST PUSH2 0x2078 DUP3 SLOAD PUSH2 0x1BCE JUMP JUMPDEST PUSH2 0x2083 DUP3 DUP3 DUP6 PUSH2 0x1FC3 JUMP JUMPDEST PUSH0 PUSH1 0x20 SWAP1 POP PUSH1 0x1F DUP4 GT PUSH1 0x1 DUP2 EQ PUSH2 0x20B4 JUMPI PUSH0 DUP5 ISZERO PUSH2 0x20A2 JUMPI DUP3 DUP8 ADD MLOAD SWAP1 POP JUMPDEST PUSH2 0x20AC DUP6 DUP3 PUSH2 0x2031 JUMP JUMPDEST DUP7 SSTORE POP PUSH2 0x2113 JUMP JUMPDEST PUSH1 0x1F NOT DUP5 AND PUSH2 0x20C2 DUP7 PUSH2 0x1EAF JUMP JUMPDEST PUSH0 JUMPDEST DUP3 DUP2 LT ISZERO PUSH2 0x20E9 JUMPI DUP5 DUP10 ADD MLOAD DUP3 SSTORE PUSH1 0x1 DUP3 ADD SWAP2 POP PUSH1 0x20 DUP6 ADD SWAP5 POP PUSH1 0x20 DUP2 ADD SWAP1 POP PUSH2 0x20C4 JUMP JUMPDEST DUP7 DUP4 LT ISZERO PUSH2 0x2106 JUMPI DUP5 DUP10 ADD MLOAD PUSH2 0x2102 PUSH1 0x1F DUP10 AND DUP3 PUSH2 0x2015 JUMP JUMPDEST DUP4 SSTORE POP JUMPDEST PUSH1 0x1 PUSH1 0x2 DUP9 MUL ADD DUP9 SSTORE POP POP POP JUMPDEST POP POP POP POP POP POP JUMP JUMPDEST PUSH0 PUSH1 0x20 DUP3 ADD SWAP1 POP DUP2 DUP2 SUB PUSH0 DUP4 ADD MSTORE PUSH2 0x2133 DUP2 DUP5 PUSH2 0x16AB JUMP JUMPDEST SWAP1 POP SWAP3 SWAP2 POP POP JUMP JUMPDEST PUSH32 0x496E76616C69642063616E646964617465000000000000000000000000000000 PUSH0 DUP3 ADD MSTORE POP JUMP JUMPDEST PUSH0 PUSH2 0x216F PUSH1 0x11 DUP4 PUSH2 0x1663 JUMP JUMPDEST SWAP2 POP PUSH2 0x217A DUP3 PUSH2 0x213B JUMP JUMPDEST PUSH1 0x20 DUP3 ADD SWAP1 POP SWAP2 SWAP1 POP JUMP JUMPDEST PUSH0 PUSH1 0x20 DUP3 ADD SWAP1 POP DUP2 DUP2 SUB PUSH0 DUP4 ADD MSTORE PUSH2 0x219C DUP2 PUSH2 0x2163 JUMP JUMPDEST SWAP1 POP SWAP2 SWAP1 POP JUMP JUMPDEST PUSH32 0x566F74657220616C726561647920766F74656400000000000000000000000000 PUSH0 DUP3 ADD MSTORE POP JUMP JUMPDEST PUSH0 PUSH2 0x21D7 PUSH1 0x13 DUP4 PUSH2 0x1663 JUMP JUMPDEST SWAP2 POP PUSH2 0x21E2 DUP3 PUSH2 0x21A3 JUMP JUMPDEST PUSH1 0x20 DUP3 ADD SWAP1 POP SWAP2 SWAP1 POP JUMP JUMPDEST PUSH0 PUSH1 0x20 DUP3 ADD SWAP1 POP DUP2 DUP2 SUB PUSH0 DUP4 ADD MSTORE PUSH2 0x2204 DUP2 PUSH2 0x21CB JUMP JUMPDEST SWAP1 POP SWAP2 SWAP1 POP JUMP JUMPDEST PUSH32 0x4D617820766F7465727320726561636865640000000000000000000000000000 PUSH0 DUP3 ADD MSTORE POP JUMP JUMPDEST PUSH0 PUSH2 0x223F PUSH1 0x12 DUP4 PUSH2 0x1663 JUMP JUMPDEST SWAP2 POP PUSH2 0x224A DUP3 PUSH2 0x220B JUMP JUMPDEST PUSH1 0x20 DUP3 ADD SWAP1 POP SWAP2 SWAP1 POP JUMP JUMPDEST PUSH0 PUSH1 0x20 DUP3 ADD SWAP1 POP DUP2 DUP2 SUB PUSH0 DUP4 ADD MSTORE PUSH2 0x226C DUP2 PUSH2 0x2233 JUMP JUMPDEST SWAP1 POP SWAP2 SWAP1 POP JUMP JUMPDEST PUSH32 0x496E76616C6964206E6F6E636500000000000000000000000000000000000000 PUSH0 DUP3 ADD MSTORE POP JUMP JUMPDEST PUSH0 PUSH2 0x22A7 PUSH1 0xD DUP4 PUSH2 0x1663 JUMP JUMPDEST SWAP2 POP PUSH2 0x22B2 DUP3 PUSH2 0x2273 JUMP JUMPDEST PUSH1 0x20 DUP3 ADD SWAP1 POP SWAP2 SWAP1 POP JUMP JUMPDEST PUSH0 PUSH1 0x20 DUP3 ADD SWAP1 POP DUP2 DUP2 SUB PUSH0 DUP4 ADD MSTORE PUSH2 0x22D4 DUP2 PUSH2 0x229B JUMP JUMPDEST SWAP1 POP SWAP2 SWAP1 POP JUMP JUMPDEST PUSH0 DUP2 PUSH1 0x60 SHL SWAP1 POP SWAP2 SWAP1 POP JUMP JUMPDEST PUSH0 PUSH2 0x22F1 DUP3 PUSH2 0x22DB JUMP JUMPDEST SWAP1 POP SWAP2 SWAP1 POP JUMP JUMPDEST PUSH0 PUSH2 0x2302 DUP3 PUSH2 0x22E7 JUMP JUMPDEST SWAP1 POP SWAP2 SWAP1 POP JUMP JUMPDEST PUSH2 0x231A PUSH2 0x2315 DUP3 PUSH2 0x15C0 JUMP JUMPDEST PUSH2 0x22F8 JUMP JUMPDEST DUP3 MSTORE POP POP JUMP JUMPDEST PUSH0 DUP2 SWAP1 POP SWAP2 SWAP1 POP JUMP JUMPDEST PUSH2 0x233A PUSH2 0x2335 DUP3 PUSH2 0x1543 JUMP JUMPDEST PUSH2 0x2320 JUMP JUMPDEST DUP3 MSTORE POP POP JUMP JUMPDEST PUSH0 PUSH2 0x234B DUP3 DUP8 PUSH2 0x2309 JUMP JUMPDEST PUSH1 0x14 DUP3 ADD SWAP2 POP PUSH2 0x235B DUP3 DUP7 PUSH2 0x2309 JUMP JUMPDEST PUSH1 0x14 DUP3 ADD SWAP2 POP PUSH2 0x236B DUP3 DUP6 PUSH2 0x2329 JUMP JUMPDEST PUSH1 0x20 DUP3 ADD SWAP2 POP PUSH2 0x237B DUP3 DUP5 PUSH2 0x2329 JUMP JUMPDEST PUSH1 0x20 DUP3 ADD SWAP2 POP DUP2 SWAP1 POP SWAP6 SWAP5 POP POP POP POP POP JUMP JUMPDEST PUSH32 0x496E76616C6964207369676E6174757265000000000000000000000000000000 PUSH0 DUP3 ADD MSTORE POP JUMP JUMPDEST PUSH0 PUSH2 0x23C1 PUSH1 0x11 DUP4 PUSH2 0x1663 JUMP JUMPDEST SWAP2 POP PUSH2 0x23CC DUP3 PUSH2 0x238D JUMP JUMPDEST PUSH1 0x20 DUP3 ADD SWAP1 POP SWAP2 SWAP1 POP JUMP JUMPDEST PUSH0 PUSH1 0x20 DUP3 ADD SWAP1 POP DUP2 DUP2 SUB PUSH0 DUP4 ADD MSTORE PUSH2 0x23EE DUP2 PUSH2 0x23B5 JUMP JUMPDEST SWAP1 POP SWAP2 SWAP1 POP JUMP JUMPDEST PUSH32 0x416C726561647920656E64656400000000000000000000000000000000000000 PUSH0 DUP3 ADD MSTORE POP JUMP JUMPDEST PUSH0 PUSH2 0x2429 PUSH1 0xD DUP4 PUSH2 0x1663 JUMP JUMPDEST SWAP2 POP PUSH2 0x2434 DUP3 PUSH2 0x23F5 JUMP JUMPDEST PUSH1 0x20 DUP3 ADD SWAP1 POP SWAP2 SWAP1 POP JUMP JUMPDEST PUSH0 PUSH1 0x20 DUP3 ADD SWAP1 POP DUP2 DUP2 SUB PUSH0 DUP4 ADD MSTORE PUSH2 0x2456 DUP2 PUSH2 0x241D JUMP JUMPDEST SWAP1 POP SWAP2 SWAP1 POP JUMP JUMPDEST PUSH32 0x456C656374696F6E207374696C6C2072756E6E696E6700000000000000000000 PUSH0 DUP3 ADD MSTORE POP JUMP JUMPDEST PUSH0 PUSH2 0x2491 PUSH1 0x16 DUP4 PUSH2 0x1663 JUMP JUMPDEST SWAP2 POP PUSH2 0x249C DUP3 PUSH2 0x245D JUMP JUMPDEST PUSH1 0x20 DUP3 ADD SWAP1 POP SWAP2 SWAP1 POP JUMP JUMPDEST PUSH0 PUSH1 0x20 DUP3 ADD SWAP1 POP DUP2 DUP2 SUB PUSH0 DUP4 ADD MSTORE PUSH2 0x24BE DUP2 PUSH2 0x2485 JUMP JUMPDEST SWAP1 POP SWAP2 SWAP1 POP JUMP JUMPDEST PUSH32 0x43616E646964617465206E6F7420666F756E6400000000000000000000000000 PUSH0 DUP3 ADD MSTORE POP JUMP JUMPDEST PUSH0 PUSH2 0x24F9 PUSH1 0x13 DUP4 PUSH2 0x1663 JUMP JUMPDEST SWAP2 POP PUSH2 0x2504 DUP3 PUSH2 0x24C5 JUMP JUMPDEST PUSH1 0x20 DUP3 ADD SWAP1 POP SWAP2 SWAP1 POP JUMP JUMPDEST PUSH0 PUSH1 0x20 DUP3 ADD SWAP1 POP DUP2 DUP2 SUB PUSH0 DUP4 ADD MSTORE PUSH2 0x2526 DUP2 PUSH2 0x24ED JUMP JUMPDEST SWAP1 POP SWAP2 SWAP1 POP JUMP JUMPDEST PUSH32 0x456C656374696F6E206F6E676F696E6700000000000000000000000000000000 PUSH0 DUP3 ADD MSTORE POP JUMP JUMPDEST PUSH0 PUSH2 0x2561 PUSH1 0x10 DUP4 PUSH2 0x1663 JUMP JUMPDEST SWAP2 POP PUSH2 0x256C DUP3 PUSH2 0x252D JUMP JUMPDEST PUSH1 0x20 DUP3 ADD SWAP1 POP SWAP2 SWAP1 POP JUMP JUMPDEST PUSH0 PUSH1 0x20 DUP3 ADD SWAP1 POP DUP2 DUP2 SUB PUSH0 DUP4 ADD MSTORE PUSH2 0x258E DUP2 PUSH2 0x2555 JUMP JUMPDEST SWAP1 POP SWAP2 SWAP1 POP JUMP JUMPDEST PUSH0 PUSH2 0x259F DUP3 PUSH2 0x1543 JUMP JUMPDEST SWAP2 POP PUSH2 0x25AA DUP4 PUSH2 0x1543 JUMP JUMPDEST SWAP3 POP DUP3 DUP3 SUB SWAP1 POP DUP2 DUP2 GT ISZERO PUSH2 0x25C2 JUMPI PUSH2 0x25C1 PUSH2 0x1E3B JUMP JUMPDEST JUMPDEST SWAP3 SWAP2 POP POP JUMP JUMPDEST PUSH32 0x416C726561647920766F74656400000000000000000000000000000000000000 PUSH0 DUP3 ADD MSTORE POP JUMP JUMPDEST PUSH0 PUSH2 0x25FC PUSH1 0xD DUP4 PUSH2 0x1663 JUMP JUMPDEST SWAP2 POP PUSH2 0x2607 DUP3 PUSH2 0x25C8 JUMP JUMPDEST PUSH1 0x20 DUP3 ADD SWAP1 POP SWAP2 SWAP1 POP JUMP JUMPDEST PUSH0 PUSH1 0x20 DUP3 ADD SWAP1 POP DUP2 DUP2 SUB PUSH0 DUP4 ADD MSTORE PUSH2 0x2629 DUP2 PUSH2 0x25F0 JUMP JUMPDEST SWAP1 POP SWAP2 SWAP1 POP JUMP JUMPDEST PUSH32 0x43616E646964617465206F7574206F662072616E676500000000000000000000 PUSH0 DUP3 ADD MSTORE POP JUMP JUMPDEST PUSH0 PUSH2 0x2664 PUSH1 0x16 DUP4 PUSH2 0x1663 JUMP JUMPDEST SWAP2 POP PUSH2 0x266F DUP3 PUSH2 0x2630 JUMP JUMPDEST PUSH1 0x20 DUP3 ADD SWAP1 POP SWAP2 SWAP1 POP JUMP JUMPDEST PUSH0 PUSH1 0x20 DUP3 ADD SWAP1 POP DUP2 DUP2 SUB PUSH0 DUP4 ADD MSTORE PUSH2 0x2691 DUP2 PUSH2 0x2658 JUMP JUMPDEST SWAP1 POP SWAP2 SWAP1 POP JUMP JUMPDEST PUSH0 DUP2 SWAP1 POP SWAP3 SWAP2 POP POP JUMP JUMPDEST PUSH32 0x19457468657265756D205369676E6564204D6573736167653A0A333200000000 PUSH0 DUP3 ADD MSTORE POP JUMP JUMPDEST PUSH0 PUSH2 0x26D6 PUSH1 0x1C DUP4 PUSH2 0x2698 JUMP JUMPDEST SWAP2 POP PUSH2 0x26E1 DUP3 PUSH2 0x26A2 JUMP JUMPDEST PUSH1 0x1C DUP3 ADD SWAP1 POP SWAP2 SWAP1 POP JUMP JUMPDEST PUSH0 DUP2 SWAP1 POP SWAP2 SWAP1 POP JUMP JUMPDEST PUSH0 DUP2 SWAP1 POP SWAP2 SWAP1 POP JUMP JUMPDEST PUSH2 0x270F PUSH2 0x270A DUP3 PUSH2 0x26EC JUMP JUMPDEST PUSH2 0x26F5 JUMP JUMPDEST DUP3 MSTORE POP POP JUMP JUMPDEST PUSH0 PUSH2 0x271F DUP3 PUSH2 0x26CA JUMP JUMPDEST SWAP2 POP PUSH2 0x272B DUP3 DUP5 PUSH2 0x26FE JUMP JUMPDEST PUSH1 0x20 DUP3 ADD SWAP2 POP DUP2 SWAP1 POP SWAP3 SWAP2 POP POP JUMP JUMPDEST PUSH32 0x496E76616C696420736967206C656E6774680000000000000000000000000000 PUSH0 DUP3 ADD MSTORE POP JUMP JUMPDEST PUSH0 PUSH2 0x276E PUSH1 0x12 DUP4 PUSH2 0x1663 JUMP JUMPDEST SWAP2 POP PUSH2 0x2779 DUP3 PUSH2 0x273A JUMP JUMPDEST PUSH1 0x20 DUP3 ADD SWAP1 POP SWAP2 SWAP1 POP JUMP JUMPDEST PUSH0 PUSH1 0x20 DUP3 ADD SWAP1 POP DUP2 DUP2 SUB PUSH0 DUP4 ADD MSTORE PUSH2 0x279B DUP2 PUSH2 0x2762 JUMP JUMPDEST SWAP1 POP SWAP2 SWAP1 POP JUMP JUMPDEST PUSH0 PUSH1 0xFF DUP3 AND SWAP1 POP SWAP2 SWAP1 POP JUMP JUMPDEST PUSH0 PUSH2 0x27B8 DUP3 PUSH2 0x27A2 JUMP JUMPDEST SWAP2 POP PUSH2 0x27C3 DUP4 PUSH2 0x27A2 JUMP JUMPDEST SWAP3 POP DUP3 DUP3 ADD SWAP1 POP PUSH1 0xFF DUP2 GT ISZERO PUSH2 0x27DC JUMPI PUSH2 0x27DB PUSH2 0x1E3B JUMP JUMPDEST JUMPDEST SWAP3 SWAP2 POP POP JUMP JUMPDEST PUSH32 0x496E76616C696420760000000000000000000000000000000000000000000000 PUSH0 DUP3 ADD MSTORE POP JUMP JUMPDEST PUSH0 PUSH2 0x2816 PUSH1 0x9 DUP4 PUSH2 0x1663 JUMP JUMPDEST SWAP2 POP PUSH2 0x2821 DUP3 PUSH2 0x27E2 JUMP JUMPDEST PUSH1 0x20 DUP3 ADD SWAP1 POP SWAP2 SWAP1 POP JUMP JUMPDEST PUSH0 PUSH1 0x20 DUP3 ADD SWAP1 POP DUP2 DUP2 SUB PUSH0 DUP4 ADD MSTORE PUSH2 0x2843 DUP2 PUSH2 0x280A JUMP JUMPDEST SWAP1 POP SWAP2 SWAP1 POP JUMP JUMPDEST PUSH2 0x2853 DUP2 PUSH2 0x26EC JUMP JUMPDEST DUP3 MSTORE POP POP JUMP JUMPDEST PUSH2 0x2862 DUP2 PUSH2 0x27A2 JUMP JUMPDEST DUP3 MSTORE POP POP JUMP JUMPDEST PUSH0 PUSH1 0x80 DUP3 ADD SWAP1 POP PUSH2 0x287B PUSH0 DUP4 ADD DUP8 PUSH2 0x284A JUMP JUMPDEST PUSH2 0x2888 PUSH1 0x20 DUP4 ADD DUP7 PUSH2 0x2859 JUMP JUMPDEST PUSH2 0x2895 PUSH1 0x40 DUP4 ADD DUP6 PUSH2 0x284A JUMP JUMPDEST PUSH2 0x28A2 PUSH1 0x60 DUP4 ADD DUP5 PUSH2 0x284A JUMP JUMPDEST SWAP6 SWAP5 POP POP POP POP POP JUMP JUMPDEST PUSH32 0x496E76616C6964207369676E6572000000000000000000000000000000000000 PUSH0 DUP3 ADD MSTORE POP JUMP JUMPDEST PUSH0 PUSH2 0x28DF PUSH1 0xE DUP4 PUSH2 0x1663 JUMP JUMPDEST SWAP2 POP PUSH2 0x28EA DUP3 PUSH2 0x28AB JUMP JUMPDEST PUSH1 0x20 DUP3 ADD SWAP1 POP SWAP2 SWAP1 POP JUMP JUMPDEST PUSH0 PUSH1 0x20 DUP3 ADD SWAP1 POP DUP2 DUP2 SUB PUSH0 DUP4 ADD MSTORE PUSH2 0x290C DUP2 PUSH2 0x28D3 JUMP JUMPDEST SWAP1 POP SWAP2 SWAP1 POP JUMP INVALID LOG2 PUSH5 0x6970667358 0x22 SLT KECCAK256 DUP11 CODESIZE BALANCE 0xAF 0xEB PC 0xA6 OR 0xA7 LOG0 0xAD EXTCODEHASH 0xF9 PUSH15 0x14F23A58F83A08E3F57AE528BC9F44 PUSH27 0xBD6564736F6C634300081400330000000000000000000000000000 "},"methodIdentifiers":{"addCandidate(string)":"462e91ec","candidateCount()":"a9a981a3","candidates(uint256)":"3477ee2e","electionEndTime()":"9e136e64","electionEnded()":"c94ca9e3","electionStartTime()":"c5980c94","endElection()":"59f78468","getCandidateIndexByName(string)":"c07909f4","getElectionStats()":"906ad2a9","getWinner()":"8e7ea5b2","hasVoted(address)":"09eef43e","maxVoters()":"d5e50a63","nonces(address)":"7ecebe00","owner()":"8da5cb5b","vote(uint256)":"0121b93f","voteByName(string)":"88c10463","voteBySignature(uint256,address,uint256,bytes)":"4d3e0f68","voterCount()":"42169e48"}}}}}